{
	"data": {
		"bytecode": {
			"linkReferences": {},
			"object": "60a06040523480156200001157600080fd5b50604051620014ab380380620014ab833981810160405281019062000037919062000179565b8173ffffffffffffffffffffffffffffffffffffffff1660808173ffffffffffffffffffffffffffffffffffffffff1681525050806000806101000a81548161ffff021916908361ffff16021790555033600260006101000a81548173ffffffffffffffffffffffffffffffffffffffff021916908373ffffffffffffffffffffffffffffffffffffffff1602179055505050620001c0565b600080fd5b600073ffffffffffffffffffffffffffffffffffffffff82169050919050565b60006200010282620000d5565b9050919050565b6200011481620000f5565b81146200012057600080fd5b50565b600081519050620001348162000109565b92915050565b600061ffff82169050919050565b62000153816200013a565b81146200015f57600080fd5b50565b600081519050620001738162000148565b92915050565b60008060408385031215620001935762000192620000d0565b5b6000620001a38582860162000123565b9250506020620001b68582860162000162565b9150509250929050565b6080516112ba620001f1600039600081816101ce01528181610306015281816104ff01526105e601526112ba6000f3fe60806040526004361061007b5760003560e01c8063921b58a91161004e578063921b58a91461012d578063afd4448814610158578063c439b0d914610174578063da25b7251461019f5761007b565b806328bd75ce1461008057806332cf4cd5146100bd578063529dca32146100e65780638da5cb5b14610102575b600080fd5b34801561008c57600080fd5b506100a760048036038101906100a291906106f9565b6101ca565b6040516100b4919061073f565b60405180910390f35b3480156100c957600080fd5b506100e460048036038101906100df9190610790565b610277565b005b61010060048036038101906100fb91906109fc565b610304565b005b34801561010e57600080fd5b50610117610430565b6040516101249190610af0565b60405180910390f35b34801561013957600080fd5b50610142610456565b60405161014f9190610b93565b60405180910390f35b610172600480360381019061016d9190610c82565b6104e4565b005b34801561018057600080fd5b506101896105d2565b6040516101969190610d00565b60405180910390f35b3480156101ab57600080fd5b506101b46105e4565b6040516101c19190610d7a565b60405180910390f35b60007f000000000000000000000000000000000000000000000000000000000000000073ffffffffffffffffffffffffffffffffffffffff1663c23ee3c383600062030d406040518463ffffffff1660e01b815260040161022d93929190610dd0565b6040805180830381865afa158015610249573d6000803e3d6000fd5b505050506040513d601f19601f8201168201806040525081019061026d9190610e33565b5080915050919050565b600260009054906101000a900473ffffffffffffffffffffffffffffffffffffffff1673ffffffffffffffffffffffffffffffffffffffff163373ffffffffffffffffffffffffffffffffffffffff16146102d157600080fd5b6000801b81036102e057600080fd5b80600360008461ffff1661ffff168152602001908152602001600020819055505050565b7f000000000000000000000000000000000000000000000000000000000000000073ffffffffffffffffffffffffffffffffffffffff163373ffffffffffffffffffffffffffffffffffffffff1614610392576040517f08c379a000000000000000000000000000000000000000000000000000000000815260040161038990610ebf565b60405180910390fd5b82600360008461ffff1661ffff16815260200190815260200160002054146103b957600080fd5b600080868060200190518101906103d09190610f8d565b9150915081600190805190602001906103ea929190610608565b507f5c4ab0cfb98525b63324629eb8c98352dec2bece203410170311b784050546766001858360405161041f939291906110de565b60405180910390a150505050505050565b600260009054906101000a900473ffffffffffffffffffffffffffffffffffffffff1681565b6001805461046390611018565b80601f016020809104026020016040519081016040528092919081815260200182805461048f90611018565b80156104dc5780601f106104b1576101008083540402835291602001916104dc565b820191906000526020600020905b8154815290600101906020018083116104bf57829003601f168201915b505050505081565b60006104ef846101ca565b90508034146104fd57600080fd5b7f000000000000000000000000000000000000000000000000000000000000000073ffffffffffffffffffffffffffffffffffffffff16634b5ca6f4828686863360405160200161054f92919061111c565b604051602081830303815290604052600062030d408b336040518963ffffffff1660e01b815260040161058897969594939291906111a1565b60206040518083038185885af11580156105a6573d6000803e3d6000fd5b50505050506040513d601f19601f820116820180604052508101906105cb9190611257565b5050505050565b60008054906101000a900461ffff1681565b7f000000000000000000000000000000000000000000000000000000000000000081565b82805461061490611018565b90600052602060002090601f016020900481019282610636576000855561067d565b82601f1061064f57805160ff191683800117855561067d565b8280016001018555821561067d579182015b8281111561067c578251825591602001919060010190610661565b5b50905061068a919061068e565b5090565b5b808211156106a757600081600090555060010161068f565b5090565b6000604051905090565b600080fd5b600080fd5b600061ffff82169050919050565b6106d6816106bf565b81146106e157600080fd5b50565b6000813590506106f3816106cd565b92915050565b60006020828403121561070f5761070e6106b5565b5b600061071d848285016106e4565b91505092915050565b6000819050919050565b61073981610726565b82525050565b60006020820190506107546000830184610730565b92915050565b6000819050919050565b61076d8161075a565b811461077857600080fd5b50565b60008135905061078a81610764565b92915050565b600080604083850312156107a7576107a66106b5565b5b60006107b5858286016106e4565b92505060206107c68582860161077b565b9150509250929050565b600080fd5b600080fd5b6000601f19601f8301169050919050565b7f4e487b7100000000000000000000000000000000000000000000000000000000600052604160045260246000fd5b610823826107da565b810181811067ffffffffffffffff82111715610842576108416107eb565b5b80604052505050565b60006108556106ab565b9050610861828261081a565b919050565b600067ffffffffffffffff821115610881576108806107eb565b5b61088a826107da565b9050602081019050919050565b82818337600083830152505050565b60006108b96108b484610866565b61084b565b9050828152602081018484840111156108d5576108d46107d5565b5b6108e0848285610897565b509392505050565b600082601f8301126108fd576108fc6107d0565b5b813561090d8482602086016108a6565b91505092915050565b600067ffffffffffffffff821115610931576109306107eb565b5b602082029050602081019050919050565b600080fd5b600061095a61095584610916565b61084b565b9050808382526020820190506020840283018581111561097d5761097c610942565b5b835b818110156109c457803567ffffffffffffffff8111156109a2576109a16107d0565b5b8086016109af89826108e8565b8552602085019450505060208101905061097f565b5050509392505050565b600082601f8301126109e3576109e26107d0565b5b81356109f3848260208601610947565b91505092915050565b600080600080600060a08688031215610a1857610a176106b5565b5b600086013567ffffffffffffffff811115610a3657610a356106ba565b5b610a42888289016108e8565b955050602086013567ffffffffffffffff811115610a6357610a626106ba565b5b610a6f888289016109ce565b9450506040610a808882890161077b565b9350506060610a91888289016106e4565b9250506080610aa28882890161077b565b9150509295509295909350565b600073ffffffffffffffffffffffffffffffffffffffff82169050919050565b6000610ada82610aaf565b9050919050565b610aea81610acf565b82525050565b6000602082019050610b056000830184610ae1565b92915050565b600081519050919050565b600082825260208201905092915050565b60005b83811015610b45578082015181840152602081019050610b2a565b83811115610b54576000848401525b50505050565b6000610b6582610b0b565b610b6f8185610b16565b9350610b7f818560208601610b27565b610b88816107da565b840191505092915050565b60006020820190508181036000830152610bad8184610b5a565b905092915050565b610bbe81610acf565b8114610bc957600080fd5b50565b600081359050610bdb81610bb5565b92915050565b600067ffffffffffffffff821115610bfc57610bfb6107eb565b5b610c05826107da565b9050602081019050919050565b6000610c25610c2084610be1565b61084b565b905082815260208101848484011115610c4157610c406107d5565b5b610c4c848285610897565b509392505050565b600082601f830112610c6957610c686107d0565b5b8135610c79848260208601610c12565b91505092915050565b600080600060608486031215610c9b57610c9a6106b5565b5b6000610ca9868287016106e4565b9350506020610cba86828701610bcc565b925050604084013567ffffffffffffffff811115610cdb57610cda6106ba565b5b610ce786828701610c54565b9150509250925092565b610cfa816106bf565b82525050565b6000602082019050610d156000830184610cf1565b92915050565b6000819050919050565b6000610d40610d3b610d3684610aaf565b610d1b565b610aaf565b9050919050565b6000610d5282610d25565b9050919050565b6000610d6482610d47565b9050919050565b610d7481610d59565b82525050565b6000602082019050610d8f6000830184610d6b565b92915050565b6000819050919050565b6000610dba610db5610db084610d95565b610d1b565b610726565b9050919050565b610dca81610d9f565b82525050565b6000606082019050610de56000830186610cf1565b610df26020830185610dc1565b610dff6040830184610730565b949350505050565b610e1081610726565b8114610e1b57600080fd5b50565b600081519050610e2d81610e07565b92915050565b60008060408385031215610e4a57610e496106b5565b5b6000610e5885828601610e1e565b9250506020610e6985828601610e1e565b9150509250929050565b7f4f6e6c792072656c6179657220616c6c6f776564000000000000000000000000600082015250565b6000610ea9601483610b16565b9150610eb482610e73565b602082019050919050565b60006020820190508181036000830152610ed881610e9c565b9050919050565b6000610ef2610eed84610be1565b61084b565b905082815260208101848484011115610f0e57610f0d6107d5565b5b610f19848285610b27565b509392505050565b600082601f830112610f3657610f356107d0565b5b8151610f46848260208601610edf565b91505092915050565b6000610f5a82610aaf565b9050919050565b610f6a81610f4f565b8114610f7557600080fd5b50565b600081519050610f8781610f61565b92915050565b60008060408385031215610fa457610fa36106b5565b5b600083015167ffffffffffffffff811115610fc257610fc16106ba565b5b610fce85828601610f21565b9250506020610fdf85828601610f78565b9150509250929050565b7f4e487b7100000000000000000000000000000000000000000000000000000000600052602260045260246000fd5b6000600282049050600182168061103057607f821691505b60208210810361104357611042610fe9565b5b50919050565b60008190508160005260206000209050919050565b6000815461106b81611018565b6110758186610b16565b9450600182166000811461109057600181146110a2576110d5565b60ff19831686526020860193506110d5565b6110ab85611049565b60005b838110156110cd578154818901526001820191506020810190506110ae565b808801955050505b50505092915050565b600060608201905081810360008301526110f8818661105e565b90506111076020830185610cf1565b6111146040830184610ae1565b949350505050565b600060408201905081810360008301526111368185610b5a565b90506111456020830184610ae1565b9392505050565b600081519050919050565b600082825260208201905092915050565b60006111738261114c565b61117d8185611157565b935061118d818560208601610b27565b611196816107da565b840191505092915050565b600060e0820190506111b6600083018a610cf1565b6111c36020830189610ae1565b81810360408301526111d58188611168565b90506111e46060830187610dc1565b6111f16080830186610730565b6111fe60a0830185610cf1565b61120b60c0830184610ae1565b98975050505050505050565b600067ffffffffffffffff82169050919050565b61123481611217565b811461123f57600080fd5b50565b6000815190506112518161122b565b92915050565b60006020828403121561126d5761126c6106b5565b5b600061127b84828501611242565b9150509291505056fea264697066735822122003fcca16a7e8b9e7c0838c3f4d7c9a54f330df46821f04d1f87a1a963cfc803d64736f6c634300080d0033",
			"opcodes": "PUSH1 0xA0 PUSH1 0x40 MSTORE CALLVALUE DUP1 ISZERO PUSH3 0x11 JUMPI PUSH1 0x0 DUP1 REVERT JUMPDEST POP PUSH1 0x40 MLOAD PUSH3 0x14AB CODESIZE SUB DUP1 PUSH3 0x14AB DUP4 CODECOPY DUP2 DUP2 ADD PUSH1 0x40 MSTORE DUP2 ADD SWAP1 PUSH3 0x37 SWAP2 SWAP1 PUSH3 0x179 JUMP JUMPDEST DUP2 PUSH20 0xFFFFFFFFFFFFFFFFFFFFFFFFFFFFFFFFFFFFFFFF AND PUSH1 0x80 DUP2 PUSH20 0xFFFFFFFFFFFFFFFFFFFFFFFFFFFFFFFFFFFFFFFF AND DUP2 MSTORE POP POP DUP1 PUSH1 0x0 DUP1 PUSH2 0x100 EXP DUP2 SLOAD DUP2 PUSH2 0xFFFF MUL NOT AND SWAP1 DUP4 PUSH2 0xFFFF AND MUL OR SWAP1 SSTORE POP CALLER PUSH1 0x2 PUSH1 0x0 PUSH2 0x100 EXP DUP2 SLOAD DUP2 PUSH20 0xFFFFFFFFFFFFFFFFFFFFFFFFFFFFFFFFFFFFFFFF MUL NOT AND SWAP1 DUP4 PUSH20 0xFFFFFFFFFFFFFFFFFFFFFFFFFFFFFFFFFFFFFFFF AND MUL OR SWAP1 SSTORE POP POP POP PUSH3 0x1C0 JUMP JUMPDEST PUSH1 0x0 DUP1 REVERT JUMPDEST PUSH1 0x0 PUSH20 0xFFFFFFFFFFFFFFFFFFFFFFFFFFFFFFFFFFFFFFFF DUP3 AND SWAP1 POP SWAP2 SWAP1 POP JUMP JUMPDEST PUSH1 0x0 PUSH3 0x102 DUP3 PUSH3 0xD5 JUMP JUMPDEST SWAP1 POP SWAP2 SWAP1 POP JUMP JUMPDEST PUSH3 0x114 DUP2 PUSH3 0xF5 JUMP JUMPDEST DUP2 EQ PUSH3 0x120 JUMPI PUSH1 0x0 DUP1 REVERT JUMPDEST POP JUMP JUMPDEST PUSH1 0x0 DUP2 MLOAD SWAP1 POP PUSH3 0x134 DUP2 PUSH3 0x109 JUMP JUMPDEST SWAP3 SWAP2 POP POP JUMP JUMPDEST PUSH1 0x0 PUSH2 0xFFFF DUP3 AND SWAP1 POP SWAP2 SWAP1 POP JUMP JUMPDEST PUSH3 0x153 DUP2 PUSH3 0x13A JUMP JUMPDEST DUP2 EQ PUSH3 0x15F JUMPI PUSH1 0x0 DUP1 REVERT JUMPDEST POP JUMP JUMPDEST PUSH1 0x0 DUP2 MLOAD SWAP1 POP PUSH3 0x173 DUP2 PUSH3 0x148 JUMP JUMPDEST SWAP3 SWAP2 POP POP JUMP JUMPDEST PUSH1 0x0 DUP1 PUSH1 0x40 DUP4 DUP6 SUB SLT ISZERO PUSH3 0x193 JUMPI PUSH3 0x192 PUSH3 0xD0 JUMP JUMPDEST JUMPDEST PUSH1 0x0 PUSH3 0x1A3 DUP6 DUP3 DUP7 ADD PUSH3 0x123 JUMP JUMPDEST SWAP3 POP POP PUSH1 0x20 PUSH3 0x1B6 DUP6 DUP3 DUP7 ADD PUSH3 0x162 JUMP JUMPDEST SWAP2 POP POP SWAP3 POP SWAP3 SWAP1 POP JUMP JUMPDEST PUSH1 0x80 MLOAD PUSH2 0x12BA PUSH3 0x1F1 PUSH1 0x0 CODECOPY PUSH1 0x0 DUP2 DUP2 PUSH2 0x1CE ADD MSTORE DUP2 DUP2 PUSH2 0x306 ADD MSTORE DUP2 DUP2 PUSH2 0x4FF ADD MSTORE PUSH2 0x5E6 ADD MSTORE PUSH2 0x12BA PUSH1 0x0 RETURN INVALID PUSH1 0x80 PUSH1 0x40 MSTORE PUSH1 0x4 CALLDATASIZE LT PUSH2 0x7B JUMPI PUSH1 0x0 CALLDATALOAD PUSH1 0xE0 SHR DUP1 PUSH4 0x921B58A9 GT PUSH2 0x4E JUMPI DUP1 PUSH4 0x921B58A9 EQ PUSH2 0x12D JUMPI DUP1 PUSH4 0xAFD44488 EQ PUSH2 0x158 JUMPI DUP1 PUSH4 0xC439B0D9 EQ PUSH2 0x174 JUMPI DUP1 PUSH4 0xDA25B725 EQ PUSH2 0x19F JUMPI PUSH2 0x7B JUMP JUMPDEST DUP1 PUSH4 0x28BD75CE EQ PUSH2 0x80 JUMPI DUP1 PUSH4 0x32CF4CD5 EQ PUSH2 0xBD JUMPI DUP1 PUSH4 0x529DCA32 EQ PUSH2 0xE6 JUMPI DUP1 PUSH4 0x8DA5CB5B EQ PUSH2 0x102 JUMPI JUMPDEST PUSH1 0x0 DUP1 REVERT JUMPDEST CALLVALUE DUP1 ISZERO PUSH2 0x8C JUMPI PUSH1 0x0 DUP1 REVERT JUMPDEST POP PUSH2 0xA7 PUSH1 0x4 DUP1 CALLDATASIZE SUB DUP2 ADD SWAP1 PUSH2 0xA2 SWAP2 SWAP1 PUSH2 0x6F9 JUMP JUMPDEST PUSH2 0x1CA JUMP JUMPDEST PUSH1 0x40 MLOAD PUSH2 0xB4 SWAP2 SWAP1 PUSH2 0x73F JUMP JUMPDEST PUSH1 0x40 MLOAD DUP1 SWAP2 SUB SWAP1 RETURN JUMPDEST CALLVALUE DUP1 ISZERO PUSH2 0xC9 JUMPI PUSH1 0x0 DUP1 REVERT JUMPDEST POP PUSH2 0xE4 PUSH1 0x4 DUP1 CALLDATASIZE SUB DUP2 ADD SWAP1 PUSH2 0xDF SWAP2 SWAP1 PUSH2 0x790 JUMP JUMPDEST PUSH2 0x277 JUMP JUMPDEST STOP JUMPDEST PUSH2 0x100 PUSH1 0x4 DUP1 CALLDATASIZE SUB DUP2 ADD SWAP1 PUSH2 0xFB SWAP2 SWAP1 PUSH2 0x9FC JUMP JUMPDEST PUSH2 0x304 JUMP JUMPDEST STOP JUMPDEST CALLVALUE DUP1 ISZERO PUSH2 0x10E JUMPI PUSH1 0x0 DUP1 REVERT JUMPDEST POP PUSH2 0x117 PUSH2 0x430 JUMP JUMPDEST PUSH1 0x40 MLOAD PUSH2 0x124 SWAP2 SWAP1 PUSH2 0xAF0 JUMP JUMPDEST PUSH1 0x40 MLOAD DUP1 SWAP2 SUB SWAP1 RETURN JUMPDEST CALLVALUE DUP1 ISZERO PUSH2 0x139 JUMPI PUSH1 0x0 DUP1 REVERT JUMPDEST POP PUSH2 0x142 PUSH2 0x456 JUMP JUMPDEST PUSH1 0x40 MLOAD PUSH2 0x14F SWAP2 SWAP1 PUSH2 0xB93 JUMP JUMPDEST PUSH1 0x40 MLOAD DUP1 SWAP2 SUB SWAP1 RETURN JUMPDEST PUSH2 0x172 PUSH1 0x4 DUP1 CALLDATASIZE SUB DUP2 ADD SWAP1 PUSH2 0x16D SWAP2 SWAP1 PUSH2 0xC82 JUMP JUMPDEST PUSH2 0x4E4 JUMP JUMPDEST STOP JUMPDEST CALLVALUE DUP1 ISZERO PUSH2 0x180 JUMPI PUSH1 0x0 DUP1 REVERT JUMPDEST POP PUSH2 0x189 PUSH2 0x5D2 JUMP JUMPDEST PUSH1 0x40 MLOAD PUSH2 0x196 SWAP2 SWAP1 PUSH2 0xD00 JUMP JUMPDEST PUSH1 0x40 MLOAD DUP1 SWAP2 SUB SWAP1 RETURN JUMPDEST CALLVALUE DUP1 ISZERO PUSH2 0x1AB JUMPI PUSH1 0x0 DUP1 REVERT JUMPDEST POP PUSH2 0x1B4 PUSH2 0x5E4 JUMP JUMPDEST PUSH1 0x40 MLOAD PUSH2 0x1C1 SWAP2 SWAP1 PUSH2 0xD7A JUMP JUMPDEST PUSH1 0x40 MLOAD DUP1 SWAP2 SUB SWAP1 RETURN JUMPDEST PUSH1 0x0 PUSH32 0x0 PUSH20 0xFFFFFFFFFFFFFFFFFFFFFFFFFFFFFFFFFFFFFFFF AND PUSH4 0xC23EE3C3 DUP4 PUSH1 0x0 PUSH3 0x30D40 PUSH1 0x40 MLOAD DUP5 PUSH4 0xFFFFFFFF AND PUSH1 0xE0 SHL DUP2 MSTORE PUSH1 0x4 ADD PUSH2 0x22D SWAP4 SWAP3 SWAP2 SWAP1 PUSH2 0xDD0 JUMP JUMPDEST PUSH1 0x40 DUP1 MLOAD DUP1 DUP4 SUB DUP2 DUP7 GAS STATICCALL ISZERO DUP1 ISZERO PUSH2 0x249 JUMPI RETURNDATASIZE PUSH1 0x0 DUP1 RETURNDATACOPY RETURNDATASIZE PUSH1 0x0 REVERT JUMPDEST POP POP POP POP PUSH1 0x40 MLOAD RETURNDATASIZE PUSH1 0x1F NOT PUSH1 0x1F DUP3 ADD AND DUP3 ADD DUP1 PUSH1 0x40 MSTORE POP DUP2 ADD SWAP1 PUSH2 0x26D SWAP2 SWAP1 PUSH2 0xE33 JUMP JUMPDEST POP DUP1 SWAP2 POP POP SWAP2 SWAP1 POP JUMP JUMPDEST PUSH1 0x2 PUSH1 0x0 SWAP1 SLOAD SWAP1 PUSH2 0x100 EXP SWAP1 DIV PUSH20 0xFFFFFFFFFFFFFFFFFFFFFFFFFFFFFFFFFFFFFFFF AND PUSH20 0xFFFFFFFFFFFFFFFFFFFFFFFFFFFFFFFFFFFFFFFF AND CALLER PUSH20 0xFFFFFFFFFFFFFFFFFFFFFFFFFFFFFFFFFFFFFFFF AND EQ PUSH2 0x2D1 JUMPI PUSH1 0x0 DUP1 REVERT JUMPDEST PUSH1 0x0 DUP1 SHL DUP2 SUB PUSH2 0x2E0 JUMPI PUSH1 0x0 DUP1 REVERT JUMPDEST DUP1 PUSH1 0x3 PUSH1 0x0 DUP5 PUSH2 0xFFFF AND PUSH2 0xFFFF AND DUP2 MSTORE PUSH1 0x20 ADD SWAP1 DUP2 MSTORE PUSH1 0x20 ADD PUSH1 0x0 KECCAK256 DUP2 SWAP1 SSTORE POP POP POP JUMP JUMPDEST PUSH32 0x0 PUSH20 0xFFFFFFFFFFFFFFFFFFFFFFFFFFFFFFFFFFFFFFFF AND CALLER PUSH20 0xFFFFFFFFFFFFFFFFFFFFFFFFFFFFFFFFFFFFFFFF AND EQ PUSH2 0x392 JUMPI PUSH1 0x40 MLOAD PUSH32 0x8C379A000000000000000000000000000000000000000000000000000000000 DUP2 MSTORE PUSH1 0x4 ADD PUSH2 0x389 SWAP1 PUSH2 0xEBF JUMP JUMPDEST PUSH1 0x40 MLOAD DUP1 SWAP2 SUB SWAP1 REVERT JUMPDEST DUP3 PUSH1 0x3 PUSH1 0x0 DUP5 PUSH2 0xFFFF AND PUSH2 0xFFFF AND DUP2 MSTORE PUSH1 0x20 ADD SWAP1 DUP2 MSTORE PUSH1 0x20 ADD PUSH1 0x0 KECCAK256 SLOAD EQ PUSH2 0x3B9 JUMPI PUSH1 0x0 DUP1 REVERT JUMPDEST PUSH1 0x0 DUP1 DUP7 DUP1 PUSH1 0x20 ADD SWAP1 MLOAD DUP2 ADD SWAP1 PUSH2 0x3D0 SWAP2 SWAP1 PUSH2 0xF8D JUMP JUMPDEST SWAP2 POP SWAP2 POP DUP2 PUSH1 0x1 SWAP1 DUP1 MLOAD SWAP1 PUSH1 0x20 ADD SWAP1 PUSH2 0x3EA SWAP3 SWAP2 SWAP1 PUSH2 0x608 JUMP JUMPDEST POP PUSH32 0x5C4AB0CFB98525B63324629EB8C98352DEC2BECE203410170311B78405054676 PUSH1 0x1 DUP6 DUP4 PUSH1 0x40 MLOAD PUSH2 0x41F SWAP4 SWAP3 SWAP2 SWAP1 PUSH2 0x10DE JUMP JUMPDEST PUSH1 0x40 MLOAD DUP1 SWAP2 SUB SWAP1 LOG1 POP POP POP POP POP POP POP JUMP JUMPDEST PUSH1 0x2 PUSH1 0x0 SWAP1 SLOAD SWAP1 PUSH2 0x100 EXP SWAP1 DIV PUSH20 0xFFFFFFFFFFFFFFFFFFFFFFFFFFFFFFFFFFFFFFFF AND DUP2 JUMP JUMPDEST PUSH1 0x1 DUP1 SLOAD PUSH2 0x463 SWAP1 PUSH2 0x1018 JUMP JUMPDEST DUP1 PUSH1 0x1F ADD PUSH1 0x20 DUP1 SWAP2 DIV MUL PUSH1 0x20 ADD PUSH1 0x40 MLOAD SWAP1 DUP2 ADD PUSH1 0x40 MSTORE DUP1 SWAP3 SWAP2 SWAP1 DUP2 DUP2 MSTORE PUSH1 0x20 ADD DUP3 DUP1 SLOAD PUSH2 0x48F SWAP1 PUSH2 0x1018 JUMP JUMPDEST DUP1 ISZERO PUSH2 0x4DC JUMPI DUP1 PUSH1 0x1F LT PUSH2 0x4B1 JUMPI PUSH2 0x100 DUP1 DUP4 SLOAD DIV MUL DUP4 MSTORE SWAP2 PUSH1 0x20 ADD SWAP2 PUSH2 0x4DC JUMP JUMPDEST DUP3 ADD SWAP2 SWAP1 PUSH1 0x0 MSTORE PUSH1 0x20 PUSH1 0x0 KECCAK256 SWAP1 JUMPDEST DUP2 SLOAD DUP2 MSTORE SWAP1 PUSH1 0x1 ADD SWAP1 PUSH1 0x20 ADD DUP1 DUP4 GT PUSH2 0x4BF JUMPI DUP3 SWAP1 SUB PUSH1 0x1F AND DUP3 ADD SWAP2 JUMPDEST POP POP POP POP POP DUP2 JUMP JUMPDEST PUSH1 0x0 PUSH2 0x4EF DUP5 PUSH2 0x1CA JUMP JUMPDEST SWAP1 POP DUP1 CALLVALUE EQ PUSH2 0x4FD JUMPI PUSH1 0x0 DUP1 REVERT JUMPDEST PUSH32 0x0 PUSH20 0xFFFFFFFFFFFFFFFFFFFFFFFFFFFFFFFFFFFFFFFF AND PUSH4 0x4B5CA6F4 DUP3 DUP7 DUP7 DUP7 CALLER PUSH1 0x40 MLOAD PUSH1 0x20 ADD PUSH2 0x54F SWAP3 SWAP2 SWAP1 PUSH2 0x111C JUMP JUMPDEST PUSH1 0x40 MLOAD PUSH1 0x20 DUP2 DUP4 SUB SUB DUP2 MSTORE SWAP1 PUSH1 0x40 MSTORE PUSH1 0x0 PUSH3 0x30D40 DUP12 CALLER PUSH1 0x40 MLOAD DUP10 PUSH4 0xFFFFFFFF AND PUSH1 0xE0 SHL DUP2 MSTORE PUSH1 0x4 ADD PUSH2 0x588 SWAP8 SWAP7 SWAP6 SWAP5 SWAP4 SWAP3 SWAP2 SWAP1 PUSH2 0x11A1 JUMP JUMPDEST PUSH1 0x20 PUSH1 0x40 MLOAD DUP1 DUP4 SUB DUP2 DUP6 DUP9 GAS CALL ISZERO DUP1 ISZERO PUSH2 0x5A6 JUMPI RETURNDATASIZE PUSH1 0x0 DUP1 RETURNDATACOPY RETURNDATASIZE PUSH1 0x0 REVERT JUMPDEST POP POP POP POP POP PUSH1 0x40 MLOAD RETURNDATASIZE PUSH1 0x1F NOT PUSH1 0x1F DUP3 ADD AND DUP3 ADD DUP1 PUSH1 0x40 MSTORE POP DUP2 ADD SWAP1 PUSH2 0x5CB SWAP2 SWAP1 PUSH2 0x1257 JUMP JUMPDEST POP POP POP POP POP JUMP JUMPDEST PUSH1 0x0 DUP1 SLOAD SWAP1 PUSH2 0x100 EXP SWAP1 DIV PUSH2 0xFFFF AND DUP2 JUMP JUMPDEST PUSH32 0x0 DUP2 JUMP JUMPDEST DUP3 DUP1 SLOAD PUSH2 0x614 SWAP1 PUSH2 0x1018 JUMP JUMPDEST SWAP1 PUSH1 0x0 MSTORE PUSH1 0x20 PUSH1 0x0 KECCAK256 SWAP1 PUSH1 0x1F ADD PUSH1 0x20 SWAP1 DIV DUP2 ADD SWAP3 DUP3 PUSH2 0x636 JUMPI PUSH1 0x0 DUP6 SSTORE PUSH2 0x67D JUMP JUMPDEST DUP3 PUSH1 0x1F LT PUSH2 0x64F JUMPI DUP1 MLOAD PUSH1 0xFF NOT AND DUP4 DUP1 ADD OR DUP6 SSTORE PUSH2 0x67D JUMP JUMPDEST DUP3 DUP1 ADD PUSH1 0x1 ADD DUP6 SSTORE DUP3 ISZERO PUSH2 0x67D JUMPI SWAP2 DUP3 ADD JUMPDEST DUP3 DUP2 GT ISZERO PUSH2 0x67C JUMPI DUP3 MLOAD DUP3 SSTORE SWAP2 PUSH1 0x20 ADD SWAP2 SWAP1 PUSH1 0x1 ADD SWAP1 PUSH2 0x661 JUMP JUMPDEST JUMPDEST POP SWAP1 POP PUSH2 0x68A SWAP2 SWAP1 PUSH2 0x68E JUMP JUMPDEST POP SWAP1 JUMP JUMPDEST JUMPDEST DUP1 DUP3 GT ISZERO PUSH2 0x6A7 JUMPI PUSH1 0x0 DUP2 PUSH1 0x0 SWAP1 SSTORE POP PUSH1 0x1 ADD PUSH2 0x68F JUMP JUMPDEST POP SWAP1 JUMP JUMPDEST PUSH1 0x0 PUSH1 0x40 MLOAD SWAP1 POP SWAP1 JUMP JUMPDEST PUSH1 0x0 DUP1 REVERT JUMPDEST PUSH1 0x0 DUP1 REVERT JUMPDEST PUSH1 0x0 PUSH2 0xFFFF DUP3 AND SWAP1 POP SWAP2 SWAP1 POP JUMP JUMPDEST PUSH2 0x6D6 DUP2 PUSH2 0x6BF JUMP JUMPDEST DUP2 EQ PUSH2 0x6E1 JUMPI PUSH1 0x0 DUP1 REVERT JUMPDEST POP JUMP JUMPDEST PUSH1 0x0 DUP2 CALLDATALOAD SWAP1 POP PUSH2 0x6F3 DUP2 PUSH2 0x6CD JUMP JUMPDEST SWAP3 SWAP2 POP POP JUMP JUMPDEST PUSH1 0x0 PUSH1 0x20 DUP3 DUP5 SUB SLT ISZERO PUSH2 0x70F JUMPI PUSH2 0x70E PUSH2 0x6B5 JUMP JUMPDEST JUMPDEST PUSH1 0x0 PUSH2 0x71D DUP5 DUP3 DUP6 ADD PUSH2 0x6E4 JUMP JUMPDEST SWAP2 POP POP SWAP3 SWAP2 POP POP JUMP JUMPDEST PUSH1 0x0 DUP2 SWAP1 POP SWAP2 SWAP1 POP JUMP JUMPDEST PUSH2 0x739 DUP2 PUSH2 0x726 JUMP JUMPDEST DUP3 MSTORE POP POP JUMP JUMPDEST PUSH1 0x0 PUSH1 0x20 DUP3 ADD SWAP1 POP PUSH2 0x754 PUSH1 0x0 DUP4 ADD DUP5 PUSH2 0x730 JUMP JUMPDEST SWAP3 SWAP2 POP POP JUMP JUMPDEST PUSH1 0x0 DUP2 SWAP1 POP SWAP2 SWAP1 POP JUMP JUMPDEST PUSH2 0x76D DUP2 PUSH2 0x75A JUMP JUMPDEST DUP2 EQ PUSH2 0x778 JUMPI PUSH1 0x0 DUP1 REVERT JUMPDEST POP JUMP JUMPDEST PUSH1 0x0 DUP2 CALLDATALOAD SWAP1 POP PUSH2 0x78A DUP2 PUSH2 0x764 JUMP JUMPDEST SWAP3 SWAP2 POP POP JUMP JUMPDEST PUSH1 0x0 DUP1 PUSH1 0x40 DUP4 DUP6 SUB SLT ISZERO PUSH2 0x7A7 JUMPI PUSH2 0x7A6 PUSH2 0x6B5 JUMP JUMPDEST JUMPDEST PUSH1 0x0 PUSH2 0x7B5 DUP6 DUP3 DUP7 ADD PUSH2 0x6E4 JUMP JUMPDEST SWAP3 POP POP PUSH1 0x20 PUSH2 0x7C6 DUP6 DUP3 DUP7 ADD PUSH2 0x77B JUMP JUMPDEST SWAP2 POP POP SWAP3 POP SWAP3 SWAP1 POP JUMP JUMPDEST PUSH1 0x0 DUP1 REVERT JUMPDEST PUSH1 0x0 DUP1 REVERT JUMPDEST PUSH1 0x0 PUSH1 0x1F NOT PUSH1 0x1F DUP4 ADD AND SWAP1 POP SWAP2 SWAP1 POP JUMP JUMPDEST PUSH32 0x4E487B7100000000000000000000000000000000000000000000000000000000 PUSH1 0x0 MSTORE PUSH1 0x41 PUSH1 0x4 MSTORE PUSH1 0x24 PUSH1 0x0 REVERT JUMPDEST PUSH2 0x823 DUP3 PUSH2 0x7DA JUMP JUMPDEST DUP2 ADD DUP2 DUP2 LT PUSH8 0xFFFFFFFFFFFFFFFF DUP3 GT OR ISZERO PUSH2 0x842 JUMPI PUSH2 0x841 PUSH2 0x7EB JUMP JUMPDEST JUMPDEST DUP1 PUSH1 0x40 MSTORE POP POP POP JUMP JUMPDEST PUSH1 0x0 PUSH2 0x855 PUSH2 0x6AB JUMP JUMPDEST SWAP1 POP PUSH2 0x861 DUP3 DUP3 PUSH2 0x81A JUMP JUMPDEST SWAP2 SWAP1 POP JUMP JUMPDEST PUSH1 0x0 PUSH8 0xFFFFFFFFFFFFFFFF DUP3 GT ISZERO PUSH2 0x881 JUMPI PUSH2 0x880 PUSH2 0x7EB JUMP JUMPDEST JUMPDEST PUSH2 0x88A DUP3 PUSH2 0x7DA JUMP JUMPDEST SWAP1 POP PUSH1 0x20 DUP2 ADD SWAP1 POP SWAP2 SWAP1 POP JUMP JUMPDEST DUP3 DUP2 DUP4 CALLDATACOPY PUSH1 0x0 DUP4 DUP4 ADD MSTORE POP POP POP JUMP JUMPDEST PUSH1 0x0 PUSH2 0x8B9 PUSH2 0x8B4 DUP5 PUSH2 0x866 JUMP JUMPDEST PUSH2 0x84B JUMP JUMPDEST SWAP1 POP DUP3 DUP2 MSTORE PUSH1 0x20 DUP2 ADD DUP5 DUP5 DUP5 ADD GT ISZERO PUSH2 0x8D5 JUMPI PUSH2 0x8D4 PUSH2 0x7D5 JUMP JUMPDEST JUMPDEST PUSH2 0x8E0 DUP5 DUP3 DUP6 PUSH2 0x897 JUMP JUMPDEST POP SWAP4 SWAP3 POP POP POP JUMP JUMPDEST PUSH1 0x0 DUP3 PUSH1 0x1F DUP4 ADD SLT PUSH2 0x8FD JUMPI PUSH2 0x8FC PUSH2 0x7D0 JUMP JUMPDEST JUMPDEST DUP2 CALLDATALOAD PUSH2 0x90D DUP5 DUP3 PUSH1 0x20 DUP7 ADD PUSH2 0x8A6 JUMP JUMPDEST SWAP2 POP POP SWAP3 SWAP2 POP POP JUMP JUMPDEST PUSH1 0x0 PUSH8 0xFFFFFFFFFFFFFFFF DUP3 GT ISZERO PUSH2 0x931 JUMPI PUSH2 0x930 PUSH2 0x7EB JUMP JUMPDEST JUMPDEST PUSH1 0x20 DUP3 MUL SWAP1 POP PUSH1 0x20 DUP2 ADD SWAP1 POP SWAP2 SWAP1 POP JUMP JUMPDEST PUSH1 0x0 DUP1 REVERT JUMPDEST PUSH1 0x0 PUSH2 0x95A PUSH2 0x955 DUP5 PUSH2 0x916 JUMP JUMPDEST PUSH2 0x84B JUMP JUMPDEST SWAP1 POP DUP1 DUP4 DUP3 MSTORE PUSH1 0x20 DUP3 ADD SWAP1 POP PUSH1 0x20 DUP5 MUL DUP4 ADD DUP6 DUP2 GT ISZERO PUSH2 0x97D JUMPI PUSH2 0x97C PUSH2 0x942 JUMP JUMPDEST JUMPDEST DUP4 JUMPDEST DUP2 DUP2 LT ISZERO PUSH2 0x9C4 JUMPI DUP1 CALLDATALOAD PUSH8 0xFFFFFFFFFFFFFFFF DUP2 GT ISZERO PUSH2 0x9A2 JUMPI PUSH2 0x9A1 PUSH2 0x7D0 JUMP JUMPDEST JUMPDEST DUP1 DUP7 ADD PUSH2 0x9AF DUP10 DUP3 PUSH2 0x8E8 JUMP JUMPDEST DUP6 MSTORE PUSH1 0x20 DUP6 ADD SWAP5 POP POP POP PUSH1 0x20 DUP2 ADD SWAP1 POP PUSH2 0x97F JUMP JUMPDEST POP POP POP SWAP4 SWAP3 POP POP POP JUMP JUMPDEST PUSH1 0x0 DUP3 PUSH1 0x1F DUP4 ADD SLT PUSH2 0x9E3 JUMPI PUSH2 0x9E2 PUSH2 0x7D0 JUMP JUMPDEST JUMPDEST DUP2 CALLDATALOAD PUSH2 0x9F3 DUP5 DUP3 PUSH1 0x20 DUP7 ADD PUSH2 0x947 JUMP JUMPDEST SWAP2 POP POP SWAP3 SWAP2 POP POP JUMP JUMPDEST PUSH1 0x0 DUP1 PUSH1 0x0 DUP1 PUSH1 0x0 PUSH1 0xA0 DUP7 DUP9 SUB SLT ISZERO PUSH2 0xA18 JUMPI PUSH2 0xA17 PUSH2 0x6B5 JUMP JUMPDEST JUMPDEST PUSH1 0x0 DUP7 ADD CALLDATALOAD PUSH8 0xFFFFFFFFFFFFFFFF DUP2 GT ISZERO PUSH2 0xA36 JUMPI PUSH2 0xA35 PUSH2 0x6BA JUMP JUMPDEST JUMPDEST PUSH2 0xA42 DUP9 DUP3 DUP10 ADD PUSH2 0x8E8 JUMP JUMPDEST SWAP6 POP POP PUSH1 0x20 DUP7 ADD CALLDATALOAD PUSH8 0xFFFFFFFFFFFFFFFF DUP2 GT ISZERO PUSH2 0xA63 JUMPI PUSH2 0xA62 PUSH2 0x6BA JUMP JUMPDEST JUMPDEST PUSH2 0xA6F DUP9 DUP3 DUP10 ADD PUSH2 0x9CE JUMP JUMPDEST SWAP5 POP POP PUSH1 0x40 PUSH2 0xA80 DUP9 DUP3 DUP10 ADD PUSH2 0x77B JUMP JUMPDEST SWAP4 POP POP PUSH1 0x60 PUSH2 0xA91 DUP9 DUP3 DUP10 ADD PUSH2 0x6E4 JUMP JUMPDEST SWAP3 POP POP PUSH1 0x80 PUSH2 0xAA2 DUP9 DUP3 DUP10 ADD PUSH2 0x77B JUMP JUMPDEST SWAP2 POP POP SWAP3 SWAP6 POP SWAP3 SWAP6 SWAP1 SWAP4 POP JUMP JUMPDEST PUSH1 0x0 PUSH20 0xFFFFFFFFFFFFFFFFFFFFFFFFFFFFFFFFFFFFFFFF DUP3 AND SWAP1 POP SWAP2 SWAP1 POP JUMP JUMPDEST PUSH1 0x0 PUSH2 0xADA DUP3 PUSH2 0xAAF JUMP JUMPDEST SWAP1 POP SWAP2 SWAP1 POP JUMP JUMPDEST PUSH2 0xAEA DUP2 PUSH2 0xACF JUMP JUMPDEST DUP3 MSTORE POP POP JUMP JUMPDEST PUSH1 0x0 PUSH1 0x20 DUP3 ADD SWAP1 POP PUSH2 0xB05 PUSH1 0x0 DUP4 ADD DUP5 PUSH2 0xAE1 JUMP JUMPDEST SWAP3 SWAP2 POP POP JUMP JUMPDEST PUSH1 0x0 DUP2 MLOAD SWAP1 POP SWAP2 SWAP1 POP JUMP JUMPDEST PUSH1 0x0 DUP3 DUP3 MSTORE PUSH1 0x20 DUP3 ADD SWAP1 POP SWAP3 SWAP2 POP POP JUMP JUMPDEST PUSH1 0x0 JUMPDEST DUP4 DUP2 LT ISZERO PUSH2 0xB45 JUMPI DUP1 DUP3 ADD MLOAD DUP2 DUP5 ADD MSTORE PUSH1 0x20 DUP2 ADD SWAP1 POP PUSH2 0xB2A JUMP JUMPDEST DUP4 DUP2 GT ISZERO PUSH2 0xB54 JUMPI PUSH1 0x0 DUP5 DUP5 ADD MSTORE JUMPDEST POP POP POP POP JUMP JUMPDEST PUSH1 0x0 PUSH2 0xB65 DUP3 PUSH2 0xB0B JUMP JUMPDEST PUSH2 0xB6F DUP2 DUP6 PUSH2 0xB16 JUMP JUMPDEST SWAP4 POP PUSH2 0xB7F DUP2 DUP6 PUSH1 0x20 DUP7 ADD PUSH2 0xB27 JUMP JUMPDEST PUSH2 0xB88 DUP2 PUSH2 0x7DA JUMP JUMPDEST DUP5 ADD SWAP2 POP POP SWAP3 SWAP2 POP POP JUMP JUMPDEST PUSH1 0x0 PUSH1 0x20 DUP3 ADD SWAP1 POP DUP2 DUP2 SUB PUSH1 0x0 DUP4 ADD MSTORE PUSH2 0xBAD DUP2 DUP5 PUSH2 0xB5A JUMP JUMPDEST SWAP1 POP SWAP3 SWAP2 POP POP JUMP JUMPDEST PUSH2 0xBBE DUP2 PUSH2 0xACF JUMP JUMPDEST DUP2 EQ PUSH2 0xBC9 JUMPI PUSH1 0x0 DUP1 REVERT JUMPDEST POP JUMP JUMPDEST PUSH1 0x0 DUP2 CALLDATALOAD SWAP1 POP PUSH2 0xBDB DUP2 PUSH2 0xBB5 JUMP JUMPDEST SWAP3 SWAP2 POP POP JUMP JUMPDEST PUSH1 0x0 PUSH8 0xFFFFFFFFFFFFFFFF DUP3 GT ISZERO PUSH2 0xBFC JUMPI PUSH2 0xBFB PUSH2 0x7EB JUMP JUMPDEST JUMPDEST PUSH2 0xC05 DUP3 PUSH2 0x7DA JUMP JUMPDEST SWAP1 POP PUSH1 0x20 DUP2 ADD SWAP1 POP SWAP2 SWAP1 POP JUMP JUMPDEST PUSH1 0x0 PUSH2 0xC25 PUSH2 0xC20 DUP5 PUSH2 0xBE1 JUMP JUMPDEST PUSH2 0x84B JUMP JUMPDEST SWAP1 POP DUP3 DUP2 MSTORE PUSH1 0x20 DUP2 ADD DUP5 DUP5 DUP5 ADD GT ISZERO PUSH2 0xC41 JUMPI PUSH2 0xC40 PUSH2 0x7D5 JUMP JUMPDEST JUMPDEST PUSH2 0xC4C DUP5 DUP3 DUP6 PUSH2 0x897 JUMP JUMPDEST POP SWAP4 SWAP3 POP POP POP JUMP JUMPDEST PUSH1 0x0 DUP3 PUSH1 0x1F DUP4 ADD SLT PUSH2 0xC69 JUMPI PUSH2 0xC68 PUSH2 0x7D0 JUMP JUMPDEST JUMPDEST DUP2 CALLDATALOAD PUSH2 0xC79 DUP5 DUP3 PUSH1 0x20 DUP7 ADD PUSH2 0xC12 JUMP JUMPDEST SWAP2 POP POP SWAP3 SWAP2 POP POP JUMP JUMPDEST PUSH1 0x0 DUP1 PUSH1 0x0 PUSH1 0x60 DUP5 DUP7 SUB SLT ISZERO PUSH2 0xC9B JUMPI PUSH2 0xC9A PUSH2 0x6B5 JUMP JUMPDEST JUMPDEST PUSH1 0x0 PUSH2 0xCA9 DUP7 DUP3 DUP8 ADD PUSH2 0x6E4 JUMP JUMPDEST SWAP4 POP POP PUSH1 0x20 PUSH2 0xCBA DUP7 DUP3 DUP8 ADD PUSH2 0xBCC JUMP JUMPDEST SWAP3 POP POP PUSH1 0x40 DUP5 ADD CALLDATALOAD PUSH8 0xFFFFFFFFFFFFFFFF DUP2 GT ISZERO PUSH2 0xCDB JUMPI PUSH2 0xCDA PUSH2 0x6BA JUMP JUMPDEST JUMPDEST PUSH2 0xCE7 DUP7 DUP3 DUP8 ADD PUSH2 0xC54 JUMP JUMPDEST SWAP2 POP POP SWAP3 POP SWAP3 POP SWAP3 JUMP JUMPDEST PUSH2 0xCFA DUP2 PUSH2 0x6BF JUMP JUMPDEST DUP3 MSTORE POP POP JUMP JUMPDEST PUSH1 0x0 PUSH1 0x20 DUP3 ADD SWAP1 POP PUSH2 0xD15 PUSH1 0x0 DUP4 ADD DUP5 PUSH2 0xCF1 JUMP JUMPDEST SWAP3 SWAP2 POP POP JUMP JUMPDEST PUSH1 0x0 DUP2 SWAP1 POP SWAP2 SWAP1 POP JUMP JUMPDEST PUSH1 0x0 PUSH2 0xD40 PUSH2 0xD3B PUSH2 0xD36 DUP5 PUSH2 0xAAF JUMP JUMPDEST PUSH2 0xD1B JUMP JUMPDEST PUSH2 0xAAF JUMP JUMPDEST SWAP1 POP SWAP2 SWAP1 POP JUMP JUMPDEST PUSH1 0x0 PUSH2 0xD52 DUP3 PUSH2 0xD25 JUMP JUMPDEST SWAP1 POP SWAP2 SWAP1 POP JUMP JUMPDEST PUSH1 0x0 PUSH2 0xD64 DUP3 PUSH2 0xD47 JUMP JUMPDEST SWAP1 POP SWAP2 SWAP1 POP JUMP JUMPDEST PUSH2 0xD74 DUP2 PUSH2 0xD59 JUMP JUMPDEST DUP3 MSTORE POP POP JUMP JUMPDEST PUSH1 0x0 PUSH1 0x20 DUP3 ADD SWAP1 POP PUSH2 0xD8F PUSH1 0x0 DUP4 ADD DUP5 PUSH2 0xD6B JUMP JUMPDEST SWAP3 SWAP2 POP POP JUMP JUMPDEST PUSH1 0x0 DUP2 SWAP1 POP SWAP2 SWAP1 POP JUMP JUMPDEST PUSH1 0x0 PUSH2 0xDBA PUSH2 0xDB5 PUSH2 0xDB0 DUP5 PUSH2 0xD95 JUMP JUMPDEST PUSH2 0xD1B JUMP JUMPDEST PUSH2 0x726 JUMP JUMPDEST SWAP1 POP SWAP2 SWAP1 POP JUMP JUMPDEST PUSH2 0xDCA DUP2 PUSH2 0xD9F JUMP JUMPDEST DUP3 MSTORE POP POP JUMP JUMPDEST PUSH1 0x0 PUSH1 0x60 DUP3 ADD SWAP1 POP PUSH2 0xDE5 PUSH1 0x0 DUP4 ADD DUP7 PUSH2 0xCF1 JUMP JUMPDEST PUSH2 0xDF2 PUSH1 0x20 DUP4 ADD DUP6 PUSH2 0xDC1 JUMP JUMPDEST PUSH2 0xDFF PUSH1 0x40 DUP4 ADD DUP5 PUSH2 0x730 JUMP JUMPDEST SWAP5 SWAP4 POP POP POP POP JUMP JUMPDEST PUSH2 0xE10 DUP2 PUSH2 0x726 JUMP JUMPDEST DUP2 EQ PUSH2 0xE1B JUMPI PUSH1 0x0 DUP1 REVERT JUMPDEST POP JUMP JUMPDEST PUSH1 0x0 DUP2 MLOAD SWAP1 POP PUSH2 0xE2D DUP2 PUSH2 0xE07 JUMP JUMPDEST SWAP3 SWAP2 POP POP JUMP JUMPDEST PUSH1 0x0 DUP1 PUSH1 0x40 DUP4 DUP6 SUB SLT ISZERO PUSH2 0xE4A JUMPI PUSH2 0xE49 PUSH2 0x6B5 JUMP JUMPDEST JUMPDEST PUSH1 0x0 PUSH2 0xE58 DUP6 DUP3 DUP7 ADD PUSH2 0xE1E JUMP JUMPDEST SWAP3 POP POP PUSH1 0x20 PUSH2 0xE69 DUP6 DUP3 DUP7 ADD PUSH2 0xE1E JUMP JUMPDEST SWAP2 POP POP SWAP3 POP SWAP3 SWAP1 POP JUMP JUMPDEST PUSH32 0x4F6E6C792072656C6179657220616C6C6F776564000000000000000000000000 PUSH1 0x0 DUP3 ADD MSTORE POP JUMP JUMPDEST PUSH1 0x0 PUSH2 0xEA9 PUSH1 0x14 DUP4 PUSH2 0xB16 JUMP JUMPDEST SWAP2 POP PUSH2 0xEB4 DUP3 PUSH2 0xE73 JUMP JUMPDEST PUSH1 0x20 DUP3 ADD SWAP1 POP SWAP2 SWAP1 POP JUMP JUMPDEST PUSH1 0x0 PUSH1 0x20 DUP3 ADD SWAP1 POP DUP2 DUP2 SUB PUSH1 0x0 DUP4 ADD MSTORE PUSH2 0xED8 DUP2 PUSH2 0xE9C JUMP JUMPDEST SWAP1 POP SWAP2 SWAP1 POP JUMP JUMPDEST PUSH1 0x0 PUSH2 0xEF2 PUSH2 0xEED DUP5 PUSH2 0xBE1 JUMP JUMPDEST PUSH2 0x84B JUMP JUMPDEST SWAP1 POP DUP3 DUP2 MSTORE PUSH1 0x20 DUP2 ADD DUP5 DUP5 DUP5 ADD GT ISZERO PUSH2 0xF0E JUMPI PUSH2 0xF0D PUSH2 0x7D5 JUMP JUMPDEST JUMPDEST PUSH2 0xF19 DUP5 DUP3 DUP6 PUSH2 0xB27 JUMP JUMPDEST POP SWAP4 SWAP3 POP POP POP JUMP JUMPDEST PUSH1 0x0 DUP3 PUSH1 0x1F DUP4 ADD SLT PUSH2 0xF36 JUMPI PUSH2 0xF35 PUSH2 0x7D0 JUMP JUMPDEST JUMPDEST DUP2 MLOAD PUSH2 0xF46 DUP5 DUP3 PUSH1 0x20 DUP7 ADD PUSH2 0xEDF JUMP JUMPDEST SWAP2 POP POP SWAP3 SWAP2 POP POP JUMP JUMPDEST PUSH1 0x0 PUSH2 0xF5A DUP3 PUSH2 0xAAF JUMP JUMPDEST SWAP1 POP SWAP2 SWAP1 POP JUMP JUMPDEST PUSH2 0xF6A DUP2 PUSH2 0xF4F JUMP JUMPDEST DUP2 EQ PUSH2 0xF75 JUMPI PUSH1 0x0 DUP1 REVERT JUMPDEST POP JUMP JUMPDEST PUSH1 0x0 DUP2 MLOAD SWAP1 POP PUSH2 0xF87 DUP2 PUSH2 0xF61 JUMP JUMPDEST SWAP3 SWAP2 POP POP JUMP JUMPDEST PUSH1 0x0 DUP1 PUSH1 0x40 DUP4 DUP6 SUB SLT ISZERO PUSH2 0xFA4 JUMPI PUSH2 0xFA3 PUSH2 0x6B5 JUMP JUMPDEST JUMPDEST PUSH1 0x0 DUP4 ADD MLOAD PUSH8 0xFFFFFFFFFFFFFFFF DUP2 GT ISZERO PUSH2 0xFC2 JUMPI PUSH2 0xFC1 PUSH2 0x6BA JUMP JUMPDEST JUMPDEST PUSH2 0xFCE DUP6 DUP3 DUP7 ADD PUSH2 0xF21 JUMP JUMPDEST SWAP3 POP POP PUSH1 0x20 PUSH2 0xFDF DUP6 DUP3 DUP7 ADD PUSH2 0xF78 JUMP JUMPDEST SWAP2 POP POP SWAP3 POP SWAP3 SWAP1 POP JUMP JUMPDEST PUSH32 0x4E487B7100000000000000000000000000000000000000000000000000000000 PUSH1 0x0 MSTORE PUSH1 0x22 PUSH1 0x4 MSTORE PUSH1 0x24 PUSH1 0x0 REVERT JUMPDEST PUSH1 0x0 PUSH1 0x2 DUP3 DIV SWAP1 POP PUSH1 0x1 DUP3 AND DUP1 PUSH2 0x1030 JUMPI PUSH1 0x7F DUP3 AND SWAP2 POP JUMPDEST PUSH1 0x20 DUP3 LT DUP2 SUB PUSH2 0x1043 JUMPI PUSH2 0x1042 PUSH2 0xFE9 JUMP JUMPDEST JUMPDEST POP SWAP2 SWAP1 POP JUMP JUMPDEST PUSH1 0x0 DUP2 SWAP1 POP DUP2 PUSH1 0x0 MSTORE PUSH1 0x20 PUSH1 0x0 KECCAK256 SWAP1 POP SWAP2 SWAP1 POP JUMP JUMPDEST PUSH1 0x0 DUP2 SLOAD PUSH2 0x106B DUP2 PUSH2 0x1018 JUMP JUMPDEST PUSH2 0x1075 DUP2 DUP7 PUSH2 0xB16 JUMP JUMPDEST SWAP5 POP PUSH1 0x1 DUP3 AND PUSH1 0x0 DUP2 EQ PUSH2 0x1090 JUMPI PUSH1 0x1 DUP2 EQ PUSH2 0x10A2 JUMPI PUSH2 0x10D5 JUMP JUMPDEST PUSH1 0xFF NOT DUP4 AND DUP7 MSTORE PUSH1 0x20 DUP7 ADD SWAP4 POP PUSH2 0x10D5 JUMP JUMPDEST PUSH2 0x10AB DUP6 PUSH2 0x1049 JUMP JUMPDEST PUSH1 0x0 JUMPDEST DUP4 DUP2 LT ISZERO PUSH2 0x10CD JUMPI DUP2 SLOAD DUP2 DUP10 ADD MSTORE PUSH1 0x1 DUP3 ADD SWAP2 POP PUSH1 0x20 DUP2 ADD SWAP1 POP PUSH2 0x10AE JUMP JUMPDEST DUP1 DUP9 ADD SWAP6 POP POP POP JUMPDEST POP POP POP SWAP3 SWAP2 POP POP JUMP JUMPDEST PUSH1 0x0 PUSH1 0x60 DUP3 ADD SWAP1 POP DUP2 DUP2 SUB PUSH1 0x0 DUP4 ADD MSTORE PUSH2 0x10F8 DUP2 DUP7 PUSH2 0x105E JUMP JUMPDEST SWAP1 POP PUSH2 0x1107 PUSH1 0x20 DUP4 ADD DUP6 PUSH2 0xCF1 JUMP JUMPDEST PUSH2 0x1114 PUSH1 0x40 DUP4 ADD DUP5 PUSH2 0xAE1 JUMP JUMPDEST SWAP5 SWAP4 POP POP POP POP JUMP JUMPDEST PUSH1 0x0 PUSH1 0x40 DUP3 ADD SWAP1 POP DUP2 DUP2 SUB PUSH1 0x0 DUP4 ADD MSTORE PUSH2 0x1136 DUP2 DUP6 PUSH2 0xB5A JUMP JUMPDEST SWAP1 POP PUSH2 0x1145 PUSH1 0x20 DUP4 ADD DUP5 PUSH2 0xAE1 JUMP JUMPDEST SWAP4 SWAP3 POP POP POP JUMP JUMPDEST PUSH1 0x0 DUP2 MLOAD SWAP1 POP SWAP2 SWAP1 POP JUMP JUMPDEST PUSH1 0x0 DUP3 DUP3 MSTORE PUSH1 0x20 DUP3 ADD SWAP1 POP SWAP3 SWAP2 POP POP JUMP JUMPDEST PUSH1 0x0 PUSH2 0x1173 DUP3 PUSH2 0x114C JUMP JUMPDEST PUSH2 0x117D DUP2 DUP6 PUSH2 0x1157 JUMP JUMPDEST SWAP4 POP PUSH2 0x118D DUP2 DUP6 PUSH1 0x20 DUP7 ADD PUSH2 0xB27 JUMP JUMPDEST PUSH2 0x1196 DUP2 PUSH2 0x7DA JUMP JUMPDEST DUP5 ADD SWAP2 POP POP SWAP3 SWAP2 POP POP JUMP JUMPDEST PUSH1 0x0 PUSH1 0xE0 DUP3 ADD SWAP1 POP PUSH2 0x11B6 PUSH1 0x0 DUP4 ADD DUP11 PUSH2 0xCF1 JUMP JUMPDEST PUSH2 0x11C3 PUSH1 0x20 DUP4 ADD DUP10 PUSH2 0xAE1 JUMP JUMPDEST DUP2 DUP2 SUB PUSH1 0x40 DUP4 ADD MSTORE PUSH2 0x11D5 DUP2 DUP9 PUSH2 0x1168 JUMP JUMPDEST SWAP1 POP PUSH2 0x11E4 PUSH1 0x60 DUP4 ADD DUP8 PUSH2 0xDC1 JUMP JUMPDEST PUSH2 0x11F1 PUSH1 0x80 DUP4 ADD DUP7 PUSH2 0x730 JUMP JUMPDEST PUSH2 0x11FE PUSH1 0xA0 DUP4 ADD DUP6 PUSH2 0xCF1 JUMP JUMPDEST PUSH2 0x120B PUSH1 0xC0 DUP4 ADD DUP5 PUSH2 0xAE1 JUMP JUMPDEST SWAP9 SWAP8 POP POP POP POP POP POP POP POP JUMP JUMPDEST PUSH1 0x0 PUSH8 0xFFFFFFFFFFFFFFFF DUP3 AND SWAP1 POP SWAP2 SWAP1 POP JUMP JUMPDEST PUSH2 0x1234 DUP2 PUSH2 0x1217 JUMP JUMPDEST DUP2 EQ PUSH2 0x123F JUMPI PUSH1 0x0 DUP1 REVERT JUMPDEST POP JUMP JUMPDEST PUSH1 0x0 DUP2 MLOAD SWAP1 POP PUSH2 0x1251 DUP2 PUSH2 0x122B JUMP JUMPDEST SWAP3 SWAP2 POP POP JUMP JUMPDEST PUSH1 0x0 PUSH1 0x20 DUP3 DUP5 SUB SLT ISZERO PUSH2 0x126D JUMPI PUSH2 0x126C PUSH2 0x6B5 JUMP JUMPDEST JUMPDEST PUSH1 0x0 PUSH2 0x127B DUP5 DUP3 DUP6 ADD PUSH2 0x1242 JUMP JUMPDEST SWAP2 POP POP SWAP3 SWAP2 POP POP JUMP INVALID LOG2 PUSH5 0x6970667358 0x22 SLT KECCAK256 SUB 0xFC 0xCA AND 0xA7 0xE8 0xB9 0xE7 0xC0 DUP4 DUP13 EXTCODEHASH 0x4D PUSH29 0x9A54F330DF46821F04D1F87A1A963CFC803D64736F6C634300080D0033 "
		},
		"gasEstimates": {
			"creation": {
				"codeDepositCost": "958800",
				"executionCost": "infinite",
				"totalCost": "infinite"
			},
			"external": {
				"_srcChainId()": "2512",
				"latestGreeting()": "infinite",
				"owner()": "2581",
				"quoteCrossChainGreeting(uint16)": "infinite",
				"receiveWormholeMessages(bytes,bytes[],bytes32,uint16,bytes32)": "infinite",
				"sendMessage(uint16,address,string)": "infinite",
				"setPeer(uint16,bytes32)": "25011",
				"wormholeRelayer()": "infinite"
			}
		},
		"methodIdentifiers": {
			"_srcChainId()": "c439b0d9",
			"latestGreeting()": "921b58a9",
			"owner()": "8da5cb5b",
			"quoteCrossChainGreeting(uint16)": "28bd75ce",
			"receiveWormholeMessages(bytes,bytes[],bytes32,uint16,bytes32)": "529dca32",
			"sendMessage(uint16,address,string)": "afd44488",
			"setPeer(uint16,bytes32)": "32cf4cd5",
			"wormholeRelayer()": "da25b725"
		}
	},
	"abi": [
		{
			"inputs": [
				{
					"internalType": "address",
					"name": "_wormholeRelayer",
					"type": "address"
				},
				{
					"internalType": "uint16",
					"name": "srcChainId",
					"type": "uint16"
				}
			],
			"stateMutability": "nonpayable",
			"type": "constructor"
		},
		{
			"anonymous": false,
			"inputs": [
				{
					"indexed": false,
					"internalType": "string",
					"name": "greeting",
					"type": "string"
				},
				{
					"indexed": false,
					"internalType": "uint16",
					"name": "senderChain",
					"type": "uint16"
				},
				{
					"indexed": false,
					"internalType": "address",
					"name": "sender",
					"type": "address"
				}
			],
			"name": "GreetingReceived",
			"type": "event"
		},
		{
			"inputs": [],
			"name": "_srcChainId",
			"outputs": [
				{
					"internalType": "uint16",
					"name": "",
					"type": "uint16"
				}
			],
			"stateMutability": "view",
			"type": "function"
		},
		{
			"inputs": [],
			"name": "latestGreeting",
			"outputs": [
				{
					"internalType": "string",
					"name": "",
					"type": "string"
				}
			],
			"stateMutability": "view",
			"type": "function"
		},
		{
			"inputs": [],
			"name": "owner",
			"outputs": [
				{
					"internalType": "address",
					"name": "",
					"type": "address"
				}
			],
			"stateMutability": "view",
			"type": "function"
		},
		{
			"inputs": [
				{
					"internalType": "uint16",
					"name": "targetChain",
					"type": "uint16"
				}
			],
			"name": "quoteCrossChainGreeting",
			"outputs": [
				{
					"internalType": "uint256",
					"name": "cost",
					"type": "uint256"
				}
			],
			"stateMutability": "view",
			"type": "function"
		},
		{
			"inputs": [
				{
					"internalType": "bytes",
					"name": "payload",
					"type": "bytes"
				},
				{
					"internalType": "bytes[]",
					"name": "",
					"type": "bytes[]"
				},
				{
					"internalType": "bytes32",
					"name": "sender",
					"type": "bytes32"
				},
				{
					"internalType": "uint16",
					"name": "sourceChain",
					"type": "uint16"
				},
				{
					"internalType": "bytes32",
					"name": "",
					"type": "bytes32"
				}
			],
			"name": "receiveWormholeMessages",
			"outputs": [],
			"stateMutability": "payable",
			"type": "function"
		},
		{
			"inputs": [
				{
					"internalType": "uint16",
					"name": "targetChain",
					"type": "uint16"
				},
				{
					"internalType": "address",
					"name": "targetAddress",
					"type": "address"
				},
				{
					"internalType": "string",
					"name": "greeting",
					"type": "string"
				}
			],
			"name": "sendMessage",
			"outputs": [],
			"stateMutability": "payable",
			"type": "function"
		},
		{
			"inputs": [
				{
					"internalType": "uint16",
					"name": "chainId",
					"type": "uint16"
				},
				{
					"internalType": "bytes32",
					"name": "peerContract",
					"type": "bytes32"
				}
			],
			"name": "setPeer",
			"outputs": [],
			"stateMutability": "nonpayable",
			"type": "function"
		},
		{
			"inputs": [],
			"name": "wormholeRelayer",
			"outputs": [
				{
					"internalType": "contract IWormholeRelayer",
					"name": "",
					"type": "address"
				}
			],
			"stateMutability": "view",
			"type": "function"
		}
	]
}