{
	"contracts/Wormhole/WormholeCcm.sol": {
		"WormholeCcm": {
			"abi": [
				{
					"inputs": [
						{
							"internalType": "address",
							"name": "_wormholeRelayer",
							"type": "address"
						},
						{
							"internalType": "uint16",
							"name": "srcChainId",
							"type": "uint16"
						}
					],
					"stateMutability": "nonpayable",
					"type": "constructor"
				},
				{
					"inputs": [
						{
							"internalType": "address",
							"name": "owner",
							"type": "address"
						}
					],
					"name": "OwnableInvalidOwner",
					"type": "error"
				},
				{
					"inputs": [
						{
							"internalType": "address",
							"name": "account",
							"type": "address"
						}
					],
					"name": "OwnableUnauthorizedAccount",
					"type": "error"
				},
				{
					"anonymous": false,
					"inputs": [
						{
							"indexed": false,
							"internalType": "string",
							"name": "greeting",
							"type": "string"
						},
						{
							"indexed": false,
							"internalType": "uint16",
							"name": "senderChain",
							"type": "uint16"
						},
						{
							"indexed": false,
							"internalType": "address",
							"name": "sender",
							"type": "address"
						}
					],
					"name": "GreetingReceived",
					"type": "event"
				},
				{
					"anonymous": false,
					"inputs": [
						{
							"indexed": true,
							"internalType": "address",
							"name": "previousOwner",
							"type": "address"
						},
						{
							"indexed": true,
							"internalType": "address",
							"name": "newOwner",
							"type": "address"
						}
					],
					"name": "OwnershipTransferred",
					"type": "event"
				},
				{
					"inputs": [],
					"name": "_srcChainId",
					"outputs": [
						{
							"internalType": "uint16",
							"name": "",
							"type": "uint16"
						}
					],
					"stateMutability": "view",
					"type": "function"
				},
				{
					"inputs": [],
					"name": "latestGreeting",
					"outputs": [
						{
							"internalType": "string",
							"name": "",
							"type": "string"
						}
					],
					"stateMutability": "view",
					"type": "function"
				},
				{
					"inputs": [],
					"name": "owner",
					"outputs": [
						{
							"internalType": "address",
							"name": "",
							"type": "address"
						}
					],
					"stateMutability": "view",
					"type": "function"
				},
				{
					"inputs": [
						{
							"internalType": "uint16",
							"name": "targetChain",
							"type": "uint16"
						}
					],
					"name": "quoteCrossChainGreeting",
					"outputs": [
						{
							"internalType": "uint256",
							"name": "cost",
							"type": "uint256"
						}
					],
					"stateMutability": "view",
					"type": "function"
				},
				{
					"inputs": [
						{
							"internalType": "bytes",
							"name": "payload",
							"type": "bytes"
						},
						{
							"internalType": "bytes[]",
							"name": "",
							"type": "bytes[]"
						},
						{
							"internalType": "bytes32",
							"name": "sender",
							"type": "bytes32"
						},
						{
							"internalType": "uint16",
							"name": "sourceChain",
							"type": "uint16"
						},
						{
							"internalType": "bytes32",
							"name": "",
							"type": "bytes32"
						}
					],
					"name": "receiveWormholeMessages",
					"outputs": [],
					"stateMutability": "payable",
					"type": "function"
				},
				{
					"inputs": [],
					"name": "renounceOwnership",
					"outputs": [],
					"stateMutability": "nonpayable",
					"type": "function"
				},
				{
					"inputs": [
						{
							"internalType": "uint16",
							"name": "targetChain",
							"type": "uint16"
						},
						{
							"internalType": "address",
							"name": "targetAddress",
							"type": "address"
						},
						{
							"internalType": "string",
							"name": "greeting",
							"type": "string"
						}
					],
					"name": "sendMessage",
					"outputs": [],
					"stateMutability": "payable",
					"type": "function"
				},
				{
					"inputs": [
						{
							"internalType": "uint16",
							"name": "chainId",
							"type": "uint16"
						},
						{
							"internalType": "address",
							"name": "peerContract",
							"type": "address"
						}
					],
					"name": "setPeer",
					"outputs": [],
					"stateMutability": "nonpayable",
					"type": "function"
				},
				{
					"inputs": [
						{
							"internalType": "address",
							"name": "newOwner",
							"type": "address"
						}
					],
					"name": "transferOwnership",
					"outputs": [],
					"stateMutability": "nonpayable",
					"type": "function"
				},
				{
					"inputs": [],
					"name": "wormholeRelayer",
					"outputs": [
						{
							"internalType": "contract IWormholeRelayer",
							"name": "",
							"type": "address"
						}
					],
					"stateMutability": "view",
					"type": "function"
				}
			],
			"devdoc": {
				"errors": {
					"OwnableInvalidOwner(address)": [
						{
							"details": "The owner is not a valid owner account. (eg. `address(0)`)"
						}
					],
					"OwnableUnauthorizedAccount(address)": [
						{
							"details": "The caller account is not authorized to perform an operation."
						}
					]
				},
				"kind": "dev",
				"methods": {
					"owner()": {
						"details": "Returns the address of the current owner."
					},
					"renounceOwnership()": {
						"details": "Leaves the contract without owner. It will not be possible to call `onlyOwner` functions. Can only be called by the current owner. NOTE: Renouncing ownership will leave the contract without an owner, thereby disabling any functionality that is only available to the owner."
					},
					"transferOwnership(address)": {
						"details": "Transfers ownership of the contract to a new account (`newOwner`). Can only be called by the current owner."
					}
				},
				"version": 1
			},
			"evm": {
				"assembly": "    /* \"contracts/Wormhole/WormholeCcm.sol\":248:2653  contract WormholeCcm is IWormholeReceiver, Ownable {... */\n  mstore(0x40, 0xa0)\n    /* \"contracts/Wormhole/WormholeCcm.sol\":627:806  constructor(address _wormholeRelayer, uint16 srcChainId) Ownable(msg.sender){... */\n  callvalue\n  dup1\n  iszero\n  tag_1\n  jumpi\n  revert(0x00, 0x00)\ntag_1:\n  pop\n  mload(0x40)\n  sub(codesize, bytecodeSize)\n  dup1\n  bytecodeSize\n  dup4\n  codecopy\n  dup2\n  dup2\n  add\n  0x40\n  mstore\n  dup2\n  add\n  swap1\n  tag_2\n  swap2\n  swap1\n  tag_3\n  jump\t// in\ntag_2:\n    /* \"contracts/Wormhole/WormholeCcm.sol\":692:702  msg.sender */\n  caller\n    /* \"@openzeppelin/contracts/access/Ownable.sol\":1296:1297  0 */\n  0x00\n    /* \"@openzeppelin/contracts/access/Ownable.sol\":1272:1298  initialOwner == address(0) */\n  0xffffffffffffffffffffffffffffffffffffffff\n  and\n    /* \"@openzeppelin/contracts/access/Ownable.sol\":1272:1284  initialOwner */\n  dup2\n    /* \"@openzeppelin/contracts/access/Ownable.sol\":1272:1298  initialOwner == address(0) */\n  0xffffffffffffffffffffffffffffffffffffffff\n  and\n  sub\n    /* \"@openzeppelin/contracts/access/Ownable.sol\":1268:1363  if (initialOwner == address(0)) {... */\n  tag_7\n  jumpi\n    /* \"@openzeppelin/contracts/access/Ownable.sol\":1349:1350  0 */\n  0x00\n    /* \"@openzeppelin/contracts/access/Ownable.sol\":1321:1352  OwnableInvalidOwner(address(0)) */\n  mload(0x40)\n  0x1e4fbdf700000000000000000000000000000000000000000000000000000000\n  dup2\n  mstore\n  0x04\n  add\n  tag_8\n  swap2\n  swap1\n  tag_9\n  jump\t// in\ntag_8:\n  mload(0x40)\n  dup1\n  swap2\n  sub\n  swap1\n  revert\n    /* \"@openzeppelin/contracts/access/Ownable.sol\":1268:1363  if (initialOwner == address(0)) {... */\ntag_7:\n    /* \"@openzeppelin/contracts/access/Ownable.sol\":1372:1404  _transferOwnership(initialOwner) */\n  tag_10\n    /* \"@openzeppelin/contracts/access/Ownable.sol\":1391:1403  initialOwner */\n  dup2\n    /* \"@openzeppelin/contracts/access/Ownable.sol\":1372:1390  _transferOwnership */\n  shl(0x20, tag_11)\n    /* \"@openzeppelin/contracts/access/Ownable.sol\":1372:1404  _transferOwnership(initialOwner) */\n  0x20\n  shr\n  jump\t// in\ntag_10:\n    /* \"@openzeppelin/contracts/access/Ownable.sol\":1224:1411  constructor(address initialOwner) {... */\n  pop\n    /* \"contracts/Wormhole/WormholeCcm.sol\":748:764  _wormholeRelayer */\n  dup2\n    /* \"contracts/Wormhole/WormholeCcm.sol\":713:765  wormholeRelayer = IWormholeRelayer(_wormholeRelayer) */\n  0xffffffffffffffffffffffffffffffffffffffff\n  and\n  0x80\n  dup2\n  0xffffffffffffffffffffffffffffffffffffffff\n  and\n  dup2\n  mstore\n  pop\n  pop\n    /* \"contracts/Wormhole/WormholeCcm.sol\":789:799  srcChainId */\n  dup1\n    /* \"contracts/Wormhole/WormholeCcm.sol\":775:786  _srcChainId */\n  0x00\n  0x14\n    /* \"contracts/Wormhole/WormholeCcm.sol\":775:799  _srcChainId = srcChainId */\n  0x0100\n  exp\n  dup2\n  sload\n  dup2\n  0xffff\n  mul\n  not\n  and\n  swap1\n  dup4\n  0xffff\n  and\n  mul\n  or\n  swap1\n  sstore\n  pop\n    /* \"contracts/Wormhole/WormholeCcm.sol\":627:806  constructor(address _wormholeRelayer, uint16 srcChainId) Ownable(msg.sender){... */\n  pop\n  pop\n    /* \"contracts/Wormhole/WormholeCcm.sol\":248:2653  contract WormholeCcm is IWormholeReceiver, Ownable {... */\n  jump(tag_13)\n    /* \"@openzeppelin/contracts/access/Ownable.sol\":2911:3098  function _transferOwnership(address newOwner) internal virtual {... */\ntag_11:\n    /* \"@openzeppelin/contracts/access/Ownable.sol\":2984:3000  address oldOwner */\n  0x00\n    /* \"@openzeppelin/contracts/access/Ownable.sol\":3003:3009  _owner */\n  0x00\n  0x00\n  swap1\n  sload\n  swap1\n  0x0100\n  exp\n  swap1\n  div\n  0xffffffffffffffffffffffffffffffffffffffff\n  and\n    /* \"@openzeppelin/contracts/access/Ownable.sol\":2984:3009  address oldOwner = _owner */\n  swap1\n  pop\n    /* \"@openzeppelin/contracts/access/Ownable.sol\":3028:3036  newOwner */\n  dup2\n    /* \"@openzeppelin/contracts/access/Ownable.sol\":3019:3025  _owner */\n  0x00\n  0x00\n    /* \"@openzeppelin/contracts/access/Ownable.sol\":3019:3036  _owner = newOwner */\n  0x0100\n  exp\n  dup2\n  sload\n  dup2\n  0xffffffffffffffffffffffffffffffffffffffff\n  mul\n  not\n  and\n  swap1\n  dup4\n  0xffffffffffffffffffffffffffffffffffffffff\n  and\n  mul\n  or\n  swap1\n  sstore\n  pop\n    /* \"@openzeppelin/contracts/access/Ownable.sol\":3082:3090  newOwner */\n  dup2\n    /* \"@openzeppelin/contracts/access/Ownable.sol\":3051:3091  OwnershipTransferred(oldOwner, newOwner) */\n  0xffffffffffffffffffffffffffffffffffffffff\n  and\n    /* \"@openzeppelin/contracts/access/Ownable.sol\":3072:3080  oldOwner */\n  dup2\n    /* \"@openzeppelin/contracts/access/Ownable.sol\":3051:3091  OwnershipTransferred(oldOwner, newOwner) */\n  0xffffffffffffffffffffffffffffffffffffffff\n  and\n  0x8be0079c531659141344cd1fd0a4f28419497f9722a3daafe3b4186f6b6457e0\n  mload(0x40)\n  mload(0x40)\n  dup1\n  swap2\n  sub\n  swap1\n  log3\n    /* \"@openzeppelin/contracts/access/Ownable.sol\":2974:3098  {... */\n  pop\n    /* \"@openzeppelin/contracts/access/Ownable.sol\":2911:3098  function _transferOwnership(address newOwner) internal virtual {... */\n  pop\n  jump\t// out\n    /* \"#utility.yul\":88:205   */\ntag_16:\n    /* \"#utility.yul\":197:198   */\n  0x00\n    /* \"#utility.yul\":194:195   */\n  0x00\n    /* \"#utility.yul\":187:199   */\n  revert\n    /* \"#utility.yul\":334:460   */\ntag_18:\n    /* \"#utility.yul\":371:378   */\n  0x00\n    /* \"#utility.yul\":411:453   */\n  0xffffffffffffffffffffffffffffffffffffffff\n    /* \"#utility.yul\":404:409   */\n  dup3\n    /* \"#utility.yul\":400:454   */\n  and\n    /* \"#utility.yul\":389:454   */\n  swap1\n  pop\n    /* \"#utility.yul\":334:460   */\n  swap2\n  swap1\n  pop\n  jump\t// out\n    /* \"#utility.yul\":466:562   */\ntag_19:\n    /* \"#utility.yul\":503:510   */\n  0x00\n    /* \"#utility.yul\":532:556   */\n  tag_32\n    /* \"#utility.yul\":550:555   */\n  dup3\n    /* \"#utility.yul\":532:556   */\n  tag_18\n  jump\t// in\ntag_32:\n    /* \"#utility.yul\":521:556   */\n  swap1\n  pop\n    /* \"#utility.yul\":466:562   */\n  swap2\n  swap1\n  pop\n  jump\t// out\n    /* \"#utility.yul\":568:690   */\ntag_20:\n    /* \"#utility.yul\":641:665   */\n  tag_34\n    /* \"#utility.yul\":659:664   */\n  dup2\n    /* \"#utility.yul\":641:665   */\n  tag_19\n  jump\t// in\ntag_34:\n    /* \"#utility.yul\":634:639   */\n  dup2\n    /* \"#utility.yul\":631:666   */\n  eq\n    /* \"#utility.yul\":621:684   */\n  tag_35\n  jumpi\n    /* \"#utility.yul\":680:681   */\n  0x00\n    /* \"#utility.yul\":677:678   */\n  0x00\n    /* \"#utility.yul\":670:682   */\n  revert\n    /* \"#utility.yul\":621:684   */\ntag_35:\n    /* \"#utility.yul\":568:690   */\n  pop\n  jump\t// out\n    /* \"#utility.yul\":696:839   */\ntag_21:\n    /* \"#utility.yul\":753:758   */\n  0x00\n    /* \"#utility.yul\":784:790   */\n  dup2\n    /* \"#utility.yul\":778:791   */\n  mload\n    /* \"#utility.yul\":769:791   */\n  swap1\n  pop\n    /* \"#utility.yul\":800:833   */\n  tag_37\n    /* \"#utility.yul\":827:832   */\n  dup2\n    /* \"#utility.yul\":800:833   */\n  tag_20\n  jump\t// in\ntag_37:\n    /* \"#utility.yul\":696:839   */\n  swap3\n  swap2\n  pop\n  pop\n  jump\t// out\n    /* \"#utility.yul\":845:934   */\ntag_22:\n    /* \"#utility.yul\":881:888   */\n  0x00\n    /* \"#utility.yul\":921:927   */\n  0xffff\n    /* \"#utility.yul\":914:919   */\n  dup3\n    /* \"#utility.yul\":910:928   */\n  and\n    /* \"#utility.yul\":899:928   */\n  swap1\n  pop\n    /* \"#utility.yul\":845:934   */\n  swap2\n  swap1\n  pop\n  jump\t// out\n    /* \"#utility.yul\":940:1060   */\ntag_23:\n    /* \"#utility.yul\":1012:1035   */\n  tag_40\n    /* \"#utility.yul\":1029:1034   */\n  dup2\n    /* \"#utility.yul\":1012:1035   */\n  tag_22\n  jump\t// in\ntag_40:\n    /* \"#utility.yul\":1005:1010   */\n  dup2\n    /* \"#utility.yul\":1002:1036   */\n  eq\n    /* \"#utility.yul\":992:1054   */\n  tag_41\n  jumpi\n    /* \"#utility.yul\":1050:1051   */\n  0x00\n    /* \"#utility.yul\":1047:1048   */\n  0x00\n    /* \"#utility.yul\":1040:1052   */\n  revert\n    /* \"#utility.yul\":992:1054   */\ntag_41:\n    /* \"#utility.yul\":940:1060   */\n  pop\n  jump\t// out\n    /* \"#utility.yul\":1066:1207   */\ntag_24:\n    /* \"#utility.yul\":1122:1127   */\n  0x00\n    /* \"#utility.yul\":1153:1159   */\n  dup2\n    /* \"#utility.yul\":1147:1160   */\n  mload\n    /* \"#utility.yul\":1138:1160   */\n  swap1\n  pop\n    /* \"#utility.yul\":1169:1201   */\n  tag_43\n    /* \"#utility.yul\":1195:1200   */\n  dup2\n    /* \"#utility.yul\":1169:1201   */\n  tag_23\n  jump\t// in\ntag_43:\n    /* \"#utility.yul\":1066:1207   */\n  swap3\n  swap2\n  pop\n  pop\n  jump\t// out\n    /* \"#utility.yul\":1213:1718   */\ntag_3:\n    /* \"#utility.yul\":1291:1297   */\n  0x00\n    /* \"#utility.yul\":1299:1305   */\n  0x00\n    /* \"#utility.yul\":1348:1350   */\n  0x40\n    /* \"#utility.yul\":1336:1345   */\n  dup4\n    /* \"#utility.yul\":1327:1334   */\n  dup6\n    /* \"#utility.yul\":1323:1346   */\n  sub\n    /* \"#utility.yul\":1319:1351   */\n  slt\n    /* \"#utility.yul\":1316:1435   */\n  iszero\n  tag_45\n  jumpi\n    /* \"#utility.yul\":1354:1433   */\n  tag_46\n  tag_16\n  jump\t// in\ntag_46:\n    /* \"#utility.yul\":1316:1435   */\ntag_45:\n    /* \"#utility.yul\":1474:1475   */\n  0x00\n    /* \"#utility.yul\":1499:1563   */\n  tag_47\n    /* \"#utility.yul\":1555:1562   */\n  dup6\n    /* \"#utility.yul\":1546:1552   */\n  dup3\n    /* \"#utility.yul\":1535:1544   */\n  dup7\n    /* \"#utility.yul\":1531:1553   */\n  add\n    /* \"#utility.yul\":1499:1563   */\n  tag_21\n  jump\t// in\ntag_47:\n    /* \"#utility.yul\":1489:1563   */\n  swap3\n  pop\n    /* \"#utility.yul\":1445:1573   */\n  pop\n    /* \"#utility.yul\":1612:1614   */\n  0x20\n    /* \"#utility.yul\":1638:1701   */\n  tag_48\n    /* \"#utility.yul\":1693:1700   */\n  dup6\n    /* \"#utility.yul\":1684:1690   */\n  dup3\n    /* \"#utility.yul\":1673:1682   */\n  dup7\n    /* \"#utility.yul\":1669:1691   */\n  add\n    /* \"#utility.yul\":1638:1701   */\n  tag_24\n  jump\t// in\ntag_48:\n    /* \"#utility.yul\":1628:1701   */\n  swap2\n  pop\n    /* \"#utility.yul\":1583:1711   */\n  pop\n    /* \"#utility.yul\":1213:1718   */\n  swap3\n  pop\n  swap3\n  swap1\n  pop\n  jump\t// out\n    /* \"#utility.yul\":1724:1842   */\ntag_25:\n    /* \"#utility.yul\":1811:1835   */\n  tag_50\n    /* \"#utility.yul\":1829:1834   */\n  dup2\n    /* \"#utility.yul\":1811:1835   */\n  tag_19\n  jump\t// in\ntag_50:\n    /* \"#utility.yul\":1806:1809   */\n  dup3\n    /* \"#utility.yul\":1799:1836   */\n  mstore\n    /* \"#utility.yul\":1724:1842   */\n  pop\n  pop\n  jump\t// out\n    /* \"#utility.yul\":1848:2070   */\ntag_9:\n    /* \"#utility.yul\":1941:1945   */\n  0x00\n    /* \"#utility.yul\":1979:1981   */\n  0x20\n    /* \"#utility.yul\":1968:1977   */\n  dup3\n    /* \"#utility.yul\":1964:1982   */\n  add\n    /* \"#utility.yul\":1956:1982   */\n  swap1\n  pop\n    /* \"#utility.yul\":1992:2063   */\n  tag_52\n    /* \"#utility.yul\":2060:2061   */\n  0x00\n    /* \"#utility.yul\":2049:2058   */\n  dup4\n    /* \"#utility.yul\":2045:2062   */\n  add\n    /* \"#utility.yul\":2036:2042   */\n  dup5\n    /* \"#utility.yul\":1992:2063   */\n  tag_25\n  jump\t// in\ntag_52:\n    /* \"#utility.yul\":1848:2070   */\n  swap3\n  swap2\n  pop\n  pop\n  jump\t// out\n    /* \"contracts/Wormhole/WormholeCcm.sol\":248:2653  contract WormholeCcm is IWormholeReceiver, Ownable {... */\ntag_13:\n  mload(0x80)\n  codecopy(0x00, dataOffset(sub_0), dataSize(sub_0))\n  0x00\n  assignImmutable(\"0x9a8b6999955579552efb49f9b1ba44e9b405d36c1cd9fda072316c810fd42bbd\")\n  return(0x00, dataSize(sub_0))\nstop\n\nsub_0: assembly {\n        /* \"contracts/Wormhole/WormholeCcm.sol\":248:2653  contract WormholeCcm is IWormholeReceiver, Ownable {... */\n      mstore(0x40, 0x80)\n      jumpi(tag_1, lt(calldatasize, 0x04))\n      shr(0xe0, calldataload(0x00))\n      dup1\n      0xafd44488\n      gt\n      tag_12\n      jumpi\n      dup1\n      0xafd44488\n      eq\n      tag_7\n      jumpi\n      dup1\n      0xc2362d0d\n      eq\n      tag_8\n      jumpi\n      dup1\n      0xc439b0d9\n      eq\n      tag_9\n      jumpi\n      dup1\n      0xda25b725\n      eq\n      tag_10\n      jumpi\n      dup1\n      0xf2fde38b\n      eq\n      tag_11\n      jumpi\n      jump(tag_1)\n    tag_12:\n      dup1\n      0x28bd75ce\n      eq\n      tag_2\n      jumpi\n      dup1\n      0x529dca32\n      eq\n      tag_3\n      jumpi\n      dup1\n      0x715018a6\n      eq\n      tag_4\n      jumpi\n      dup1\n      0x8da5cb5b\n      eq\n      tag_5\n      jumpi\n      dup1\n      0x921b58a9\n      eq\n      tag_6\n      jumpi\n    tag_1:\n      revert(0x00, 0x00)\n        /* \"contracts/Wormhole/WormholeCcm.sol\":812:1052  function quoteCrossChainGreeting(... */\n    tag_2:\n      callvalue\n      dup1\n      iszero\n      tag_13\n      jumpi\n      revert(0x00, 0x00)\n    tag_13:\n      pop\n      tag_14\n      0x04\n      dup1\n      calldatasize\n      sub\n      dup2\n      add\n      swap1\n      tag_15\n      swap2\n      swap1\n      tag_16\n      jump\t// in\n    tag_15:\n      tag_17\n      jump\t// in\n    tag_14:\n      mload(0x40)\n      tag_18\n      swap2\n      swap1\n      tag_19\n      jump\t// in\n    tag_18:\n      mload(0x40)\n      dup1\n      swap2\n      sub\n      swap1\n      return\n        /* \"contracts/Wormhole/WormholeCcm.sol\":1863:2651  function receiveWormholeMessages(... */\n    tag_3:\n      tag_20\n      0x04\n      dup1\n      calldatasize\n      sub\n      dup2\n      add\n      swap1\n      tag_21\n      swap2\n      swap1\n      tag_22\n      jump\t// in\n    tag_21:\n      tag_23\n      jump\t// in\n    tag_20:\n      stop\n        /* \"@openzeppelin/contracts/access/Ownable.sol\":2292:2393  function renounceOwnership() public virtual onlyOwner {... */\n    tag_4:\n      callvalue\n      dup1\n      iszero\n      tag_24\n      jumpi\n      revert(0x00, 0x00)\n    tag_24:\n      pop\n      tag_25\n      tag_26\n      jump\t// in\n    tag_25:\n      stop\n        /* \"@openzeppelin/contracts/access/Ownable.sol\":1637:1722  function owner() public view virtual returns (address) {... */\n    tag_5:\n      callvalue\n      dup1\n      iszero\n      tag_27\n      jumpi\n      revert(0x00, 0x00)\n    tag_27:\n      pop\n      tag_28\n      tag_29\n      jump\t// in\n    tag_28:\n      mload(0x40)\n      tag_30\n      swap2\n      swap1\n      tag_31\n      jump\t// in\n    tag_30:\n      mload(0x40)\n      dup1\n      swap2\n      sub\n      swap1\n      return\n        /* \"contracts/Wormhole/WormholeCcm.sol\":516:544  string public latestGreeting */\n    tag_6:\n      callvalue\n      dup1\n      iszero\n      tag_32\n      jumpi\n      revert(0x00, 0x00)\n    tag_32:\n      pop\n      tag_33\n      tag_34\n      jump\t// in\n    tag_33:\n      mload(0x40)\n      tag_35\n      swap2\n      swap1\n      tag_36\n      jump\t// in\n    tag_35:\n      mload(0x40)\n      dup1\n      swap2\n      sub\n      swap1\n      return\n        /* \"contracts/Wormhole/WormholeCcm.sol\":1234:1857  function sendMessage(... */\n    tag_7:\n      tag_37\n      0x04\n      dup1\n      calldatasize\n      sub\n      dup2\n      add\n      swap1\n      tag_38\n      swap2\n      swap1\n      tag_39\n      jump\t// in\n    tag_38:\n      tag_40\n      jump\t// in\n    tag_37:\n      stop\n        /* \"contracts/Wormhole/WormholeCcm.sol\":1058:1228  function setPeer(uint16 chainId, address peerContract) public onlyOwner{... */\n    tag_8:\n      callvalue\n      dup1\n      iszero\n      tag_41\n      jumpi\n      revert(0x00, 0x00)\n    tag_41:\n      pop\n      tag_42\n      0x04\n      dup1\n      calldatasize\n      sub\n      dup2\n      add\n      swap1\n      tag_43\n      swap2\n      swap1\n      tag_44\n      jump\t// in\n    tag_43:\n      tag_45\n      jump\t// in\n    tag_42:\n      stop\n        /* \"contracts/Wormhole/WormholeCcm.sol\":428:453  uint16 public _srcChainId */\n    tag_9:\n      callvalue\n      dup1\n      iszero\n      tag_46\n      jumpi\n      revert(0x00, 0x00)\n    tag_46:\n      pop\n      tag_47\n      tag_48\n      jump\t// in\n    tag_47:\n      mload(0x40)\n      tag_49\n      swap2\n      swap1\n      tag_50\n      jump\t// in\n    tag_49:\n      mload(0x40)\n      dup1\n      swap2\n      sub\n      swap1\n      return\n        /* \"contracts/Wormhole/WormholeCcm.sol\":460:509  IWormholeRelayer public immutable wormholeRelayer */\n    tag_10:\n      callvalue\n      dup1\n      iszero\n      tag_51\n      jumpi\n      revert(0x00, 0x00)\n    tag_51:\n      pop\n      tag_52\n      tag_53\n      jump\t// in\n    tag_52:\n      mload(0x40)\n      tag_54\n      swap2\n      swap1\n      tag_55\n      jump\t// in\n    tag_54:\n      mload(0x40)\n      dup1\n      swap2\n      sub\n      swap1\n      return\n        /* \"@openzeppelin/contracts/access/Ownable.sol\":2542:2757  function transferOwnership(address newOwner) public virtual onlyOwner {... */\n    tag_11:\n      callvalue\n      dup1\n      iszero\n      tag_56\n      jumpi\n      revert(0x00, 0x00)\n    tag_56:\n      pop\n      tag_57\n      0x04\n      dup1\n      calldatasize\n      sub\n      dup2\n      add\n      swap1\n      tag_58\n      swap2\n      swap1\n      tag_59\n      jump\t// in\n    tag_58:\n      tag_60\n      jump\t// in\n    tag_57:\n      stop\n        /* \"contracts/Wormhole/WormholeCcm.sol\":812:1052  function quoteCrossChainGreeting(... */\n    tag_17:\n        /* \"contracts/Wormhole/WormholeCcm.sol\":900:912  uint256 cost */\n      0x00\n        /* \"contracts/Wormhole/WormholeCcm.sol\":935:950  wormholeRelayer */\n      immutable(\"0x9a8b6999955579552efb49f9b1ba44e9b405d36c1cd9fda072316c810fd42bbd\")\n        /* \"contracts/Wormhole/WormholeCcm.sol\":935:972  wormholeRelayer.quoteEVMDeliveryPrice */\n      0xffffffffffffffffffffffffffffffffffffffff\n      and\n      0xc23ee3c3\n        /* \"contracts/Wormhole/WormholeCcm.sol\":986:997  targetChain */\n      dup4\n        /* \"contracts/Wormhole/WormholeCcm.sol\":1011:1012  0 */\n      0x00\n        /* \"contracts/Wormhole/WormholeCcm.sol\":416:422  50_000 */\n      0xc350\n        /* \"contracts/Wormhole/WormholeCcm.sol\":935:1045  wormholeRelayer.quoteEVMDeliveryPrice(... */\n      mload(0x40)\n      dup5\n      0xffffffff\n      and\n      0xe0\n      shl\n      dup2\n      mstore\n      0x04\n      add\n      tag_62\n      swap4\n      swap3\n      swap2\n      swap1\n      tag_63\n      jump\t// in\n    tag_62:\n      0x40\n      dup1\n      mload\n      dup1\n      dup4\n      sub\n      dup2\n      dup7\n      gas\n      staticcall\n      iszero\n      dup1\n      iszero\n      tag_65\n      jumpi\n      returndatacopy(0x00, 0x00, returndatasize)\n      revert(0x00, returndatasize)\n    tag_65:\n      pop\n      pop\n      pop\n      pop\n      mload(0x40)\n      returndatasize\n      not(0x1f)\n      0x1f\n      dup3\n      add\n      and\n      dup3\n      add\n      dup1\n      0x40\n      mstore\n      pop\n      dup2\n      add\n      swap1\n      tag_66\n      swap2\n      swap1\n      tag_67\n      jump\t// in\n    tag_66:\n        /* \"contracts/Wormhole/WormholeCcm.sol\":924:1045  (cost, ) = wormholeRelayer.quoteEVMDeliveryPrice(... */\n      pop\n      dup1\n      swap2\n      pop\n      pop\n        /* \"contracts/Wormhole/WormholeCcm.sol\":812:1052  function quoteCrossChainGreeting(... */\n      swap2\n      swap1\n      pop\n      jump\t// out\n        /* \"contracts/Wormhole/WormholeCcm.sol\":1863:2651  function receiveWormholeMessages(... */\n    tag_23:\n        /* \"contracts/Wormhole/WormholeCcm.sol\":2215:2230  wormholeRelayer */\n      immutable(\"0x9a8b6999955579552efb49f9b1ba44e9b405d36c1cd9fda072316c810fd42bbd\")\n        /* \"contracts/Wormhole/WormholeCcm.sol\":2193:2231  msg.sender == address(wormholeRelayer) */\n      0xffffffffffffffffffffffffffffffffffffffff\n      and\n        /* \"contracts/Wormhole/WormholeCcm.sol\":2193:2203  msg.sender */\n      caller\n        /* \"contracts/Wormhole/WormholeCcm.sol\":2193:2231  msg.sender == address(wormholeRelayer) */\n      0xffffffffffffffffffffffffffffffffffffffff\n      and\n      eq\n        /* \"contracts/Wormhole/WormholeCcm.sol\":2185:2256  require(msg.sender == address(wormholeRelayer), \"Only relayer allowed\") */\n      tag_69\n      jumpi\n      mload(0x40)\n      0x08c379a000000000000000000000000000000000000000000000000000000000\n      dup2\n      mstore\n      0x04\n      add\n      tag_70\n      swap1\n      tag_71\n      jump\t// in\n    tag_70:\n      mload(0x40)\n      dup1\n      swap2\n      sub\n      swap1\n      revert\n    tag_69:\n        /* \"contracts/Wormhole/WormholeCcm.sol\":2328:2334  sender */\n      dup3\n        /* \"contracts/Wormhole/WormholeCcm.sol\":2320:2335  uint256(sender) */\n      0x00\n      shr\n        /* \"contracts/Wormhole/WormholeCcm.sol\":2274:2337  peerContracts[sourceChain] == address(uint160(uint256(sender))) */\n      0xffffffffffffffffffffffffffffffffffffffff\n      and\n        /* \"contracts/Wormhole/WormholeCcm.sol\":2274:2287  peerContracts */\n      0x02\n        /* \"contracts/Wormhole/WormholeCcm.sol\":2274:2300  peerContracts[sourceChain] */\n      0x00\n        /* \"contracts/Wormhole/WormholeCcm.sol\":2288:2299  sourceChain */\n      dup5\n        /* \"contracts/Wormhole/WormholeCcm.sol\":2274:2300  peerContracts[sourceChain] */\n      0xffff\n      and\n      0xffff\n      and\n      dup2\n      mstore\n      0x20\n      add\n      swap1\n      dup2\n      mstore\n      0x20\n      add\n      0x00\n      keccak256\n      0x00\n      swap1\n      sload\n      swap1\n      0x0100\n      exp\n      swap1\n      div\n      0xffffffffffffffffffffffffffffffffffffffff\n      and\n        /* \"contracts/Wormhole/WormholeCcm.sol\":2274:2337  peerContracts[sourceChain] == address(uint160(uint256(sender))) */\n      0xffffffffffffffffffffffffffffffffffffffff\n      and\n      eq\n        /* \"contracts/Wormhole/WormholeCcm.sol\":2266:2338  require(peerContracts[sourceChain] == address(uint160(uint256(sender)))) */\n      tag_72\n      jumpi\n      revert(0x00, 0x00)\n    tag_72:\n        /* \"contracts/Wormhole/WormholeCcm.sol\":2413:2435  string memory greeting */\n      0x00\n        /* \"contracts/Wormhole/WormholeCcm.sol\":2437:2458  address senderAddress */\n      0x00\n        /* \"contracts/Wormhole/WormholeCcm.sol\":2486:2493  payload */\n      dup7\n        /* \"contracts/Wormhole/WormholeCcm.sol\":2462:2534  abi.decode(... */\n      dup1\n      0x20\n      add\n      swap1\n      mload\n      dup2\n      add\n      swap1\n      tag_73\n      swap2\n      swap1\n      tag_74\n      jump\t// in\n    tag_73:\n        /* \"contracts/Wormhole/WormholeCcm.sol\":2412:2534  (string memory greeting, address senderAddress) = abi.decode(... */\n      swap2\n      pop\n      swap2\n      pop\n        /* \"contracts/Wormhole/WormholeCcm.sol\":2561:2569  greeting */\n      dup2\n        /* \"contracts/Wormhole/WormholeCcm.sol\":2544:2558  latestGreeting */\n      0x01\n        /* \"contracts/Wormhole/WormholeCcm.sol\":2544:2569  latestGreeting = greeting */\n      swap1\n      dup2\n      tag_75\n      swap2\n      swap1\n      tag_76\n      jump\t// in\n    tag_75:\n      pop\n        /* \"contracts/Wormhole/WormholeCcm.sol\":2584:2644  GreetingReceived(latestGreeting, sourceChain, senderAddress) */\n      0x5c4ab0cfb98525b63324629eb8c98352dec2bece203410170311b78405054676\n        /* \"contracts/Wormhole/WormholeCcm.sol\":2601:2615  latestGreeting */\n      0x01\n        /* \"contracts/Wormhole/WormholeCcm.sol\":2617:2628  sourceChain */\n      dup6\n        /* \"contracts/Wormhole/WormholeCcm.sol\":2630:2643  senderAddress */\n      dup4\n        /* \"contracts/Wormhole/WormholeCcm.sol\":2584:2644  GreetingReceived(latestGreeting, sourceChain, senderAddress) */\n      mload(0x40)\n      tag_77\n      swap4\n      swap3\n      swap2\n      swap1\n      tag_78\n      jump\t// in\n    tag_77:\n      mload(0x40)\n      dup1\n      swap2\n      sub\n      swap1\n      log1\n        /* \"contracts/Wormhole/WormholeCcm.sol\":2175:2651  {... */\n      pop\n      pop\n        /* \"contracts/Wormhole/WormholeCcm.sol\":1863:2651  function receiveWormholeMessages(... */\n      pop\n      pop\n      pop\n      pop\n      pop\n      jump\t// out\n        /* \"@openzeppelin/contracts/access/Ownable.sol\":2292:2393  function renounceOwnership() public virtual onlyOwner {... */\n    tag_26:\n        /* \"@openzeppelin/contracts/access/Ownable.sol\":1530:1543  _checkOwner() */\n      tag_80\n        /* \"@openzeppelin/contracts/access/Ownable.sol\":1530:1541  _checkOwner */\n      tag_81\n        /* \"@openzeppelin/contracts/access/Ownable.sol\":1530:1543  _checkOwner() */\n      jump\t// in\n    tag_80:\n        /* \"@openzeppelin/contracts/access/Ownable.sol\":2356:2386  _transferOwnership(address(0)) */\n      tag_83\n        /* \"@openzeppelin/contracts/access/Ownable.sol\":2383:2384  0 */\n      0x00\n        /* \"@openzeppelin/contracts/access/Ownable.sol\":2356:2374  _transferOwnership */\n      tag_84\n        /* \"@openzeppelin/contracts/access/Ownable.sol\":2356:2386  _transferOwnership(address(0)) */\n      jump\t// in\n    tag_83:\n        /* \"@openzeppelin/contracts/access/Ownable.sol\":2292:2393  function renounceOwnership() public virtual onlyOwner {... */\n      jump\t// out\n        /* \"@openzeppelin/contracts/access/Ownable.sol\":1637:1722  function owner() public view virtual returns (address) {... */\n    tag_29:\n        /* \"@openzeppelin/contracts/access/Ownable.sol\":1683:1690  address */\n      0x00\n        /* \"@openzeppelin/contracts/access/Ownable.sol\":1709:1715  _owner */\n      0x00\n      0x00\n      swap1\n      sload\n      swap1\n      0x0100\n      exp\n      swap1\n      div\n      0xffffffffffffffffffffffffffffffffffffffff\n      and\n        /* \"@openzeppelin/contracts/access/Ownable.sol\":1702:1715  return _owner */\n      swap1\n      pop\n        /* \"@openzeppelin/contracts/access/Ownable.sol\":1637:1722  function owner() public view virtual returns (address) {... */\n      swap1\n      jump\t// out\n        /* \"contracts/Wormhole/WormholeCcm.sol\":516:544  string public latestGreeting */\n    tag_34:\n      0x01\n      dup1\n      sload\n      tag_86\n      swap1\n      tag_87\n      jump\t// in\n    tag_86:\n      dup1\n      0x1f\n      add\n      0x20\n      dup1\n      swap2\n      div\n      mul\n      0x20\n      add\n      mload(0x40)\n      swap1\n      dup2\n      add\n      0x40\n      mstore\n      dup1\n      swap3\n      swap2\n      swap1\n      dup2\n      dup2\n      mstore\n      0x20\n      add\n      dup3\n      dup1\n      sload\n      tag_88\n      swap1\n      tag_87\n      jump\t// in\n    tag_88:\n      dup1\n      iszero\n      tag_89\n      jumpi\n      dup1\n      0x1f\n      lt\n      tag_90\n      jumpi\n      0x0100\n      dup1\n      dup4\n      sload\n      div\n      mul\n      dup4\n      mstore\n      swap2\n      0x20\n      add\n      swap2\n      jump(tag_89)\n    tag_90:\n      dup3\n      add\n      swap2\n      swap1\n      0x00\n      mstore\n      keccak256(0x00, 0x20)\n      swap1\n    tag_91:\n      dup2\n      sload\n      dup2\n      mstore\n      swap1\n      0x01\n      add\n      swap1\n      0x20\n      add\n      dup1\n      dup4\n      gt\n      tag_91\n      jumpi\n      dup3\n      swap1\n      sub\n      0x1f\n      and\n      dup3\n      add\n      swap2\n    tag_89:\n      pop\n      pop\n      pop\n      pop\n      pop\n      dup2\n      jump\t// out\n        /* \"contracts/Wormhole/WormholeCcm.sol\":1234:1857  function sendMessage(... */\n    tag_40:\n        /* \"contracts/Wormhole/WormholeCcm.sol\":1377:1389  uint256 cost */\n      0x00\n        /* \"contracts/Wormhole/WormholeCcm.sol\":1392:1428  quoteCrossChainGreeting(targetChain) */\n      tag_93\n        /* \"contracts/Wormhole/WormholeCcm.sol\":1416:1427  targetChain */\n      dup5\n        /* \"contracts/Wormhole/WormholeCcm.sol\":1392:1415  quoteCrossChainGreeting */\n      tag_17\n        /* \"contracts/Wormhole/WormholeCcm.sol\":1392:1428  quoteCrossChainGreeting(targetChain) */\n      jump\t// in\n    tag_93:\n        /* \"contracts/Wormhole/WormholeCcm.sol\":1377:1428  uint256 cost = quoteCrossChainGreeting(targetChain) */\n      swap1\n      pop\n        /* \"contracts/Wormhole/WormholeCcm.sol\":1459:1463  cost */\n      dup1\n        /* \"contracts/Wormhole/WormholeCcm.sol\":1446:1455  msg.value */\n      callvalue\n        /* \"contracts/Wormhole/WormholeCcm.sol\":1446:1463  msg.value == cost */\n      eq\n        /* \"contracts/Wormhole/WormholeCcm.sol\":1438:1464  require(msg.value == cost) */\n      tag_94\n      jumpi\n      revert(0x00, 0x00)\n    tag_94:\n        /* \"contracts/Wormhole/WormholeCcm.sol\":1512:1525  targetAddress */\n      dup3\n        /* \"contracts/Wormhole/WormholeCcm.sol\":1482:1525  peerContracts[targetChain] == targetAddress */\n      0xffffffffffffffffffffffffffffffffffffffff\n      and\n        /* \"contracts/Wormhole/WormholeCcm.sol\":1482:1495  peerContracts */\n      0x02\n        /* \"contracts/Wormhole/WormholeCcm.sol\":1482:1508  peerContracts[targetChain] */\n      0x00\n        /* \"contracts/Wormhole/WormholeCcm.sol\":1496:1507  targetChain */\n      dup7\n        /* \"contracts/Wormhole/WormholeCcm.sol\":1482:1508  peerContracts[targetChain] */\n      0xffff\n      and\n      0xffff\n      and\n      dup2\n      mstore\n      0x20\n      add\n      swap1\n      dup2\n      mstore\n      0x20\n      add\n      0x00\n      keccak256\n      0x00\n      swap1\n      sload\n      swap1\n      0x0100\n      exp\n      swap1\n      div\n      0xffffffffffffffffffffffffffffffffffffffff\n      and\n        /* \"contracts/Wormhole/WormholeCcm.sol\":1482:1525  peerContracts[targetChain] == targetAddress */\n      0xffffffffffffffffffffffffffffffffffffffff\n      and\n      eq\n        /* \"contracts/Wormhole/WormholeCcm.sol\":1474:1526  require(peerContracts[targetChain] == targetAddress) */\n      tag_95\n      jumpi\n      revert(0x00, 0x00)\n    tag_95:\n        /* \"contracts/Wormhole/WormholeCcm.sol\":1536:1551  wormholeRelayer */\n      immutable(\"0x9a8b6999955579552efb49f9b1ba44e9b405d36c1cd9fda072316c810fd42bbd\")\n        /* \"contracts/Wormhole/WormholeCcm.sol\":1536:1568  wormholeRelayer.sendPayloadToEvm */\n      0xffffffffffffffffffffffffffffffffffffffff\n      and\n      0x4b5ca6f4\n        /* \"contracts/Wormhole/WormholeCcm.sol\":1576:1580  cost */\n      dup3\n        /* \"contracts/Wormhole/WormholeCcm.sol\":1595:1606  targetChain */\n      dup7\n        /* \"contracts/Wormhole/WormholeCcm.sol\":1620:1633  targetAddress */\n      dup7\n        /* \"contracts/Wormhole/WormholeCcm.sol\":1658:1666  greeting */\n      dup7\n        /* \"contracts/Wormhole/WormholeCcm.sol\":1668:1678  msg.sender */\n      caller\n        /* \"contracts/Wormhole/WormholeCcm.sol\":1647:1679  abi.encode(greeting, msg.sender) */\n      add(0x20, mload(0x40))\n      tag_96\n      swap3\n      swap2\n      swap1\n      tag_97\n      jump\t// in\n    tag_96:\n      mload(0x40)\n      0x20\n      dup2\n      dup4\n      sub\n      sub\n      dup2\n      mstore\n      swap1\n      0x40\n      mstore\n        /* \"contracts/Wormhole/WormholeCcm.sol\":1704:1705  0 */\n      0x00\n        /* \"contracts/Wormhole/WormholeCcm.sol\":416:422  50_000 */\n      0xc350\n        /* \"contracts/Wormhole/WormholeCcm.sol\":1805:1816  targetChain */\n      dup12\n        /* \"contracts/Wormhole/WormholeCcm.sol\":1830:1840  msg.sender */\n      caller\n        /* \"contracts/Wormhole/WormholeCcm.sol\":1536:1850  wormholeRelayer.sendPayloadToEvm{value: cost}(... */\n      mload(0x40)\n      dup10\n      0xffffffff\n      and\n      0xe0\n      shl\n      dup2\n      mstore\n      0x04\n      add\n      tag_98\n      swap8\n      swap7\n      swap6\n      swap5\n      swap4\n      swap3\n      swap2\n      swap1\n      tag_99\n      jump\t// in\n    tag_98:\n      0x20\n      mload(0x40)\n      dup1\n      dup4\n      sub\n      dup2\n      dup6\n      dup9\n      gas\n      call\n      iszero\n      dup1\n      iszero\n      tag_101\n      jumpi\n      returndatacopy(0x00, 0x00, returndatasize)\n      revert(0x00, returndatasize)\n    tag_101:\n      pop\n      pop\n      pop\n      pop\n      pop\n      mload(0x40)\n      returndatasize\n      not(0x1f)\n      0x1f\n      dup3\n      add\n      and\n      dup3\n      add\n      dup1\n      0x40\n      mstore\n      pop\n      dup2\n      add\n      swap1\n      tag_102\n      swap2\n      swap1\n      tag_103\n      jump\t// in\n    tag_102:\n      pop\n        /* \"contracts/Wormhole/WormholeCcm.sol\":1367:1857  {... */\n      pop\n        /* \"contracts/Wormhole/WormholeCcm.sol\":1234:1857  function sendMessage(... */\n      pop\n      pop\n      pop\n      jump\t// out\n        /* \"contracts/Wormhole/WormholeCcm.sol\":1058:1228  function setPeer(uint16 chainId, address peerContract) public onlyOwner{... */\n    tag_45:\n        /* \"@openzeppelin/contracts/access/Ownable.sol\":1530:1543  _checkOwner() */\n      tag_105\n        /* \"@openzeppelin/contracts/access/Ownable.sol\":1530:1541  _checkOwner */\n      tag_81\n        /* \"@openzeppelin/contracts/access/Ownable.sol\":1530:1543  _checkOwner() */\n      jump\t// in\n    tag_105:\n        /* \"contracts/Wormhole/WormholeCcm.sol\":1171:1172  0 */\n      0x00\n        /* \"contracts/Wormhole/WormholeCcm.sol\":1147:1173  peerContract != address(0) */\n      0xffffffffffffffffffffffffffffffffffffffff\n      and\n        /* \"contracts/Wormhole/WormholeCcm.sol\":1147:1159  peerContract */\n      dup2\n        /* \"contracts/Wormhole/WormholeCcm.sol\":1147:1173  peerContract != address(0) */\n      0xffffffffffffffffffffffffffffffffffffffff\n      and\n      sub\n        /* \"contracts/Wormhole/WormholeCcm.sol\":1139:1174  require(peerContract != address(0)) */\n      tag_107\n      jumpi\n      revert(0x00, 0x00)\n    tag_107:\n        /* \"contracts/Wormhole/WormholeCcm.sol\":1209:1221  peerContract */\n      dup1\n        /* \"contracts/Wormhole/WormholeCcm.sol\":1184:1197  peerContracts */\n      0x02\n        /* \"contracts/Wormhole/WormholeCcm.sol\":1184:1206  peerContracts[chainId] */\n      0x00\n        /* \"contracts/Wormhole/WormholeCcm.sol\":1198:1205  chainId */\n      dup5\n        /* \"contracts/Wormhole/WormholeCcm.sol\":1184:1206  peerContracts[chainId] */\n      0xffff\n      and\n      0xffff\n      and\n      dup2\n      mstore\n      0x20\n      add\n      swap1\n      dup2\n      mstore\n      0x20\n      add\n      0x00\n      keccak256\n      0x00\n        /* \"contracts/Wormhole/WormholeCcm.sol\":1184:1221  peerContracts[chainId] = peerContract */\n      0x0100\n      exp\n      dup2\n      sload\n      dup2\n      0xffffffffffffffffffffffffffffffffffffffff\n      mul\n      not\n      and\n      swap1\n      dup4\n      0xffffffffffffffffffffffffffffffffffffffff\n      and\n      mul\n      or\n      swap1\n      sstore\n      pop\n        /* \"contracts/Wormhole/WormholeCcm.sol\":1058:1228  function setPeer(uint16 chainId, address peerContract) public onlyOwner{... */\n      pop\n      pop\n      jump\t// out\n        /* \"contracts/Wormhole/WormholeCcm.sol\":428:453  uint16 public _srcChainId */\n    tag_48:\n      0x00\n      0x14\n      swap1\n      sload\n      swap1\n      0x0100\n      exp\n      swap1\n      div\n      0xffff\n      and\n      dup2\n      jump\t// out\n        /* \"contracts/Wormhole/WormholeCcm.sol\":460:509  IWormholeRelayer public immutable wormholeRelayer */\n    tag_53:\n      immutable(\"0x9a8b6999955579552efb49f9b1ba44e9b405d36c1cd9fda072316c810fd42bbd\")\n      dup2\n      jump\t// out\n        /* \"@openzeppelin/contracts/access/Ownable.sol\":2542:2757  function transferOwnership(address newOwner) public virtual onlyOwner {... */\n    tag_60:\n        /* \"@openzeppelin/contracts/access/Ownable.sol\":1530:1543  _checkOwner() */\n      tag_109\n        /* \"@openzeppelin/contracts/access/Ownable.sol\":1530:1541  _checkOwner */\n      tag_81\n        /* \"@openzeppelin/contracts/access/Ownable.sol\":1530:1543  _checkOwner() */\n      jump\t// in\n    tag_109:\n        /* \"@openzeppelin/contracts/access/Ownable.sol\":2646:2647  0 */\n      0x00\n        /* \"@openzeppelin/contracts/access/Ownable.sol\":2626:2648  newOwner == address(0) */\n      0xffffffffffffffffffffffffffffffffffffffff\n      and\n        /* \"@openzeppelin/contracts/access/Ownable.sol\":2626:2634  newOwner */\n      dup2\n        /* \"@openzeppelin/contracts/access/Ownable.sol\":2626:2648  newOwner == address(0) */\n      0xffffffffffffffffffffffffffffffffffffffff\n      and\n      sub\n        /* \"@openzeppelin/contracts/access/Ownable.sol\":2622:2713  if (newOwner == address(0)) {... */\n      tag_111\n      jumpi\n        /* \"@openzeppelin/contracts/access/Ownable.sol\":2699:2700  0 */\n      0x00\n        /* \"@openzeppelin/contracts/access/Ownable.sol\":2671:2702  OwnableInvalidOwner(address(0)) */\n      mload(0x40)\n      0x1e4fbdf700000000000000000000000000000000000000000000000000000000\n      dup2\n      mstore\n      0x04\n      add\n      tag_112\n      swap2\n      swap1\n      tag_31\n      jump\t// in\n    tag_112:\n      mload(0x40)\n      dup1\n      swap2\n      sub\n      swap1\n      revert\n        /* \"@openzeppelin/contracts/access/Ownable.sol\":2622:2713  if (newOwner == address(0)) {... */\n    tag_111:\n        /* \"@openzeppelin/contracts/access/Ownable.sol\":2722:2750  _transferOwnership(newOwner) */\n      tag_113\n        /* \"@openzeppelin/contracts/access/Ownable.sol\":2741:2749  newOwner */\n      dup2\n        /* \"@openzeppelin/contracts/access/Ownable.sol\":2722:2740  _transferOwnership */\n      tag_84\n        /* \"@openzeppelin/contracts/access/Ownable.sol\":2722:2750  _transferOwnership(newOwner) */\n      jump\t// in\n    tag_113:\n        /* \"@openzeppelin/contracts/access/Ownable.sol\":2542:2757  function transferOwnership(address newOwner) public virtual onlyOwner {... */\n      pop\n      jump\t// out\n        /* \"@openzeppelin/contracts/access/Ownable.sol\":1795:1957  function _checkOwner() internal view virtual {... */\n    tag_81:\n        /* \"@openzeppelin/contracts/access/Ownable.sol\":1865:1877  _msgSender() */\n      tag_115\n        /* \"@openzeppelin/contracts/access/Ownable.sol\":1865:1875  _msgSender */\n      tag_116\n        /* \"@openzeppelin/contracts/access/Ownable.sol\":1865:1877  _msgSender() */\n      jump\t// in\n    tag_115:\n        /* \"@openzeppelin/contracts/access/Ownable.sol\":1854:1877  owner() != _msgSender() */\n      0xffffffffffffffffffffffffffffffffffffffff\n      and\n        /* \"@openzeppelin/contracts/access/Ownable.sol\":1854:1861  owner() */\n      tag_117\n        /* \"@openzeppelin/contracts/access/Ownable.sol\":1854:1859  owner */\n      tag_29\n        /* \"@openzeppelin/contracts/access/Ownable.sol\":1854:1861  owner() */\n      jump\t// in\n    tag_117:\n        /* \"@openzeppelin/contracts/access/Ownable.sol\":1854:1877  owner() != _msgSender() */\n      0xffffffffffffffffffffffffffffffffffffffff\n      and\n      eq\n        /* \"@openzeppelin/contracts/access/Ownable.sol\":1850:1951  if (owner() != _msgSender()) {... */\n      tag_118\n      jumpi\n        /* \"@openzeppelin/contracts/access/Ownable.sol\":1927:1939  _msgSender() */\n      tag_119\n        /* \"@openzeppelin/contracts/access/Ownable.sol\":1927:1937  _msgSender */\n      tag_116\n        /* \"@openzeppelin/contracts/access/Ownable.sol\":1927:1939  _msgSender() */\n      jump\t// in\n    tag_119:\n        /* \"@openzeppelin/contracts/access/Ownable.sol\":1900:1940  OwnableUnauthorizedAccount(_msgSender()) */\n      mload(0x40)\n      0x118cdaa700000000000000000000000000000000000000000000000000000000\n      dup2\n      mstore\n      0x04\n      add\n      tag_120\n      swap2\n      swap1\n      tag_31\n      jump\t// in\n    tag_120:\n      mload(0x40)\n      dup1\n      swap2\n      sub\n      swap1\n      revert\n        /* \"@openzeppelin/contracts/access/Ownable.sol\":1850:1951  if (owner() != _msgSender()) {... */\n    tag_118:\n        /* \"@openzeppelin/contracts/access/Ownable.sol\":1795:1957  function _checkOwner() internal view virtual {... */\n      jump\t// out\n        /* \"@openzeppelin/contracts/access/Ownable.sol\":2911:3098  function _transferOwnership(address newOwner) internal virtual {... */\n    tag_84:\n        /* \"@openzeppelin/contracts/access/Ownable.sol\":2984:3000  address oldOwner */\n      0x00\n        /* \"@openzeppelin/contracts/access/Ownable.sol\":3003:3009  _owner */\n      0x00\n      0x00\n      swap1\n      sload\n      swap1\n      0x0100\n      exp\n      swap1\n      div\n      0xffffffffffffffffffffffffffffffffffffffff\n      and\n        /* \"@openzeppelin/contracts/access/Ownable.sol\":2984:3009  address oldOwner = _owner */\n      swap1\n      pop\n        /* \"@openzeppelin/contracts/access/Ownable.sol\":3028:3036  newOwner */\n      dup2\n        /* \"@openzeppelin/contracts/access/Ownable.sol\":3019:3025  _owner */\n      0x00\n      0x00\n        /* \"@openzeppelin/contracts/access/Ownable.sol\":3019:3036  _owner = newOwner */\n      0x0100\n      exp\n      dup2\n      sload\n      dup2\n      0xffffffffffffffffffffffffffffffffffffffff\n      mul\n      not\n      and\n      swap1\n      dup4\n      0xffffffffffffffffffffffffffffffffffffffff\n      and\n      mul\n      or\n      swap1\n      sstore\n      pop\n        /* \"@openzeppelin/contracts/access/Ownable.sol\":3082:3090  newOwner */\n      dup2\n        /* \"@openzeppelin/contracts/access/Ownable.sol\":3051:3091  OwnershipTransferred(oldOwner, newOwner) */\n      0xffffffffffffffffffffffffffffffffffffffff\n      and\n        /* \"@openzeppelin/contracts/access/Ownable.sol\":3072:3080  oldOwner */\n      dup2\n        /* \"@openzeppelin/contracts/access/Ownable.sol\":3051:3091  OwnershipTransferred(oldOwner, newOwner) */\n      0xffffffffffffffffffffffffffffffffffffffff\n      and\n      0x8be0079c531659141344cd1fd0a4f28419497f9722a3daafe3b4186f6b6457e0\n      mload(0x40)\n      mload(0x40)\n      dup1\n      swap2\n      sub\n      swap1\n      log3\n        /* \"@openzeppelin/contracts/access/Ownable.sol\":2974:3098  {... */\n      pop\n        /* \"@openzeppelin/contracts/access/Ownable.sol\":2911:3098  function _transferOwnership(address newOwner) internal virtual {... */\n      pop\n      jump\t// out\n        /* \"@openzeppelin/contracts/utils/Context.sol\":656:752  function _msgSender() internal view virtual returns (address) {... */\n    tag_116:\n        /* \"@openzeppelin/contracts/utils/Context.sol\":709:716  address */\n      0x00\n        /* \"@openzeppelin/contracts/utils/Context.sol\":735:745  msg.sender */\n      caller\n        /* \"@openzeppelin/contracts/utils/Context.sol\":728:745  return msg.sender */\n      swap1\n      pop\n        /* \"@openzeppelin/contracts/utils/Context.sol\":656:752  function _msgSender() internal view virtual returns (address) {... */\n      swap1\n      jump\t// out\n        /* \"#utility.yul\":7:82   */\n    tag_123:\n        /* \"#utility.yul\":40:46   */\n      0x00\n        /* \"#utility.yul\":73:75   */\n      0x40\n        /* \"#utility.yul\":67:76   */\n      mload\n        /* \"#utility.yul\":57:76   */\n      swap1\n      pop\n        /* \"#utility.yul\":7:82   */\n      swap1\n      jump\t// out\n        /* \"#utility.yul\":88:205   */\n    tag_124:\n        /* \"#utility.yul\":197:198   */\n      0x00\n        /* \"#utility.yul\":194:195   */\n      0x00\n        /* \"#utility.yul\":187:199   */\n      revert\n        /* \"#utility.yul\":211:328   */\n    tag_125:\n        /* \"#utility.yul\":320:321   */\n      0x00\n        /* \"#utility.yul\":317:318   */\n      0x00\n        /* \"#utility.yul\":310:322   */\n      revert\n        /* \"#utility.yul\":334:423   */\n    tag_126:\n        /* \"#utility.yul\":370:377   */\n      0x00\n        /* \"#utility.yul\":410:416   */\n      0xffff\n        /* \"#utility.yul\":403:408   */\n      dup3\n        /* \"#utility.yul\":399:417   */\n      and\n        /* \"#utility.yul\":388:417   */\n      swap1\n      pop\n        /* \"#utility.yul\":334:423   */\n      swap2\n      swap1\n      pop\n      jump\t// out\n        /* \"#utility.yul\":429:549   */\n    tag_127:\n        /* \"#utility.yul\":501:524   */\n      tag_206\n        /* \"#utility.yul\":518:523   */\n      dup2\n        /* \"#utility.yul\":501:524   */\n      tag_126\n      jump\t// in\n    tag_206:\n        /* \"#utility.yul\":494:499   */\n      dup2\n        /* \"#utility.yul\":491:525   */\n      eq\n        /* \"#utility.yul\":481:543   */\n      tag_207\n      jumpi\n        /* \"#utility.yul\":539:540   */\n      0x00\n        /* \"#utility.yul\":536:537   */\n      0x00\n        /* \"#utility.yul\":529:541   */\n      revert\n        /* \"#utility.yul\":481:543   */\n    tag_207:\n        /* \"#utility.yul\":429:549   */\n      pop\n      jump\t// out\n        /* \"#utility.yul\":555:692   */\n    tag_128:\n        /* \"#utility.yul\":600:605   */\n      0x00\n        /* \"#utility.yul\":638:644   */\n      dup2\n        /* \"#utility.yul\":625:645   */\n      calldataload\n        /* \"#utility.yul\":616:645   */\n      swap1\n      pop\n        /* \"#utility.yul\":654:686   */\n      tag_209\n        /* \"#utility.yul\":680:685   */\n      dup2\n        /* \"#utility.yul\":654:686   */\n      tag_127\n      jump\t// in\n    tag_209:\n        /* \"#utility.yul\":555:692   */\n      swap3\n      swap2\n      pop\n      pop\n      jump\t// out\n        /* \"#utility.yul\":698:1025   */\n    tag_16:\n        /* \"#utility.yul\":756:762   */\n      0x00\n        /* \"#utility.yul\":805:807   */\n      0x20\n        /* \"#utility.yul\":793:802   */\n      dup3\n        /* \"#utility.yul\":784:791   */\n      dup5\n        /* \"#utility.yul\":780:803   */\n      sub\n        /* \"#utility.yul\":776:808   */\n      slt\n        /* \"#utility.yul\":773:892   */\n      iszero\n      tag_211\n      jumpi\n        /* \"#utility.yul\":811:890   */\n      tag_212\n      tag_124\n      jump\t// in\n    tag_212:\n        /* \"#utility.yul\":773:892   */\n    tag_211:\n        /* \"#utility.yul\":931:932   */\n      0x00\n        /* \"#utility.yul\":956:1008   */\n      tag_213\n        /* \"#utility.yul\":1000:1007   */\n      dup5\n        /* \"#utility.yul\":991:997   */\n      dup3\n        /* \"#utility.yul\":980:989   */\n      dup6\n        /* \"#utility.yul\":976:998   */\n      add\n        /* \"#utility.yul\":956:1008   */\n      tag_128\n      jump\t// in\n    tag_213:\n        /* \"#utility.yul\":946:1008   */\n      swap2\n      pop\n        /* \"#utility.yul\":902:1018   */\n      pop\n        /* \"#utility.yul\":698:1025   */\n      swap3\n      swap2\n      pop\n      pop\n      jump\t// out\n        /* \"#utility.yul\":1031:1108   */\n    tag_129:\n        /* \"#utility.yul\":1068:1075   */\n      0x00\n        /* \"#utility.yul\":1097:1102   */\n      dup2\n        /* \"#utility.yul\":1086:1102   */\n      swap1\n      pop\n        /* \"#utility.yul\":1031:1108   */\n      swap2\n      swap1\n      pop\n      jump\t// out\n        /* \"#utility.yul\":1114:1232   */\n    tag_130:\n        /* \"#utility.yul\":1201:1225   */\n      tag_216\n        /* \"#utility.yul\":1219:1224   */\n      dup2\n        /* \"#utility.yul\":1201:1225   */\n      tag_129\n      jump\t// in\n    tag_216:\n        /* \"#utility.yul\":1196:1199   */\n      dup3\n        /* \"#utility.yul\":1189:1226   */\n      mstore\n        /* \"#utility.yul\":1114:1232   */\n      pop\n      pop\n      jump\t// out\n        /* \"#utility.yul\":1238:1460   */\n    tag_19:\n        /* \"#utility.yul\":1331:1335   */\n      0x00\n        /* \"#utility.yul\":1369:1371   */\n      0x20\n        /* \"#utility.yul\":1358:1367   */\n      dup3\n        /* \"#utility.yul\":1354:1372   */\n      add\n        /* \"#utility.yul\":1346:1372   */\n      swap1\n      pop\n        /* \"#utility.yul\":1382:1453   */\n      tag_218\n        /* \"#utility.yul\":1450:1451   */\n      0x00\n        /* \"#utility.yul\":1439:1448   */\n      dup4\n        /* \"#utility.yul\":1435:1452   */\n      add\n        /* \"#utility.yul\":1426:1432   */\n      dup5\n        /* \"#utility.yul\":1382:1453   */\n      tag_130\n      jump\t// in\n    tag_218:\n        /* \"#utility.yul\":1238:1460   */\n      swap3\n      swap2\n      pop\n      pop\n      jump\t// out\n        /* \"#utility.yul\":1466:1583   */\n    tag_131:\n        /* \"#utility.yul\":1575:1576   */\n      0x00\n        /* \"#utility.yul\":1572:1573   */\n      0x00\n        /* \"#utility.yul\":1565:1577   */\n      revert\n        /* \"#utility.yul\":1589:1706   */\n    tag_132:\n        /* \"#utility.yul\":1698:1699   */\n      0x00\n        /* \"#utility.yul\":1695:1696   */\n      0x00\n        /* \"#utility.yul\":1688:1700   */\n      revert\n        /* \"#utility.yul\":1712:1814   */\n    tag_133:\n        /* \"#utility.yul\":1753:1759   */\n      0x00\n        /* \"#utility.yul\":1804:1806   */\n      0x1f\n        /* \"#utility.yul\":1800:1807   */\n      not\n        /* \"#utility.yul\":1795:1797   */\n      0x1f\n        /* \"#utility.yul\":1788:1793   */\n      dup4\n        /* \"#utility.yul\":1784:1798   */\n      add\n        /* \"#utility.yul\":1780:1808   */\n      and\n        /* \"#utility.yul\":1770:1808   */\n      swap1\n      pop\n        /* \"#utility.yul\":1712:1814   */\n      swap2\n      swap1\n      pop\n      jump\t// out\n        /* \"#utility.yul\":1820:2000   */\n    tag_134:\n        /* \"#utility.yul\":1868:1945   */\n      0x4e487b7100000000000000000000000000000000000000000000000000000000\n        /* \"#utility.yul\":1865:1866   */\n      0x00\n        /* \"#utility.yul\":1858:1946   */\n      mstore\n        /* \"#utility.yul\":1965:1969   */\n      0x41\n        /* \"#utility.yul\":1962:1963   */\n      0x04\n        /* \"#utility.yul\":1955:1970   */\n      mstore\n        /* \"#utility.yul\":1989:1993   */\n      0x24\n        /* \"#utility.yul\":1986:1987   */\n      0x00\n        /* \"#utility.yul\":1979:1994   */\n      revert\n        /* \"#utility.yul\":2006:2287   */\n    tag_135:\n        /* \"#utility.yul\":2089:2116   */\n      tag_224\n        /* \"#utility.yul\":2111:2115   */\n      dup3\n        /* \"#utility.yul\":2089:2116   */\n      tag_133\n      jump\t// in\n    tag_224:\n        /* \"#utility.yul\":2081:2087   */\n      dup2\n        /* \"#utility.yul\":2077:2117   */\n      add\n        /* \"#utility.yul\":2219:2225   */\n      dup2\n        /* \"#utility.yul\":2207:2217   */\n      dup2\n        /* \"#utility.yul\":2204:2226   */\n      lt\n        /* \"#utility.yul\":2183:2201   */\n      0xffffffffffffffff\n        /* \"#utility.yul\":2171:2181   */\n      dup3\n        /* \"#utility.yul\":2168:2202   */\n      gt\n        /* \"#utility.yul\":2165:2227   */\n      or\n        /* \"#utility.yul\":2162:2250   */\n      iszero\n      tag_225\n      jumpi\n        /* \"#utility.yul\":2230:2248   */\n      tag_226\n      tag_134\n      jump\t// in\n    tag_226:\n        /* \"#utility.yul\":2162:2250   */\n    tag_225:\n        /* \"#utility.yul\":2270:2280   */\n      dup1\n        /* \"#utility.yul\":2266:2268   */\n      0x40\n        /* \"#utility.yul\":2259:2281   */\n      mstore\n        /* \"#utility.yul\":2049:2287   */\n      pop\n        /* \"#utility.yul\":2006:2287   */\n      pop\n      pop\n      jump\t// out\n        /* \"#utility.yul\":2293:2422   */\n    tag_136:\n        /* \"#utility.yul\":2327:2333   */\n      0x00\n        /* \"#utility.yul\":2354:2374   */\n      tag_228\n      tag_123\n      jump\t// in\n    tag_228:\n        /* \"#utility.yul\":2344:2374   */\n      swap1\n      pop\n        /* \"#utility.yul\":2383:2416   */\n      tag_229\n        /* \"#utility.yul\":2411:2415   */\n      dup3\n        /* \"#utility.yul\":2403:2409   */\n      dup3\n        /* \"#utility.yul\":2383:2416   */\n      tag_135\n      jump\t// in\n    tag_229:\n        /* \"#utility.yul\":2293:2422   */\n      swap2\n      swap1\n      pop\n      jump\t// out\n        /* \"#utility.yul\":2428:2735   */\n    tag_137:\n        /* \"#utility.yul\":2489:2493   */\n      0x00\n        /* \"#utility.yul\":2579:2597   */\n      0xffffffffffffffff\n        /* \"#utility.yul\":2571:2577   */\n      dup3\n        /* \"#utility.yul\":2568:2598   */\n      gt\n        /* \"#utility.yul\":2565:2621   */\n      iszero\n      tag_231\n      jumpi\n        /* \"#utility.yul\":2601:2619   */\n      tag_232\n      tag_134\n      jump\t// in\n    tag_232:\n        /* \"#utility.yul\":2565:2621   */\n    tag_231:\n        /* \"#utility.yul\":2639:2668   */\n      tag_233\n        /* \"#utility.yul\":2661:2667   */\n      dup3\n        /* \"#utility.yul\":2639:2668   */\n      tag_133\n      jump\t// in\n    tag_233:\n        /* \"#utility.yul\":2631:2668   */\n      swap1\n      pop\n        /* \"#utility.yul\":2723:2727   */\n      0x20\n        /* \"#utility.yul\":2717:2721   */\n      dup2\n        /* \"#utility.yul\":2713:2728   */\n      add\n        /* \"#utility.yul\":2705:2728   */\n      swap1\n      pop\n        /* \"#utility.yul\":2428:2735   */\n      swap2\n      swap1\n      pop\n      jump\t// out\n        /* \"#utility.yul\":2741:2889   */\n    tag_138:\n        /* \"#utility.yul\":2839:2845   */\n      dup3\n        /* \"#utility.yul\":2834:2837   */\n      dup2\n        /* \"#utility.yul\":2829:2832   */\n      dup4\n        /* \"#utility.yul\":2816:2846   */\n      calldatacopy\n        /* \"#utility.yul\":2880:2881   */\n      0x00\n        /* \"#utility.yul\":2871:2877   */\n      dup4\n        /* \"#utility.yul\":2866:2869   */\n      dup4\n        /* \"#utility.yul\":2862:2878   */\n      add\n        /* \"#utility.yul\":2855:2882   */\n      mstore\n        /* \"#utility.yul\":2741:2889   */\n      pop\n      pop\n      pop\n      jump\t// out\n        /* \"#utility.yul\":2895:3318   */\n    tag_139:\n        /* \"#utility.yul\":2972:2977   */\n      0x00\n        /* \"#utility.yul\":2997:3062   */\n      tag_236\n        /* \"#utility.yul\":3013:3061   */\n      tag_237\n        /* \"#utility.yul\":3054:3060   */\n      dup5\n        /* \"#utility.yul\":3013:3061   */\n      tag_137\n      jump\t// in\n    tag_237:\n        /* \"#utility.yul\":2997:3062   */\n      tag_136\n      jump\t// in\n    tag_236:\n        /* \"#utility.yul\":2988:3062   */\n      swap1\n      pop\n        /* \"#utility.yul\":3085:3091   */\n      dup3\n        /* \"#utility.yul\":3078:3083   */\n      dup2\n        /* \"#utility.yul\":3071:3092   */\n      mstore\n        /* \"#utility.yul\":3123:3127   */\n      0x20\n        /* \"#utility.yul\":3116:3121   */\n      dup2\n        /* \"#utility.yul\":3112:3128   */\n      add\n        /* \"#utility.yul\":3161:3164   */\n      dup5\n        /* \"#utility.yul\":3152:3158   */\n      dup5\n        /* \"#utility.yul\":3147:3150   */\n      dup5\n        /* \"#utility.yul\":3143:3159   */\n      add\n        /* \"#utility.yul\":3140:3165   */\n      gt\n        /* \"#utility.yul\":3137:3249   */\n      iszero\n      tag_238\n      jumpi\n        /* \"#utility.yul\":3168:3247   */\n      tag_239\n      tag_132\n      jump\t// in\n    tag_239:\n        /* \"#utility.yul\":3137:3249   */\n    tag_238:\n        /* \"#utility.yul\":3258:3312   */\n      tag_240\n        /* \"#utility.yul\":3305:3311   */\n      dup5\n        /* \"#utility.yul\":3300:3303   */\n      dup3\n        /* \"#utility.yul\":3295:3298   */\n      dup6\n        /* \"#utility.yul\":3258:3312   */\n      tag_138\n      jump\t// in\n    tag_240:\n        /* \"#utility.yul\":2978:3318   */\n      pop\n        /* \"#utility.yul\":2895:3318   */\n      swap4\n      swap3\n      pop\n      pop\n      pop\n      jump\t// out\n        /* \"#utility.yul\":3337:3675   */\n    tag_140:\n        /* \"#utility.yul\":3392:3397   */\n      0x00\n        /* \"#utility.yul\":3441:3444   */\n      dup3\n        /* \"#utility.yul\":3434:3438   */\n      0x1f\n        /* \"#utility.yul\":3426:3432   */\n      dup4\n        /* \"#utility.yul\":3422:3439   */\n      add\n        /* \"#utility.yul\":3418:3445   */\n      slt\n        /* \"#utility.yul\":3408:3530   */\n      tag_242\n      jumpi\n        /* \"#utility.yul\":3449:3528   */\n      tag_243\n      tag_131\n      jump\t// in\n    tag_243:\n        /* \"#utility.yul\":3408:3530   */\n    tag_242:\n        /* \"#utility.yul\":3566:3572   */\n      dup2\n        /* \"#utility.yul\":3553:3573   */\n      calldataload\n        /* \"#utility.yul\":3591:3669   */\n      tag_244\n        /* \"#utility.yul\":3665:3668   */\n      dup5\n        /* \"#utility.yul\":3657:3663   */\n      dup3\n        /* \"#utility.yul\":3650:3654   */\n      0x20\n        /* \"#utility.yul\":3642:3648   */\n      dup7\n        /* \"#utility.yul\":3638:3655   */\n      add\n        /* \"#utility.yul\":3591:3669   */\n      tag_139\n      jump\t// in\n    tag_244:\n        /* \"#utility.yul\":3582:3669   */\n      swap2\n      pop\n        /* \"#utility.yul\":3398:3675   */\n      pop\n        /* \"#utility.yul\":3337:3675   */\n      swap3\n      swap2\n      pop\n      pop\n      jump\t// out\n        /* \"#utility.yul\":3681:4001   */\n    tag_141:\n        /* \"#utility.yul\":3767:3771   */\n      0x00\n        /* \"#utility.yul\":3857:3875   */\n      0xffffffffffffffff\n        /* \"#utility.yul\":3849:3855   */\n      dup3\n        /* \"#utility.yul\":3846:3876   */\n      gt\n        /* \"#utility.yul\":3843:3899   */\n      iszero\n      tag_246\n      jumpi\n        /* \"#utility.yul\":3879:3897   */\n      tag_247\n      tag_134\n      jump\t// in\n    tag_247:\n        /* \"#utility.yul\":3843:3899   */\n    tag_246:\n        /* \"#utility.yul\":3929:3933   */\n      0x20\n        /* \"#utility.yul\":3921:3927   */\n      dup3\n        /* \"#utility.yul\":3917:3934   */\n      mul\n        /* \"#utility.yul\":3909:3934   */\n      swap1\n      pop\n        /* \"#utility.yul\":3989:3993   */\n      0x20\n        /* \"#utility.yul\":3983:3987   */\n      dup2\n        /* \"#utility.yul\":3979:3994   */\n      add\n        /* \"#utility.yul\":3971:3994   */\n      swap1\n      pop\n        /* \"#utility.yul\":3681:4001   */\n      swap2\n      swap1\n      pop\n      jump\t// out\n        /* \"#utility.yul\":4007:4124   */\n    tag_142:\n        /* \"#utility.yul\":4116:4117   */\n      0x00\n        /* \"#utility.yul\":4113:4114   */\n      0x00\n        /* \"#utility.yul\":4106:4118   */\n      revert\n        /* \"#utility.yul\":4145:5087   */\n    tag_143:\n        /* \"#utility.yul\":4250:4255   */\n      0x00\n        /* \"#utility.yul\":4275:4365   */\n      tag_250\n        /* \"#utility.yul\":4291:4364   */\n      tag_251\n        /* \"#utility.yul\":4357:4363   */\n      dup5\n        /* \"#utility.yul\":4291:4364   */\n      tag_141\n      jump\t// in\n    tag_251:\n        /* \"#utility.yul\":4275:4365   */\n      tag_136\n      jump\t// in\n    tag_250:\n        /* \"#utility.yul\":4266:4365   */\n      swap1\n      pop\n        /* \"#utility.yul\":4385:4390   */\n      dup1\n        /* \"#utility.yul\":4414:4420   */\n      dup4\n        /* \"#utility.yul\":4407:4412   */\n      dup3\n        /* \"#utility.yul\":4400:4421   */\n      mstore\n        /* \"#utility.yul\":4448:4452   */\n      0x20\n        /* \"#utility.yul\":4441:4446   */\n      dup3\n        /* \"#utility.yul\":4437:4453   */\n      add\n        /* \"#utility.yul\":4430:4453   */\n      swap1\n      pop\n        /* \"#utility.yul\":4501:4505   */\n      0x20\n        /* \"#utility.yul\":4493:4499   */\n      dup5\n        /* \"#utility.yul\":4489:4506   */\n      mul\n        /* \"#utility.yul\":4481:4487   */\n      dup4\n        /* \"#utility.yul\":4477:4507   */\n      add\n        /* \"#utility.yul\":4530:4533   */\n      dup6\n        /* \"#utility.yul\":4522:4528   */\n      dup2\n        /* \"#utility.yul\":4519:4534   */\n      gt\n        /* \"#utility.yul\":4516:4638   */\n      iszero\n      tag_252\n      jumpi\n        /* \"#utility.yul\":4549:4628   */\n      tag_253\n      tag_142\n      jump\t// in\n    tag_253:\n        /* \"#utility.yul\":4516:4638   */\n    tag_252:\n        /* \"#utility.yul\":4664:4670   */\n      dup4\n        /* \"#utility.yul\":4647:5081   */\n    tag_254:\n        /* \"#utility.yul\":4681:4687   */\n      dup2\n        /* \"#utility.yul\":4676:4679   */\n      dup2\n        /* \"#utility.yul\":4673:4688   */\n      lt\n        /* \"#utility.yul\":4647:5081   */\n      iszero\n      tag_256\n      jumpi\n        /* \"#utility.yul\":4770:4773   */\n      dup1\n        /* \"#utility.yul\":4757:4774   */\n      calldataload\n        /* \"#utility.yul\":4806:4824   */\n      0xffffffffffffffff\n        /* \"#utility.yul\":4793:4804   */\n      dup2\n        /* \"#utility.yul\":4790:4825   */\n      gt\n        /* \"#utility.yul\":4787:4909   */\n      iszero\n      tag_257\n      jumpi\n        /* \"#utility.yul\":4828:4907   */\n      tag_258\n      tag_131\n      jump\t// in\n    tag_258:\n        /* \"#utility.yul\":4787:4909   */\n    tag_257:\n        /* \"#utility.yul\":4952:4963   */\n      dup1\n        /* \"#utility.yul\":4944:4950   */\n      dup7\n        /* \"#utility.yul\":4940:4964   */\n      add\n        /* \"#utility.yul\":4990:5036   */\n      tag_259\n        /* \"#utility.yul\":5032:5035   */\n      dup10\n        /* \"#utility.yul\":5020:5030   */\n      dup3\n        /* \"#utility.yul\":4990:5036   */\n      tag_140\n      jump\t// in\n    tag_259:\n        /* \"#utility.yul\":4985:4988   */\n      dup6\n        /* \"#utility.yul\":4978:5037   */\n      mstore\n        /* \"#utility.yul\":5066:5070   */\n      0x20\n        /* \"#utility.yul\":5061:5064   */\n      dup6\n        /* \"#utility.yul\":5057:5071   */\n      add\n        /* \"#utility.yul\":5050:5071   */\n      swap5\n      pop\n        /* \"#utility.yul\":4723:5081   */\n      pop\n      pop\n        /* \"#utility.yul\":4707:4711   */\n      0x20\n        /* \"#utility.yul\":4702:4705   */\n      dup2\n        /* \"#utility.yul\":4698:4712   */\n      add\n        /* \"#utility.yul\":4691:4712   */\n      swap1\n      pop\n        /* \"#utility.yul\":4647:5081   */\n      jump(tag_254)\n    tag_256:\n        /* \"#utility.yul\":4651:4672   */\n      pop\n        /* \"#utility.yul\":4256:5087   */\n      pop\n      pop\n        /* \"#utility.yul\":4145:5087   */\n      swap4\n      swap3\n      pop\n      pop\n      pop\n      jump\t// out\n        /* \"#utility.yul\":5108:5496   */\n    tag_144:\n        /* \"#utility.yul\":5188:5193   */\n      0x00\n        /* \"#utility.yul\":5237:5240   */\n      dup3\n        /* \"#utility.yul\":5230:5234   */\n      0x1f\n        /* \"#utility.yul\":5222:5228   */\n      dup4\n        /* \"#utility.yul\":5218:5235   */\n      add\n        /* \"#utility.yul\":5214:5241   */\n      slt\n        /* \"#utility.yul\":5204:5326   */\n      tag_261\n      jumpi\n        /* \"#utility.yul\":5245:5324   */\n      tag_262\n      tag_131\n      jump\t// in\n    tag_262:\n        /* \"#utility.yul\":5204:5326   */\n    tag_261:\n        /* \"#utility.yul\":5362:5368   */\n      dup2\n        /* \"#utility.yul\":5349:5369   */\n      calldataload\n        /* \"#utility.yul\":5387:5490   */\n      tag_263\n        /* \"#utility.yul\":5486:5489   */\n      dup5\n        /* \"#utility.yul\":5478:5484   */\n      dup3\n        /* \"#utility.yul\":5471:5475   */\n      0x20\n        /* \"#utility.yul\":5463:5469   */\n      dup7\n        /* \"#utility.yul\":5459:5476   */\n      add\n        /* \"#utility.yul\":5387:5490   */\n      tag_143\n      jump\t// in\n    tag_263:\n        /* \"#utility.yul\":5378:5490   */\n      swap2\n      pop\n        /* \"#utility.yul\":5194:5496   */\n      pop\n        /* \"#utility.yul\":5108:5496   */\n      swap3\n      swap2\n      pop\n      pop\n      jump\t// out\n        /* \"#utility.yul\":5502:5579   */\n    tag_145:\n        /* \"#utility.yul\":5539:5546   */\n      0x00\n        /* \"#utility.yul\":5568:5573   */\n      dup2\n        /* \"#utility.yul\":5557:5573   */\n      swap1\n      pop\n        /* \"#utility.yul\":5502:5579   */\n      swap2\n      swap1\n      pop\n      jump\t// out\n        /* \"#utility.yul\":5585:5707   */\n    tag_146:\n        /* \"#utility.yul\":5658:5682   */\n      tag_266\n        /* \"#utility.yul\":5676:5681   */\n      dup2\n        /* \"#utility.yul\":5658:5682   */\n      tag_145\n      jump\t// in\n    tag_266:\n        /* \"#utility.yul\":5651:5656   */\n      dup2\n        /* \"#utility.yul\":5648:5683   */\n      eq\n        /* \"#utility.yul\":5638:5701   */\n      tag_267\n      jumpi\n        /* \"#utility.yul\":5697:5698   */\n      0x00\n        /* \"#utility.yul\":5694:5695   */\n      0x00\n        /* \"#utility.yul\":5687:5699   */\n      revert\n        /* \"#utility.yul\":5638:5701   */\n    tag_267:\n        /* \"#utility.yul\":5585:5707   */\n      pop\n      jump\t// out\n        /* \"#utility.yul\":5713:5852   */\n    tag_147:\n        /* \"#utility.yul\":5759:5764   */\n      0x00\n        /* \"#utility.yul\":5797:5803   */\n      dup2\n        /* \"#utility.yul\":5784:5804   */\n      calldataload\n        /* \"#utility.yul\":5775:5804   */\n      swap1\n      pop\n        /* \"#utility.yul\":5813:5846   */\n      tag_269\n        /* \"#utility.yul\":5840:5845   */\n      dup2\n        /* \"#utility.yul\":5813:5846   */\n      tag_146\n      jump\t// in\n    tag_269:\n        /* \"#utility.yul\":5713:5852   */\n      swap3\n      swap2\n      pop\n      pop\n      jump\t// out\n        /* \"#utility.yul\":5858:7173   */\n    tag_22:\n        /* \"#utility.yul\":5995:6001   */\n      0x00\n        /* \"#utility.yul\":6003:6009   */\n      0x00\n        /* \"#utility.yul\":6011:6017   */\n      0x00\n        /* \"#utility.yul\":6019:6025   */\n      0x00\n        /* \"#utility.yul\":6027:6033   */\n      0x00\n        /* \"#utility.yul\":6076:6079   */\n      0xa0\n        /* \"#utility.yul\":6064:6073   */\n      dup7\n        /* \"#utility.yul\":6055:6062   */\n      dup9\n        /* \"#utility.yul\":6051:6074   */\n      sub\n        /* \"#utility.yul\":6047:6080   */\n      slt\n        /* \"#utility.yul\":6044:6164   */\n      iszero\n      tag_271\n      jumpi\n        /* \"#utility.yul\":6083:6162   */\n      tag_272\n      tag_124\n      jump\t// in\n    tag_272:\n        /* \"#utility.yul\":6044:6164   */\n    tag_271:\n        /* \"#utility.yul\":6231:6232   */\n      0x00\n        /* \"#utility.yul\":6220:6229   */\n      dup7\n        /* \"#utility.yul\":6216:6233   */\n      add\n        /* \"#utility.yul\":6203:6234   */\n      calldataload\n        /* \"#utility.yul\":6261:6279   */\n      0xffffffffffffffff\n        /* \"#utility.yul\":6253:6259   */\n      dup2\n        /* \"#utility.yul\":6250:6280   */\n      gt\n        /* \"#utility.yul\":6247:6364   */\n      iszero\n      tag_273\n      jumpi\n        /* \"#utility.yul\":6283:6362   */\n      tag_274\n      tag_125\n      jump\t// in\n    tag_274:\n        /* \"#utility.yul\":6247:6364   */\n    tag_273:\n        /* \"#utility.yul\":6388:6450   */\n      tag_275\n        /* \"#utility.yul\":6442:6449   */\n      dup9\n        /* \"#utility.yul\":6433:6439   */\n      dup3\n        /* \"#utility.yul\":6422:6431   */\n      dup10\n        /* \"#utility.yul\":6418:6440   */\n      add\n        /* \"#utility.yul\":6388:6450   */\n      tag_140\n      jump\t// in\n    tag_275:\n        /* \"#utility.yul\":6378:6450   */\n      swap6\n      pop\n        /* \"#utility.yul\":6174:6460   */\n      pop\n        /* \"#utility.yul\":6527:6529   */\n      0x20\n        /* \"#utility.yul\":6516:6525   */\n      dup7\n        /* \"#utility.yul\":6512:6530   */\n      add\n        /* \"#utility.yul\":6499:6531   */\n      calldataload\n        /* \"#utility.yul\":6558:6576   */\n      0xffffffffffffffff\n        /* \"#utility.yul\":6550:6556   */\n      dup2\n        /* \"#utility.yul\":6547:6577   */\n      gt\n        /* \"#utility.yul\":6544:6661   */\n      iszero\n      tag_276\n      jumpi\n        /* \"#utility.yul\":6580:6659   */\n      tag_277\n      tag_125\n      jump\t// in\n    tag_277:\n        /* \"#utility.yul\":6544:6661   */\n    tag_276:\n        /* \"#utility.yul\":6685:6772   */\n      tag_278\n        /* \"#utility.yul\":6764:6771   */\n      dup9\n        /* \"#utility.yul\":6755:6761   */\n      dup3\n        /* \"#utility.yul\":6744:6753   */\n      dup10\n        /* \"#utility.yul\":6740:6762   */\n      add\n        /* \"#utility.yul\":6685:6772   */\n      tag_144\n      jump\t// in\n    tag_278:\n        /* \"#utility.yul\":6675:6772   */\n      swap5\n      pop\n        /* \"#utility.yul\":6470:6782   */\n      pop\n        /* \"#utility.yul\":6821:6823   */\n      0x40\n        /* \"#utility.yul\":6847:6900   */\n      tag_279\n        /* \"#utility.yul\":6892:6899   */\n      dup9\n        /* \"#utility.yul\":6883:6889   */\n      dup3\n        /* \"#utility.yul\":6872:6881   */\n      dup10\n        /* \"#utility.yul\":6868:6890   */\n      add\n        /* \"#utility.yul\":6847:6900   */\n      tag_147\n      jump\t// in\n    tag_279:\n        /* \"#utility.yul\":6837:6900   */\n      swap4\n      pop\n        /* \"#utility.yul\":6792:6910   */\n      pop\n        /* \"#utility.yul\":6949:6951   */\n      0x60\n        /* \"#utility.yul\":6975:7027   */\n      tag_280\n        /* \"#utility.yul\":7019:7026   */\n      dup9\n        /* \"#utility.yul\":7010:7016   */\n      dup3\n        /* \"#utility.yul\":6999:7008   */\n      dup10\n        /* \"#utility.yul\":6995:7017   */\n      add\n        /* \"#utility.yul\":6975:7027   */\n      tag_128\n      jump\t// in\n    tag_280:\n        /* \"#utility.yul\":6965:7027   */\n      swap3\n      pop\n        /* \"#utility.yul\":6920:7037   */\n      pop\n        /* \"#utility.yul\":7076:7079   */\n      0x80\n        /* \"#utility.yul\":7103:7156   */\n      tag_281\n        /* \"#utility.yul\":7148:7155   */\n      dup9\n        /* \"#utility.yul\":7139:7145   */\n      dup3\n        /* \"#utility.yul\":7128:7137   */\n      dup10\n        /* \"#utility.yul\":7124:7146   */\n      add\n        /* \"#utility.yul\":7103:7156   */\n      tag_147\n      jump\t// in\n    tag_281:\n        /* \"#utility.yul\":7093:7156   */\n      swap2\n      pop\n        /* \"#utility.yul\":7047:7166   */\n      pop\n        /* \"#utility.yul\":5858:7173   */\n      swap3\n      swap6\n      pop\n      swap3\n      swap6\n      swap1\n      swap4\n      pop\n      jump\t// out\n        /* \"#utility.yul\":7179:7305   */\n    tag_148:\n        /* \"#utility.yul\":7216:7223   */\n      0x00\n        /* \"#utility.yul\":7256:7298   */\n      0xffffffffffffffffffffffffffffffffffffffff\n        /* \"#utility.yul\":7249:7254   */\n      dup3\n        /* \"#utility.yul\":7245:7299   */\n      and\n        /* \"#utility.yul\":7234:7299   */\n      swap1\n      pop\n        /* \"#utility.yul\":7179:7305   */\n      swap2\n      swap1\n      pop\n      jump\t// out\n        /* \"#utility.yul\":7311:7407   */\n    tag_149:\n        /* \"#utility.yul\":7348:7355   */\n      0x00\n        /* \"#utility.yul\":7377:7401   */\n      tag_284\n        /* \"#utility.yul\":7395:7400   */\n      dup3\n        /* \"#utility.yul\":7377:7401   */\n      tag_148\n      jump\t// in\n    tag_284:\n        /* \"#utility.yul\":7366:7401   */\n      swap1\n      pop\n        /* \"#utility.yul\":7311:7407   */\n      swap2\n      swap1\n      pop\n      jump\t// out\n        /* \"#utility.yul\":7413:7531   */\n    tag_150:\n        /* \"#utility.yul\":7500:7524   */\n      tag_286\n        /* \"#utility.yul\":7518:7523   */\n      dup2\n        /* \"#utility.yul\":7500:7524   */\n      tag_149\n      jump\t// in\n    tag_286:\n        /* \"#utility.yul\":7495:7498   */\n      dup3\n        /* \"#utility.yul\":7488:7525   */\n      mstore\n        /* \"#utility.yul\":7413:7531   */\n      pop\n      pop\n      jump\t// out\n        /* \"#utility.yul\":7537:7759   */\n    tag_31:\n        /* \"#utility.yul\":7630:7634   */\n      0x00\n        /* \"#utility.yul\":7668:7670   */\n      0x20\n        /* \"#utility.yul\":7657:7666   */\n      dup3\n        /* \"#utility.yul\":7653:7671   */\n      add\n        /* \"#utility.yul\":7645:7671   */\n      swap1\n      pop\n        /* \"#utility.yul\":7681:7752   */\n      tag_288\n        /* \"#utility.yul\":7749:7750   */\n      0x00\n        /* \"#utility.yul\":7738:7747   */\n      dup4\n        /* \"#utility.yul\":7734:7751   */\n      add\n        /* \"#utility.yul\":7725:7731   */\n      dup5\n        /* \"#utility.yul\":7681:7752   */\n      tag_150\n      jump\t// in\n    tag_288:\n        /* \"#utility.yul\":7537:7759   */\n      swap3\n      swap2\n      pop\n      pop\n      jump\t// out\n        /* \"#utility.yul\":7765:7864   */\n    tag_151:\n        /* \"#utility.yul\":7817:7823   */\n      0x00\n        /* \"#utility.yul\":7851:7856   */\n      dup2\n        /* \"#utility.yul\":7845:7857   */\n      mload\n        /* \"#utility.yul\":7835:7857   */\n      swap1\n      pop\n        /* \"#utility.yul\":7765:7864   */\n      swap2\n      swap1\n      pop\n      jump\t// out\n        /* \"#utility.yul\":7870:8039   */\n    tag_152:\n        /* \"#utility.yul\":7954:7965   */\n      0x00\n        /* \"#utility.yul\":7988:7994   */\n      dup3\n        /* \"#utility.yul\":7983:7986   */\n      dup3\n        /* \"#utility.yul\":7976:7995   */\n      mstore\n        /* \"#utility.yul\":8028:8032   */\n      0x20\n        /* \"#utility.yul\":8023:8026   */\n      dup3\n        /* \"#utility.yul\":8019:8033   */\n      add\n        /* \"#utility.yul\":8004:8033   */\n      swap1\n      pop\n        /* \"#utility.yul\":7870:8039   */\n      swap3\n      swap2\n      pop\n      pop\n      jump\t// out\n        /* \"#utility.yul\":8045:8184   */\n    tag_153:\n        /* \"#utility.yul\":8134:8140   */\n      dup3\n        /* \"#utility.yul\":8129:8132   */\n      dup2\n        /* \"#utility.yul\":8124:8127   */\n      dup4\n        /* \"#utility.yul\":8118:8141   */\n      mcopy\n        /* \"#utility.yul\":8175:8176   */\n      0x00\n        /* \"#utility.yul\":8166:8172   */\n      dup4\n        /* \"#utility.yul\":8161:8164   */\n      dup4\n        /* \"#utility.yul\":8157:8173   */\n      add\n        /* \"#utility.yul\":8150:8177   */\n      mstore\n        /* \"#utility.yul\":8045:8184   */\n      pop\n      pop\n      pop\n      jump\t// out\n        /* \"#utility.yul\":8190:8567   */\n    tag_154:\n        /* \"#utility.yul\":8278:8281   */\n      0x00\n        /* \"#utility.yul\":8306:8345   */\n      tag_293\n        /* \"#utility.yul\":8339:8344   */\n      dup3\n        /* \"#utility.yul\":8306:8345   */\n      tag_151\n      jump\t// in\n    tag_293:\n        /* \"#utility.yul\":8361:8432   */\n      tag_294\n        /* \"#utility.yul\":8425:8431   */\n      dup2\n        /* \"#utility.yul\":8420:8423   */\n      dup6\n        /* \"#utility.yul\":8361:8432   */\n      tag_152\n      jump\t// in\n    tag_294:\n        /* \"#utility.yul\":8354:8432   */\n      swap4\n      pop\n        /* \"#utility.yul\":8441:8506   */\n      tag_295\n        /* \"#utility.yul\":8499:8505   */\n      dup2\n        /* \"#utility.yul\":8494:8497   */\n      dup6\n        /* \"#utility.yul\":8487:8491   */\n      0x20\n        /* \"#utility.yul\":8480:8485   */\n      dup7\n        /* \"#utility.yul\":8476:8492   */\n      add\n        /* \"#utility.yul\":8441:8506   */\n      tag_153\n      jump\t// in\n    tag_295:\n        /* \"#utility.yul\":8531:8560   */\n      tag_296\n        /* \"#utility.yul\":8553:8559   */\n      dup2\n        /* \"#utility.yul\":8531:8560   */\n      tag_133\n      jump\t// in\n    tag_296:\n        /* \"#utility.yul\":8526:8529   */\n      dup5\n        /* \"#utility.yul\":8522:8561   */\n      add\n        /* \"#utility.yul\":8515:8561   */\n      swap2\n      pop\n        /* \"#utility.yul\":8282:8567   */\n      pop\n        /* \"#utility.yul\":8190:8567   */\n      swap3\n      swap2\n      pop\n      pop\n      jump\t// out\n        /* \"#utility.yul\":8573:8886   */\n    tag_36:\n        /* \"#utility.yul\":8686:8690   */\n      0x00\n        /* \"#utility.yul\":8724:8726   */\n      0x20\n        /* \"#utility.yul\":8713:8722   */\n      dup3\n        /* \"#utility.yul\":8709:8727   */\n      add\n        /* \"#utility.yul\":8701:8727   */\n      swap1\n      pop\n        /* \"#utility.yul\":8773:8782   */\n      dup2\n        /* \"#utility.yul\":8767:8771   */\n      dup2\n        /* \"#utility.yul\":8763:8783   */\n      sub\n        /* \"#utility.yul\":8759:8760   */\n      0x00\n        /* \"#utility.yul\":8748:8757   */\n      dup4\n        /* \"#utility.yul\":8744:8761   */\n      add\n        /* \"#utility.yul\":8737:8784   */\n      mstore\n        /* \"#utility.yul\":8801:8879   */\n      tag_298\n        /* \"#utility.yul\":8874:8878   */\n      dup2\n        /* \"#utility.yul\":8865:8871   */\n      dup5\n        /* \"#utility.yul\":8801:8879   */\n      tag_154\n      jump\t// in\n    tag_298:\n        /* \"#utility.yul\":8793:8879   */\n      swap1\n      pop\n        /* \"#utility.yul\":8573:8886   */\n      swap3\n      swap2\n      pop\n      pop\n      jump\t// out\n        /* \"#utility.yul\":8892:9014   */\n    tag_155:\n        /* \"#utility.yul\":8965:8989   */\n      tag_300\n        /* \"#utility.yul\":8983:8988   */\n      dup2\n        /* \"#utility.yul\":8965:8989   */\n      tag_149\n      jump\t// in\n    tag_300:\n        /* \"#utility.yul\":8958:8963   */\n      dup2\n        /* \"#utility.yul\":8955:8990   */\n      eq\n        /* \"#utility.yul\":8945:9008   */\n      tag_301\n      jumpi\n        /* \"#utility.yul\":9004:9005   */\n      0x00\n        /* \"#utility.yul\":9001:9002   */\n      0x00\n        /* \"#utility.yul\":8994:9006   */\n      revert\n        /* \"#utility.yul\":8945:9008   */\n    tag_301:\n        /* \"#utility.yul\":8892:9014   */\n      pop\n      jump\t// out\n        /* \"#utility.yul\":9020:9159   */\n    tag_156:\n        /* \"#utility.yul\":9066:9071   */\n      0x00\n        /* \"#utility.yul\":9104:9110   */\n      dup2\n        /* \"#utility.yul\":9091:9111   */\n      calldataload\n        /* \"#utility.yul\":9082:9111   */\n      swap1\n      pop\n        /* \"#utility.yul\":9120:9153   */\n      tag_303\n        /* \"#utility.yul\":9147:9152   */\n      dup2\n        /* \"#utility.yul\":9120:9153   */\n      tag_155\n      jump\t// in\n    tag_303:\n        /* \"#utility.yul\":9020:9159   */\n      swap3\n      swap2\n      pop\n      pop\n      jump\t// out\n        /* \"#utility.yul\":9165:9473   */\n    tag_157:\n        /* \"#utility.yul\":9227:9231   */\n      0x00\n        /* \"#utility.yul\":9317:9335   */\n      0xffffffffffffffff\n        /* \"#utility.yul\":9309:9315   */\n      dup3\n        /* \"#utility.yul\":9306:9336   */\n      gt\n        /* \"#utility.yul\":9303:9359   */\n      iszero\n      tag_305\n      jumpi\n        /* \"#utility.yul\":9339:9357   */\n      tag_306\n      tag_134\n      jump\t// in\n    tag_306:\n        /* \"#utility.yul\":9303:9359   */\n    tag_305:\n        /* \"#utility.yul\":9377:9406   */\n      tag_307\n        /* \"#utility.yul\":9399:9405   */\n      dup3\n        /* \"#utility.yul\":9377:9406   */\n      tag_133\n      jump\t// in\n    tag_307:\n        /* \"#utility.yul\":9369:9406   */\n      swap1\n      pop\n        /* \"#utility.yul\":9461:9465   */\n      0x20\n        /* \"#utility.yul\":9455:9459   */\n      dup2\n        /* \"#utility.yul\":9451:9466   */\n      add\n        /* \"#utility.yul\":9443:9466   */\n      swap1\n      pop\n        /* \"#utility.yul\":9165:9473   */\n      swap2\n      swap1\n      pop\n      jump\t// out\n        /* \"#utility.yul\":9479:9904   */\n    tag_158:\n        /* \"#utility.yul\":9557:9562   */\n      0x00\n        /* \"#utility.yul\":9582:9648   */\n      tag_309\n        /* \"#utility.yul\":9598:9647   */\n      tag_310\n        /* \"#utility.yul\":9640:9646   */\n      dup5\n        /* \"#utility.yul\":9598:9647   */\n      tag_157\n      jump\t// in\n    tag_310:\n        /* \"#utility.yul\":9582:9648   */\n      tag_136\n      jump\t// in\n    tag_309:\n        /* \"#utility.yul\":9573:9648   */\n      swap1\n      pop\n        /* \"#utility.yul\":9671:9677   */\n      dup3\n        /* \"#utility.yul\":9664:9669   */\n      dup2\n        /* \"#utility.yul\":9657:9678   */\n      mstore\n        /* \"#utility.yul\":9709:9713   */\n      0x20\n        /* \"#utility.yul\":9702:9707   */\n      dup2\n        /* \"#utility.yul\":9698:9714   */\n      add\n        /* \"#utility.yul\":9747:9750   */\n      dup5\n        /* \"#utility.yul\":9738:9744   */\n      dup5\n        /* \"#utility.yul\":9733:9736   */\n      dup5\n        /* \"#utility.yul\":9729:9745   */\n      add\n        /* \"#utility.yul\":9726:9751   */\n      gt\n        /* \"#utility.yul\":9723:9835   */\n      iszero\n      tag_311\n      jumpi\n        /* \"#utility.yul\":9754:9833   */\n      tag_312\n      tag_132\n      jump\t// in\n    tag_312:\n        /* \"#utility.yul\":9723:9835   */\n    tag_311:\n        /* \"#utility.yul\":9844:9898   */\n      tag_313\n        /* \"#utility.yul\":9891:9897   */\n      dup5\n        /* \"#utility.yul\":9886:9889   */\n      dup3\n        /* \"#utility.yul\":9881:9884   */\n      dup6\n        /* \"#utility.yul\":9844:9898   */\n      tag_138\n      jump\t// in\n    tag_313:\n        /* \"#utility.yul\":9563:9904   */\n      pop\n        /* \"#utility.yul\":9479:9904   */\n      swap4\n      swap3\n      pop\n      pop\n      pop\n      jump\t// out\n        /* \"#utility.yul\":9924:10264   */\n    tag_159:\n        /* \"#utility.yul\":9980:9985   */\n      0x00\n        /* \"#utility.yul\":10029:10032   */\n      dup3\n        /* \"#utility.yul\":10022:10026   */\n      0x1f\n        /* \"#utility.yul\":10014:10020   */\n      dup4\n        /* \"#utility.yul\":10010:10027   */\n      add\n        /* \"#utility.yul\":10006:10033   */\n      slt\n        /* \"#utility.yul\":9996:10118   */\n      tag_315\n      jumpi\n        /* \"#utility.yul\":10037:10116   */\n      tag_316\n      tag_131\n      jump\t// in\n    tag_316:\n        /* \"#utility.yul\":9996:10118   */\n    tag_315:\n        /* \"#utility.yul\":10154:10160   */\n      dup2\n        /* \"#utility.yul\":10141:10161   */\n      calldataload\n        /* \"#utility.yul\":10179:10258   */\n      tag_317\n        /* \"#utility.yul\":10254:10257   */\n      dup5\n        /* \"#utility.yul\":10246:10252   */\n      dup3\n        /* \"#utility.yul\":10239:10243   */\n      0x20\n        /* \"#utility.yul\":10231:10237   */\n      dup7\n        /* \"#utility.yul\":10227:10244   */\n      add\n        /* \"#utility.yul\":10179:10258   */\n      tag_158\n      jump\t// in\n    tag_317:\n        /* \"#utility.yul\":10170:10258   */\n      swap2\n      pop\n        /* \"#utility.yul\":9986:10264   */\n      pop\n        /* \"#utility.yul\":9924:10264   */\n      swap3\n      swap2\n      pop\n      pop\n      jump\t// out\n        /* \"#utility.yul\":10270:11067   */\n    tag_39:\n        /* \"#utility.yul\":10356:10362   */\n      0x00\n        /* \"#utility.yul\":10364:10370   */\n      0x00\n        /* \"#utility.yul\":10372:10378   */\n      0x00\n        /* \"#utility.yul\":10421:10423   */\n      0x60\n        /* \"#utility.yul\":10409:10418   */\n      dup5\n        /* \"#utility.yul\":10400:10407   */\n      dup7\n        /* \"#utility.yul\":10396:10419   */\n      sub\n        /* \"#utility.yul\":10392:10424   */\n      slt\n        /* \"#utility.yul\":10389:10508   */\n      iszero\n      tag_319\n      jumpi\n        /* \"#utility.yul\":10427:10506   */\n      tag_320\n      tag_124\n      jump\t// in\n    tag_320:\n        /* \"#utility.yul\":10389:10508   */\n    tag_319:\n        /* \"#utility.yul\":10547:10548   */\n      0x00\n        /* \"#utility.yul\":10572:10624   */\n      tag_321\n        /* \"#utility.yul\":10616:10623   */\n      dup7\n        /* \"#utility.yul\":10607:10613   */\n      dup3\n        /* \"#utility.yul\":10596:10605   */\n      dup8\n        /* \"#utility.yul\":10592:10614   */\n      add\n        /* \"#utility.yul\":10572:10624   */\n      tag_128\n      jump\t// in\n    tag_321:\n        /* \"#utility.yul\":10562:10624   */\n      swap4\n      pop\n        /* \"#utility.yul\":10518:10634   */\n      pop\n        /* \"#utility.yul\":10673:10675   */\n      0x20\n        /* \"#utility.yul\":10699:10752   */\n      tag_322\n        /* \"#utility.yul\":10744:10751   */\n      dup7\n        /* \"#utility.yul\":10735:10741   */\n      dup3\n        /* \"#utility.yul\":10724:10733   */\n      dup8\n        /* \"#utility.yul\":10720:10742   */\n      add\n        /* \"#utility.yul\":10699:10752   */\n      tag_156\n      jump\t// in\n    tag_322:\n        /* \"#utility.yul\":10689:10752   */\n      swap3\n      pop\n        /* \"#utility.yul\":10644:10762   */\n      pop\n        /* \"#utility.yul\":10829:10831   */\n      0x40\n        /* \"#utility.yul\":10818:10827   */\n      dup5\n        /* \"#utility.yul\":10814:10832   */\n      add\n        /* \"#utility.yul\":10801:10833   */\n      calldataload\n        /* \"#utility.yul\":10860:10878   */\n      0xffffffffffffffff\n        /* \"#utility.yul\":10852:10858   */\n      dup2\n        /* \"#utility.yul\":10849:10879   */\n      gt\n        /* \"#utility.yul\":10846:10963   */\n      iszero\n      tag_323\n      jumpi\n        /* \"#utility.yul\":10882:10961   */\n      tag_324\n      tag_125\n      jump\t// in\n    tag_324:\n        /* \"#utility.yul\":10846:10963   */\n    tag_323:\n        /* \"#utility.yul\":10987:11050   */\n      tag_325\n        /* \"#utility.yul\":11042:11049   */\n      dup7\n        /* \"#utility.yul\":11033:11039   */\n      dup3\n        /* \"#utility.yul\":11022:11031   */\n      dup8\n        /* \"#utility.yul\":11018:11040   */\n      add\n        /* \"#utility.yul\":10987:11050   */\n      tag_159\n      jump\t// in\n    tag_325:\n        /* \"#utility.yul\":10977:11050   */\n      swap2\n      pop\n        /* \"#utility.yul\":10772:11060   */\n      pop\n        /* \"#utility.yul\":10270:11067   */\n      swap3\n      pop\n      swap3\n      pop\n      swap3\n      jump\t// out\n        /* \"#utility.yul\":11073:11545   */\n    tag_44:\n        /* \"#utility.yul\":11140:11146   */\n      0x00\n        /* \"#utility.yul\":11148:11154   */\n      0x00\n        /* \"#utility.yul\":11197:11199   */\n      0x40\n        /* \"#utility.yul\":11185:11194   */\n      dup4\n        /* \"#utility.yul\":11176:11183   */\n      dup6\n        /* \"#utility.yul\":11172:11195   */\n      sub\n        /* \"#utility.yul\":11168:11200   */\n      slt\n        /* \"#utility.yul\":11165:11284   */\n      iszero\n      tag_327\n      jumpi\n        /* \"#utility.yul\":11203:11282   */\n      tag_328\n      tag_124\n      jump\t// in\n    tag_328:\n        /* \"#utility.yul\":11165:11284   */\n    tag_327:\n        /* \"#utility.yul\":11323:11324   */\n      0x00\n        /* \"#utility.yul\":11348:11400   */\n      tag_329\n        /* \"#utility.yul\":11392:11399   */\n      dup6\n        /* \"#utility.yul\":11383:11389   */\n      dup3\n        /* \"#utility.yul\":11372:11381   */\n      dup7\n        /* \"#utility.yul\":11368:11390   */\n      add\n        /* \"#utility.yul\":11348:11400   */\n      tag_128\n      jump\t// in\n    tag_329:\n        /* \"#utility.yul\":11338:11400   */\n      swap3\n      pop\n        /* \"#utility.yul\":11294:11410   */\n      pop\n        /* \"#utility.yul\":11449:11451   */\n      0x20\n        /* \"#utility.yul\":11475:11528   */\n      tag_330\n        /* \"#utility.yul\":11520:11527   */\n      dup6\n        /* \"#utility.yul\":11511:11517   */\n      dup3\n        /* \"#utility.yul\":11500:11509   */\n      dup7\n        /* \"#utility.yul\":11496:11518   */\n      add\n        /* \"#utility.yul\":11475:11528   */\n      tag_156\n      jump\t// in\n    tag_330:\n        /* \"#utility.yul\":11465:11528   */\n      swap2\n      pop\n        /* \"#utility.yul\":11420:11538   */\n      pop\n        /* \"#utility.yul\":11073:11545   */\n      swap3\n      pop\n      swap3\n      swap1\n      pop\n      jump\t// out\n        /* \"#utility.yul\":11551:11666   */\n    tag_160:\n        /* \"#utility.yul\":11636:11659   */\n      tag_332\n        /* \"#utility.yul\":11653:11658   */\n      dup2\n        /* \"#utility.yul\":11636:11659   */\n      tag_126\n      jump\t// in\n    tag_332:\n        /* \"#utility.yul\":11631:11634   */\n      dup3\n        /* \"#utility.yul\":11624:11660   */\n      mstore\n        /* \"#utility.yul\":11551:11666   */\n      pop\n      pop\n      jump\t// out\n        /* \"#utility.yul\":11672:11890   */\n    tag_50:\n        /* \"#utility.yul\":11763:11767   */\n      0x00\n        /* \"#utility.yul\":11801:11803   */\n      0x20\n        /* \"#utility.yul\":11790:11799   */\n      dup3\n        /* \"#utility.yul\":11786:11804   */\n      add\n        /* \"#utility.yul\":11778:11804   */\n      swap1\n      pop\n        /* \"#utility.yul\":11814:11883   */\n      tag_334\n        /* \"#utility.yul\":11880:11881   */\n      0x00\n        /* \"#utility.yul\":11869:11878   */\n      dup4\n        /* \"#utility.yul\":11865:11882   */\n      add\n        /* \"#utility.yul\":11856:11862   */\n      dup5\n        /* \"#utility.yul\":11814:11883   */\n      tag_160\n      jump\t// in\n    tag_334:\n        /* \"#utility.yul\":11672:11890   */\n      swap3\n      swap2\n      pop\n      pop\n      jump\t// out\n        /* \"#utility.yul\":11896:11956   */\n    tag_161:\n        /* \"#utility.yul\":11924:11927   */\n      0x00\n        /* \"#utility.yul\":11945:11950   */\n      dup2\n        /* \"#utility.yul\":11938:11950   */\n      swap1\n      pop\n        /* \"#utility.yul\":11896:11956   */\n      swap2\n      swap1\n      pop\n      jump\t// out\n        /* \"#utility.yul\":11962:12104   */\n    tag_162:\n        /* \"#utility.yul\":12012:12021   */\n      0x00\n        /* \"#utility.yul\":12045:12098   */\n      tag_337\n        /* \"#utility.yul\":12063:12097   */\n      tag_338\n        /* \"#utility.yul\":12072:12096   */\n      tag_339\n        /* \"#utility.yul\":12090:12095   */\n      dup5\n        /* \"#utility.yul\":12072:12096   */\n      tag_148\n      jump\t// in\n    tag_339:\n        /* \"#utility.yul\":12063:12097   */\n      tag_161\n      jump\t// in\n    tag_338:\n        /* \"#utility.yul\":12045:12098   */\n      tag_148\n      jump\t// in\n    tag_337:\n        /* \"#utility.yul\":12032:12098   */\n      swap1\n      pop\n        /* \"#utility.yul\":11962:12104   */\n      swap2\n      swap1\n      pop\n      jump\t// out\n        /* \"#utility.yul\":12110:12236   */\n    tag_163:\n        /* \"#utility.yul\":12160:12169   */\n      0x00\n        /* \"#utility.yul\":12193:12230   */\n      tag_341\n        /* \"#utility.yul\":12224:12229   */\n      dup3\n        /* \"#utility.yul\":12193:12230   */\n      tag_162\n      jump\t// in\n    tag_341:\n        /* \"#utility.yul\":12180:12230   */\n      swap1\n      pop\n        /* \"#utility.yul\":12110:12236   */\n      swap2\n      swap1\n      pop\n      jump\t// out\n        /* \"#utility.yul\":12242:12392   */\n    tag_164:\n        /* \"#utility.yul\":12316:12325   */\n      0x00\n        /* \"#utility.yul\":12349:12386   */\n      tag_343\n        /* \"#utility.yul\":12380:12385   */\n      dup3\n        /* \"#utility.yul\":12349:12386   */\n      tag_163\n      jump\t// in\n    tag_343:\n        /* \"#utility.yul\":12336:12386   */\n      swap1\n      pop\n        /* \"#utility.yul\":12242:12392   */\n      swap2\n      swap1\n      pop\n      jump\t// out\n        /* \"#utility.yul\":12398:12577   */\n    tag_165:\n        /* \"#utility.yul\":12509:12570   */\n      tag_345\n        /* \"#utility.yul\":12564:12569   */\n      dup2\n        /* \"#utility.yul\":12509:12570   */\n      tag_164\n      jump\t// in\n    tag_345:\n        /* \"#utility.yul\":12504:12507   */\n      dup3\n        /* \"#utility.yul\":12497:12571   */\n      mstore\n        /* \"#utility.yul\":12398:12577   */\n      pop\n      pop\n      jump\t// out\n        /* \"#utility.yul\":12583:12853   */\n    tag_55:\n        /* \"#utility.yul\":12700:12704   */\n      0x00\n        /* \"#utility.yul\":12738:12740   */\n      0x20\n        /* \"#utility.yul\":12727:12736   */\n      dup3\n        /* \"#utility.yul\":12723:12741   */\n      add\n        /* \"#utility.yul\":12715:12741   */\n      swap1\n      pop\n        /* \"#utility.yul\":12751:12846   */\n      tag_347\n        /* \"#utility.yul\":12843:12844   */\n      0x00\n        /* \"#utility.yul\":12832:12841   */\n      dup4\n        /* \"#utility.yul\":12828:12845   */\n      add\n        /* \"#utility.yul\":12819:12825   */\n      dup5\n        /* \"#utility.yul\":12751:12846   */\n      tag_165\n      jump\t// in\n    tag_347:\n        /* \"#utility.yul\":12583:12853   */\n      swap3\n      swap2\n      pop\n      pop\n      jump\t// out\n        /* \"#utility.yul\":12859:13188   */\n    tag_59:\n        /* \"#utility.yul\":12918:12924   */\n      0x00\n        /* \"#utility.yul\":12967:12969   */\n      0x20\n        /* \"#utility.yul\":12955:12964   */\n      dup3\n        /* \"#utility.yul\":12946:12953   */\n      dup5\n        /* \"#utility.yul\":12942:12965   */\n      sub\n        /* \"#utility.yul\":12938:12970   */\n      slt\n        /* \"#utility.yul\":12935:13054   */\n      iszero\n      tag_349\n      jumpi\n        /* \"#utility.yul\":12973:13052   */\n      tag_350\n      tag_124\n      jump\t// in\n    tag_350:\n        /* \"#utility.yul\":12935:13054   */\n    tag_349:\n        /* \"#utility.yul\":13093:13094   */\n      0x00\n        /* \"#utility.yul\":13118:13171   */\n      tag_351\n        /* \"#utility.yul\":13163:13170   */\n      dup5\n        /* \"#utility.yul\":13154:13160   */\n      dup3\n        /* \"#utility.yul\":13143:13152   */\n      dup6\n        /* \"#utility.yul\":13139:13161   */\n      add\n        /* \"#utility.yul\":13118:13171   */\n      tag_156\n      jump\t// in\n    tag_351:\n        /* \"#utility.yul\":13108:13171   */\n      swap2\n      pop\n        /* \"#utility.yul\":13064:13181   */\n      pop\n        /* \"#utility.yul\":12859:13188   */\n      swap3\n      swap2\n      pop\n      pop\n      jump\t// out\n        /* \"#utility.yul\":13194:13279   */\n    tag_166:\n        /* \"#utility.yul\":13239:13246   */\n      0x00\n        /* \"#utility.yul\":13268:13273   */\n      dup2\n        /* \"#utility.yul\":13257:13273   */\n      swap1\n      pop\n        /* \"#utility.yul\":13194:13279   */\n      swap2\n      swap1\n      pop\n      jump\t// out\n        /* \"#utility.yul\":13285:13443   */\n    tag_167:\n        /* \"#utility.yul\":13343:13352   */\n      0x00\n        /* \"#utility.yul\":13376:13437   */\n      tag_354\n        /* \"#utility.yul\":13394:13436   */\n      tag_355\n        /* \"#utility.yul\":13403:13435   */\n      tag_356\n        /* \"#utility.yul\":13429:13434   */\n      dup5\n        /* \"#utility.yul\":13403:13435   */\n      tag_166\n      jump\t// in\n    tag_356:\n        /* \"#utility.yul\":13394:13436   */\n      tag_161\n      jump\t// in\n    tag_355:\n        /* \"#utility.yul\":13376:13437   */\n      tag_129\n      jump\t// in\n    tag_354:\n        /* \"#utility.yul\":13363:13437   */\n      swap1\n      pop\n        /* \"#utility.yul\":13285:13443   */\n      swap2\n      swap1\n      pop\n      jump\t// out\n        /* \"#utility.yul\":13449:13596   */\n    tag_168:\n        /* \"#utility.yul\":13544:13589   */\n      tag_358\n        /* \"#utility.yul\":13583:13588   */\n      dup2\n        /* \"#utility.yul\":13544:13589   */\n      tag_167\n      jump\t// in\n    tag_358:\n        /* \"#utility.yul\":13539:13542   */\n      dup3\n        /* \"#utility.yul\":13532:13590   */\n      mstore\n        /* \"#utility.yul\":13449:13596   */\n      pop\n      pop\n      jump\t// out\n        /* \"#utility.yul\":13602:14056   */\n    tag_63:\n        /* \"#utility.yul\":13757:13761   */\n      0x00\n        /* \"#utility.yul\":13795:13797   */\n      0x60\n        /* \"#utility.yul\":13784:13793   */\n      dup3\n        /* \"#utility.yul\":13780:13798   */\n      add\n        /* \"#utility.yul\":13772:13798   */\n      swap1\n      pop\n        /* \"#utility.yul\":13808:13877   */\n      tag_360\n        /* \"#utility.yul\":13874:13875   */\n      0x00\n        /* \"#utility.yul\":13863:13872   */\n      dup4\n        /* \"#utility.yul\":13859:13876   */\n      add\n        /* \"#utility.yul\":13850:13856   */\n      dup7\n        /* \"#utility.yul\":13808:13877   */\n      tag_160\n      jump\t// in\n    tag_360:\n        /* \"#utility.yul\":13887:13967   */\n      tag_361\n        /* \"#utility.yul\":13963:13965   */\n      0x20\n        /* \"#utility.yul\":13952:13961   */\n      dup4\n        /* \"#utility.yul\":13948:13966   */\n      add\n        /* \"#utility.yul\":13939:13945   */\n      dup6\n        /* \"#utility.yul\":13887:13967   */\n      tag_168\n      jump\t// in\n    tag_361:\n        /* \"#utility.yul\":13977:14049   */\n      tag_362\n        /* \"#utility.yul\":14045:14047   */\n      0x40\n        /* \"#utility.yul\":14034:14043   */\n      dup4\n        /* \"#utility.yul\":14030:14048   */\n      add\n        /* \"#utility.yul\":14021:14027   */\n      dup5\n        /* \"#utility.yul\":13977:14049   */\n      tag_130\n      jump\t// in\n    tag_362:\n        /* \"#utility.yul\":13602:14056   */\n      swap5\n      swap4\n      pop\n      pop\n      pop\n      pop\n      jump\t// out\n        /* \"#utility.yul\":14062:14184   */\n    tag_169:\n        /* \"#utility.yul\":14135:14159   */\n      tag_364\n        /* \"#utility.yul\":14153:14158   */\n      dup2\n        /* \"#utility.yul\":14135:14159   */\n      tag_129\n      jump\t// in\n    tag_364:\n        /* \"#utility.yul\":14128:14133   */\n      dup2\n        /* \"#utility.yul\":14125:14160   */\n      eq\n        /* \"#utility.yul\":14115:14178   */\n      tag_365\n      jumpi\n        /* \"#utility.yul\":14174:14175   */\n      0x00\n        /* \"#utility.yul\":14171:14172   */\n      0x00\n        /* \"#utility.yul\":14164:14176   */\n      revert\n        /* \"#utility.yul\":14115:14178   */\n    tag_365:\n        /* \"#utility.yul\":14062:14184   */\n      pop\n      jump\t// out\n        /* \"#utility.yul\":14190:14333   */\n    tag_170:\n        /* \"#utility.yul\":14247:14252   */\n      0x00\n        /* \"#utility.yul\":14278:14284   */\n      dup2\n        /* \"#utility.yul\":14272:14285   */\n      mload\n        /* \"#utility.yul\":14263:14285   */\n      swap1\n      pop\n        /* \"#utility.yul\":14294:14327   */\n      tag_367\n        /* \"#utility.yul\":14321:14326   */\n      dup2\n        /* \"#utility.yul\":14294:14327   */\n      tag_169\n      jump\t// in\n    tag_367:\n        /* \"#utility.yul\":14190:14333   */\n      swap3\n      swap2\n      pop\n      pop\n      jump\t// out\n        /* \"#utility.yul\":14339:14846   */\n    tag_67:\n        /* \"#utility.yul\":14418:14424   */\n      0x00\n        /* \"#utility.yul\":14426:14432   */\n      0x00\n        /* \"#utility.yul\":14475:14477   */\n      0x40\n        /* \"#utility.yul\":14463:14472   */\n      dup4\n        /* \"#utility.yul\":14454:14461   */\n      dup6\n        /* \"#utility.yul\":14450:14473   */\n      sub\n        /* \"#utility.yul\":14446:14478   */\n      slt\n        /* \"#utility.yul\":14443:14562   */\n      iszero\n      tag_369\n      jumpi\n        /* \"#utility.yul\":14481:14560   */\n      tag_370\n      tag_124\n      jump\t// in\n    tag_370:\n        /* \"#utility.yul\":14443:14562   */\n    tag_369:\n        /* \"#utility.yul\":14601:14602   */\n      0x00\n        /* \"#utility.yul\":14626:14690   */\n      tag_371\n        /* \"#utility.yul\":14682:14689   */\n      dup6\n        /* \"#utility.yul\":14673:14679   */\n      dup3\n        /* \"#utility.yul\":14662:14671   */\n      dup7\n        /* \"#utility.yul\":14658:14680   */\n      add\n        /* \"#utility.yul\":14626:14690   */\n      tag_170\n      jump\t// in\n    tag_371:\n        /* \"#utility.yul\":14616:14690   */\n      swap3\n      pop\n        /* \"#utility.yul\":14572:14700   */\n      pop\n        /* \"#utility.yul\":14739:14741   */\n      0x20\n        /* \"#utility.yul\":14765:14829   */\n      tag_372\n        /* \"#utility.yul\":14821:14828   */\n      dup6\n        /* \"#utility.yul\":14812:14818   */\n      dup3\n        /* \"#utility.yul\":14801:14810   */\n      dup7\n        /* \"#utility.yul\":14797:14819   */\n      add\n        /* \"#utility.yul\":14765:14829   */\n      tag_170\n      jump\t// in\n    tag_372:\n        /* \"#utility.yul\":14755:14829   */\n      swap2\n      pop\n        /* \"#utility.yul\":14710:14839   */\n      pop\n        /* \"#utility.yul\":14339:14846   */\n      swap3\n      pop\n      swap3\n      swap1\n      pop\n      jump\t// out\n        /* \"#utility.yul\":14852:15022   */\n    tag_171:\n        /* \"#utility.yul\":14992:15014   */\n      0x4f6e6c792072656c6179657220616c6c6f776564000000000000000000000000\n        /* \"#utility.yul\":14988:14989   */\n      0x00\n        /* \"#utility.yul\":14980:14986   */\n      dup3\n        /* \"#utility.yul\":14976:14990   */\n      add\n        /* \"#utility.yul\":14969:15015   */\n      mstore\n        /* \"#utility.yul\":14852:15022   */\n      pop\n      jump\t// out\n        /* \"#utility.yul\":15028:15394   */\n    tag_172:\n        /* \"#utility.yul\":15170:15173   */\n      0x00\n        /* \"#utility.yul\":15191:15258   */\n      tag_375\n        /* \"#utility.yul\":15255:15257   */\n      0x14\n        /* \"#utility.yul\":15250:15253   */\n      dup4\n        /* \"#utility.yul\":15191:15258   */\n      tag_152\n      jump\t// in\n    tag_375:\n        /* \"#utility.yul\":15184:15258   */\n      swap2\n      pop\n        /* \"#utility.yul\":15267:15360   */\n      tag_376\n        /* \"#utility.yul\":15356:15359   */\n      dup3\n        /* \"#utility.yul\":15267:15360   */\n      tag_171\n      jump\t// in\n    tag_376:\n        /* \"#utility.yul\":15385:15387   */\n      0x20\n        /* \"#utility.yul\":15380:15383   */\n      dup3\n        /* \"#utility.yul\":15376:15388   */\n      add\n        /* \"#utility.yul\":15369:15388   */\n      swap1\n      pop\n        /* \"#utility.yul\":15028:15394   */\n      swap2\n      swap1\n      pop\n      jump\t// out\n        /* \"#utility.yul\":15400:15819   */\n    tag_71:\n        /* \"#utility.yul\":15566:15570   */\n      0x00\n        /* \"#utility.yul\":15604:15606   */\n      0x20\n        /* \"#utility.yul\":15593:15602   */\n      dup3\n        /* \"#utility.yul\":15589:15607   */\n      add\n        /* \"#utility.yul\":15581:15607   */\n      swap1\n      pop\n        /* \"#utility.yul\":15653:15662   */\n      dup2\n        /* \"#utility.yul\":15647:15651   */\n      dup2\n        /* \"#utility.yul\":15643:15663   */\n      sub\n        /* \"#utility.yul\":15639:15640   */\n      0x00\n        /* \"#utility.yul\":15628:15637   */\n      dup4\n        /* \"#utility.yul\":15624:15641   */\n      add\n        /* \"#utility.yul\":15617:15664   */\n      mstore\n        /* \"#utility.yul\":15681:15812   */\n      tag_378\n        /* \"#utility.yul\":15807:15811   */\n      dup2\n        /* \"#utility.yul\":15681:15812   */\n      tag_172\n      jump\t// in\n    tag_378:\n        /* \"#utility.yul\":15673:15812   */\n      swap1\n      pop\n        /* \"#utility.yul\":15400:15819   */\n      swap2\n      swap1\n      pop\n      jump\t// out\n        /* \"#utility.yul\":15825:16259   */\n    tag_173:\n        /* \"#utility.yul\":15914:15919   */\n      0x00\n        /* \"#utility.yul\":15939:16005   */\n      tag_380\n        /* \"#utility.yul\":15955:16004   */\n      tag_381\n        /* \"#utility.yul\":15997:16003   */\n      dup5\n        /* \"#utility.yul\":15955:16004   */\n      tag_157\n      jump\t// in\n    tag_381:\n        /* \"#utility.yul\":15939:16005   */\n      tag_136\n      jump\t// in\n    tag_380:\n        /* \"#utility.yul\":15930:16005   */\n      swap1\n      pop\n        /* \"#utility.yul\":16028:16034   */\n      dup3\n        /* \"#utility.yul\":16021:16026   */\n      dup2\n        /* \"#utility.yul\":16014:16035   */\n      mstore\n        /* \"#utility.yul\":16066:16070   */\n      0x20\n        /* \"#utility.yul\":16059:16064   */\n      dup2\n        /* \"#utility.yul\":16055:16071   */\n      add\n        /* \"#utility.yul\":16104:16107   */\n      dup5\n        /* \"#utility.yul\":16095:16101   */\n      dup5\n        /* \"#utility.yul\":16090:16093   */\n      dup5\n        /* \"#utility.yul\":16086:16102   */\n      add\n        /* \"#utility.yul\":16083:16108   */\n      gt\n        /* \"#utility.yul\":16080:16192   */\n      iszero\n      tag_382\n      jumpi\n        /* \"#utility.yul\":16111:16190   */\n      tag_383\n      tag_132\n      jump\t// in\n    tag_383:\n        /* \"#utility.yul\":16080:16192   */\n    tag_382:\n        /* \"#utility.yul\":16201:16253   */\n      tag_384\n        /* \"#utility.yul\":16246:16252   */\n      dup5\n        /* \"#utility.yul\":16241:16244   */\n      dup3\n        /* \"#utility.yul\":16236:16239   */\n      dup6\n        /* \"#utility.yul\":16201:16253   */\n      tag_153\n      jump\t// in\n    tag_384:\n        /* \"#utility.yul\":15920:16259   */\n      pop\n        /* \"#utility.yul\":15825:16259   */\n      swap4\n      swap3\n      pop\n      pop\n      pop\n      jump\t// out\n        /* \"#utility.yul\":16279:16634   */\n    tag_174:\n        /* \"#utility.yul\":16346:16351   */\n      0x00\n        /* \"#utility.yul\":16395:16398   */\n      dup3\n        /* \"#utility.yul\":16388:16392   */\n      0x1f\n        /* \"#utility.yul\":16380:16386   */\n      dup4\n        /* \"#utility.yul\":16376:16393   */\n      add\n        /* \"#utility.yul\":16372:16399   */\n      slt\n        /* \"#utility.yul\":16362:16484   */\n      tag_386\n      jumpi\n        /* \"#utility.yul\":16403:16482   */\n      tag_387\n      tag_131\n      jump\t// in\n    tag_387:\n        /* \"#utility.yul\":16362:16484   */\n    tag_386:\n        /* \"#utility.yul\":16513:16519   */\n      dup2\n        /* \"#utility.yul\":16507:16520   */\n      mload\n        /* \"#utility.yul\":16538:16628   */\n      tag_388\n        /* \"#utility.yul\":16624:16627   */\n      dup5\n        /* \"#utility.yul\":16616:16622   */\n      dup3\n        /* \"#utility.yul\":16609:16613   */\n      0x20\n        /* \"#utility.yul\":16601:16607   */\n      dup7\n        /* \"#utility.yul\":16597:16614   */\n      add\n        /* \"#utility.yul\":16538:16628   */\n      tag_173\n      jump\t// in\n    tag_388:\n        /* \"#utility.yul\":16529:16628   */\n      swap2\n      pop\n        /* \"#utility.yul\":16352:16634   */\n      pop\n        /* \"#utility.yul\":16279:16634   */\n      swap3\n      swap2\n      pop\n      pop\n      jump\t// out\n        /* \"#utility.yul\":16640:16744   */\n    tag_175:\n        /* \"#utility.yul\":16685:16692   */\n      0x00\n        /* \"#utility.yul\":16714:16738   */\n      tag_390\n        /* \"#utility.yul\":16732:16737   */\n      dup3\n        /* \"#utility.yul\":16714:16738   */\n      tag_148\n      jump\t// in\n    tag_390:\n        /* \"#utility.yul\":16703:16738   */\n      swap1\n      pop\n        /* \"#utility.yul\":16640:16744   */\n      swap2\n      swap1\n      pop\n      jump\t// out\n        /* \"#utility.yul\":16750:16888   */\n    tag_176:\n        /* \"#utility.yul\":16831:16863   */\n      tag_392\n        /* \"#utility.yul\":16857:16862   */\n      dup2\n        /* \"#utility.yul\":16831:16863   */\n      tag_175\n      jump\t// in\n    tag_392:\n        /* \"#utility.yul\":16824:16829   */\n      dup2\n        /* \"#utility.yul\":16821:16864   */\n      eq\n        /* \"#utility.yul\":16811:16882   */\n      tag_393\n      jumpi\n        /* \"#utility.yul\":16878:16879   */\n      0x00\n        /* \"#utility.yul\":16875:16876   */\n      0x00\n        /* \"#utility.yul\":16868:16880   */\n      revert\n        /* \"#utility.yul\":16811:16882   */\n    tag_393:\n        /* \"#utility.yul\":16750:16888   */\n      pop\n      jump\t// out\n        /* \"#utility.yul\":16894:17053   */\n    tag_177:\n        /* \"#utility.yul\":16959:16964   */\n      0x00\n        /* \"#utility.yul\":16990:16996   */\n      dup2\n        /* \"#utility.yul\":16984:16997   */\n      mload\n        /* \"#utility.yul\":16975:16997   */\n      swap1\n      pop\n        /* \"#utility.yul\":17006:17047   */\n      tag_395\n        /* \"#utility.yul\":17041:17046   */\n      dup2\n        /* \"#utility.yul\":17006:17047   */\n      tag_176\n      jump\t// in\n    tag_395:\n        /* \"#utility.yul\":16894:17053   */\n      swap3\n      swap2\n      pop\n      pop\n      jump\t// out\n        /* \"#utility.yul\":17059:17755   */\n    tag_74:\n        /* \"#utility.yul\":17156:17162   */\n      0x00\n        /* \"#utility.yul\":17164:17170   */\n      0x00\n        /* \"#utility.yul\":17213:17215   */\n      0x40\n        /* \"#utility.yul\":17201:17210   */\n      dup4\n        /* \"#utility.yul\":17192:17199   */\n      dup6\n        /* \"#utility.yul\":17188:17211   */\n      sub\n        /* \"#utility.yul\":17184:17216   */\n      slt\n        /* \"#utility.yul\":17181:17300   */\n      iszero\n      tag_397\n      jumpi\n        /* \"#utility.yul\":17219:17298   */\n      tag_398\n      tag_124\n      jump\t// in\n    tag_398:\n        /* \"#utility.yul\":17181:17300   */\n    tag_397:\n        /* \"#utility.yul\":17360:17361   */\n      0x00\n        /* \"#utility.yul\":17349:17358   */\n      dup4\n        /* \"#utility.yul\":17345:17362   */\n      add\n        /* \"#utility.yul\":17339:17363   */\n      mload\n        /* \"#utility.yul\":17390:17408   */\n      0xffffffffffffffff\n        /* \"#utility.yul\":17382:17388   */\n      dup2\n        /* \"#utility.yul\":17379:17409   */\n      gt\n        /* \"#utility.yul\":17376:17493   */\n      iszero\n      tag_399\n      jumpi\n        /* \"#utility.yul\":17412:17491   */\n      tag_400\n      tag_125\n      jump\t// in\n    tag_400:\n        /* \"#utility.yul\":17376:17493   */\n    tag_399:\n        /* \"#utility.yul\":17517:17591   */\n      tag_401\n        /* \"#utility.yul\":17583:17590   */\n      dup6\n        /* \"#utility.yul\":17574:17580   */\n      dup3\n        /* \"#utility.yul\":17563:17572   */\n      dup7\n        /* \"#utility.yul\":17559:17581   */\n      add\n        /* \"#utility.yul\":17517:17591   */\n      tag_174\n      jump\t// in\n    tag_401:\n        /* \"#utility.yul\":17507:17591   */\n      swap3\n      pop\n        /* \"#utility.yul\":17310:17601   */\n      pop\n        /* \"#utility.yul\":17640:17642   */\n      0x20\n        /* \"#utility.yul\":17666:17738   */\n      tag_402\n        /* \"#utility.yul\":17730:17737   */\n      dup6\n        /* \"#utility.yul\":17721:17727   */\n      dup3\n        /* \"#utility.yul\":17710:17719   */\n      dup7\n        /* \"#utility.yul\":17706:17728   */\n      add\n        /* \"#utility.yul\":17666:17738   */\n      tag_177\n      jump\t// in\n    tag_402:\n        /* \"#utility.yul\":17656:17738   */\n      swap2\n      pop\n        /* \"#utility.yul\":17611:17748   */\n      pop\n        /* \"#utility.yul\":17059:17755   */\n      swap3\n      pop\n      swap3\n      swap1\n      pop\n      jump\t// out\n        /* \"#utility.yul\":17761:17941   */\n    tag_178:\n        /* \"#utility.yul\":17809:17886   */\n      0x4e487b7100000000000000000000000000000000000000000000000000000000\n        /* \"#utility.yul\":17806:17807   */\n      0x00\n        /* \"#utility.yul\":17799:17887   */\n      mstore\n        /* \"#utility.yul\":17906:17910   */\n      0x22\n        /* \"#utility.yul\":17903:17904   */\n      0x04\n        /* \"#utility.yul\":17896:17911   */\n      mstore\n        /* \"#utility.yul\":17930:17934   */\n      0x24\n        /* \"#utility.yul\":17927:17928   */\n      0x00\n        /* \"#utility.yul\":17920:17935   */\n      revert\n        /* \"#utility.yul\":17947:18267   */\n    tag_87:\n        /* \"#utility.yul\":17991:17997   */\n      0x00\n        /* \"#utility.yul\":18028:18029   */\n      0x02\n        /* \"#utility.yul\":18022:18026   */\n      dup3\n        /* \"#utility.yul\":18018:18030   */\n      div\n        /* \"#utility.yul\":18008:18030   */\n      swap1\n      pop\n        /* \"#utility.yul\":18075:18076   */\n      0x01\n        /* \"#utility.yul\":18069:18073   */\n      dup3\n        /* \"#utility.yul\":18065:18077   */\n      and\n        /* \"#utility.yul\":18096:18114   */\n      dup1\n        /* \"#utility.yul\":18086:18167   */\n      tag_405\n      jumpi\n        /* \"#utility.yul\":18152:18156   */\n      0x7f\n        /* \"#utility.yul\":18144:18150   */\n      dup3\n        /* \"#utility.yul\":18140:18157   */\n      and\n        /* \"#utility.yul\":18130:18157   */\n      swap2\n      pop\n        /* \"#utility.yul\":18086:18167   */\n    tag_405:\n        /* \"#utility.yul\":18214:18216   */\n      0x20\n        /* \"#utility.yul\":18206:18212   */\n      dup3\n        /* \"#utility.yul\":18203:18217   */\n      lt\n        /* \"#utility.yul\":18183:18201   */\n      dup2\n        /* \"#utility.yul\":18180:18218   */\n      sub\n        /* \"#utility.yul\":18177:18261   */\n      tag_406\n      jumpi\n        /* \"#utility.yul\":18233:18251   */\n      tag_407\n      tag_178\n      jump\t// in\n    tag_407:\n        /* \"#utility.yul\":18177:18261   */\n    tag_406:\n        /* \"#utility.yul\":17998:18267   */\n      pop\n        /* \"#utility.yul\":17947:18267   */\n      swap2\n      swap1\n      pop\n      jump\t// out\n        /* \"#utility.yul\":18273:18414   */\n    tag_179:\n        /* \"#utility.yul\":18322:18326   */\n      0x00\n        /* \"#utility.yul\":18345:18348   */\n      dup2\n        /* \"#utility.yul\":18337:18348   */\n      swap1\n      pop\n        /* \"#utility.yul\":18368:18371   */\n      dup2\n        /* \"#utility.yul\":18365:18366   */\n      0x00\n        /* \"#utility.yul\":18358:18372   */\n      mstore\n        /* \"#utility.yul\":18402:18406   */\n      0x20\n        /* \"#utility.yul\":18399:18400   */\n      0x00\n        /* \"#utility.yul\":18389:18407   */\n      keccak256\n        /* \"#utility.yul\":18381:18407   */\n      swap1\n      pop\n        /* \"#utility.yul\":18273:18414   */\n      swap2\n      swap1\n      pop\n      jump\t// out\n        /* \"#utility.yul\":18420:18513   */\n    tag_180:\n        /* \"#utility.yul\":18457:18463   */\n      0x00\n        /* \"#utility.yul\":18504:18506   */\n      0x20\n        /* \"#utility.yul\":18499:18501   */\n      0x1f\n        /* \"#utility.yul\":18492:18497   */\n      dup4\n        /* \"#utility.yul\":18488:18502   */\n      add\n        /* \"#utility.yul\":18484:18507   */\n      div\n        /* \"#utility.yul\":18474:18507   */\n      swap1\n      pop\n        /* \"#utility.yul\":18420:18513   */\n      swap2\n      swap1\n      pop\n      jump\t// out\n        /* \"#utility.yul\":18519:18626   */\n    tag_181:\n        /* \"#utility.yul\":18563:18571   */\n      0x00\n        /* \"#utility.yul\":18613:18618   */\n      dup3\n        /* \"#utility.yul\":18607:18611   */\n      dup3\n        /* \"#utility.yul\":18603:18619   */\n      shl\n        /* \"#utility.yul\":18582:18619   */\n      swap1\n      pop\n        /* \"#utility.yul\":18519:18626   */\n      swap3\n      swap2\n      pop\n      pop\n      jump\t// out\n        /* \"#utility.yul\":18632:19025   */\n    tag_182:\n        /* \"#utility.yul\":18701:18707   */\n      0x00\n        /* \"#utility.yul\":18751:18752   */\n      0x08\n        /* \"#utility.yul\":18739:18749   */\n      dup4\n        /* \"#utility.yul\":18735:18753   */\n      mul\n        /* \"#utility.yul\":18774:18871   */\n      tag_412\n        /* \"#utility.yul\":18804:18870   */\n      0xffffffffffffffffffffffffffffffffffffffffffffffffffffffffffffffff\n        /* \"#utility.yul\":18793:18802   */\n      dup3\n        /* \"#utility.yul\":18774:18871   */\n      tag_181\n      jump\t// in\n    tag_412:\n        /* \"#utility.yul\":18892:18931   */\n      tag_413\n        /* \"#utility.yul\":18922:18930   */\n      dup7\n        /* \"#utility.yul\":18911:18920   */\n      dup4\n        /* \"#utility.yul\":18892:18931   */\n      tag_181\n      jump\t// in\n    tag_413:\n        /* \"#utility.yul\":18880:18931   */\n      swap6\n      pop\n        /* \"#utility.yul\":18964:18968   */\n      dup1\n        /* \"#utility.yul\":18960:18969   */\n      not\n        /* \"#utility.yul\":18953:18958   */\n      dup5\n        /* \"#utility.yul\":18949:18970   */\n      and\n        /* \"#utility.yul\":18940:18970   */\n      swap4\n      pop\n        /* \"#utility.yul\":19013:19017   */\n      dup1\n        /* \"#utility.yul\":19003:19011   */\n      dup7\n        /* \"#utility.yul\":18999:19018   */\n      and\n        /* \"#utility.yul\":18992:18997   */\n      dup5\n        /* \"#utility.yul\":18989:19019   */\n      or\n        /* \"#utility.yul\":18979:19019   */\n      swap3\n      pop\n        /* \"#utility.yul\":18708:19025   */\n      pop\n      pop\n        /* \"#utility.yul\":18632:19025   */\n      swap4\n      swap3\n      pop\n      pop\n      pop\n      jump\t// out\n        /* \"#utility.yul\":19031:19173   */\n    tag_183:\n        /* \"#utility.yul\":19081:19090   */\n      0x00\n        /* \"#utility.yul\":19114:19167   */\n      tag_415\n        /* \"#utility.yul\":19132:19166   */\n      tag_416\n        /* \"#utility.yul\":19141:19165   */\n      tag_417\n        /* \"#utility.yul\":19159:19164   */\n      dup5\n        /* \"#utility.yul\":19141:19165   */\n      tag_129\n      jump\t// in\n    tag_417:\n        /* \"#utility.yul\":19132:19166   */\n      tag_161\n      jump\t// in\n    tag_416:\n        /* \"#utility.yul\":19114:19167   */\n      tag_129\n      jump\t// in\n    tag_415:\n        /* \"#utility.yul\":19101:19167   */\n      swap1\n      pop\n        /* \"#utility.yul\":19031:19173   */\n      swap2\n      swap1\n      pop\n      jump\t// out\n        /* \"#utility.yul\":19179:19254   */\n    tag_184:\n        /* \"#utility.yul\":19222:19225   */\n      0x00\n        /* \"#utility.yul\":19243:19248   */\n      dup2\n        /* \"#utility.yul\":19236:19248   */\n      swap1\n      pop\n        /* \"#utility.yul\":19179:19254   */\n      swap2\n      swap1\n      pop\n      jump\t// out\n        /* \"#utility.yul\":19260:19529   */\n    tag_185:\n        /* \"#utility.yul\":19370:19409   */\n      tag_420\n        /* \"#utility.yul\":19401:19408   */\n      dup4\n        /* \"#utility.yul\":19370:19409   */\n      tag_183\n      jump\t// in\n    tag_420:\n        /* \"#utility.yul\":19431:19522   */\n      tag_421\n        /* \"#utility.yul\":19480:19521   */\n      tag_422\n        /* \"#utility.yul\":19504:19520   */\n      dup3\n        /* \"#utility.yul\":19480:19521   */\n      tag_184\n      jump\t// in\n    tag_422:\n        /* \"#utility.yul\":19472:19478   */\n      dup5\n        /* \"#utility.yul\":19465:19469   */\n      dup5\n        /* \"#utility.yul\":19459:19470   */\n      sload\n        /* \"#utility.yul\":19431:19522   */\n      tag_182\n      jump\t// in\n    tag_421:\n        /* \"#utility.yul\":19425:19429   */\n      dup3\n        /* \"#utility.yul\":19418:19523   */\n      sstore\n        /* \"#utility.yul\":19336:19529   */\n      pop\n        /* \"#utility.yul\":19260:19529   */\n      pop\n      pop\n      pop\n      jump\t// out\n        /* \"#utility.yul\":19535:19608   */\n    tag_186:\n        /* \"#utility.yul\":19580:19583   */\n      0x00\n        /* \"#utility.yul\":19601:19602   */\n      0x00\n        /* \"#utility.yul\":19594:19602   */\n      swap1\n      pop\n        /* \"#utility.yul\":19535:19608   */\n      swap1\n      jump\t// out\n        /* \"#utility.yul\":19614:19803   */\n    tag_187:\n        /* \"#utility.yul\":19691:19723   */\n      tag_425\n      tag_186\n      jump\t// in\n    tag_425:\n        /* \"#utility.yul\":19732:19797   */\n      tag_426\n        /* \"#utility.yul\":19790:19796   */\n      dup2\n        /* \"#utility.yul\":19782:19788   */\n      dup5\n        /* \"#utility.yul\":19776:19780   */\n      dup5\n        /* \"#utility.yul\":19732:19797   */\n      tag_185\n      jump\t// in\n    tag_426:\n        /* \"#utility.yul\":19667:19803   */\n      pop\n        /* \"#utility.yul\":19614:19803   */\n      pop\n      pop\n      jump\t// out\n        /* \"#utility.yul\":19809:19995   */\n    tag_188:\n        /* \"#utility.yul\":19869:19989   */\n    tag_428:\n        /* \"#utility.yul\":19886:19889   */\n      dup2\n        /* \"#utility.yul\":19879:19884   */\n      dup2\n        /* \"#utility.yul\":19876:19890   */\n      lt\n        /* \"#utility.yul\":19869:19989   */\n      iszero\n      tag_430\n      jumpi\n        /* \"#utility.yul\":19940:19979   */\n      tag_431\n        /* \"#utility.yul\":19977:19978   */\n      0x00\n        /* \"#utility.yul\":19970:19975   */\n      dup3\n        /* \"#utility.yul\":19940:19979   */\n      tag_187\n      jump\t// in\n    tag_431:\n        /* \"#utility.yul\":19913:19914   */\n      0x01\n        /* \"#utility.yul\":19906:19911   */\n      dup2\n        /* \"#utility.yul\":19902:19915   */\n      add\n        /* \"#utility.yul\":19893:19915   */\n      swap1\n      pop\n        /* \"#utility.yul\":19869:19989   */\n      jump(tag_428)\n    tag_430:\n        /* \"#utility.yul\":19809:19995   */\n      pop\n      pop\n      jump\t// out\n        /* \"#utility.yul\":20001:20544   */\n    tag_189:\n        /* \"#utility.yul\":20102:20104   */\n      0x1f\n        /* \"#utility.yul\":20097:20100   */\n      dup3\n        /* \"#utility.yul\":20094:20105   */\n      gt\n        /* \"#utility.yul\":20091:20537   */\n      iszero\n      tag_433\n      jumpi\n        /* \"#utility.yul\":20136:20174   */\n      tag_434\n        /* \"#utility.yul\":20168:20173   */\n      dup2\n        /* \"#utility.yul\":20136:20174   */\n      tag_179\n      jump\t// in\n    tag_434:\n        /* \"#utility.yul\":20220:20249   */\n      tag_435\n        /* \"#utility.yul\":20238:20248   */\n      dup5\n        /* \"#utility.yul\":20220:20249   */\n      tag_180\n      jump\t// in\n    tag_435:\n        /* \"#utility.yul\":20210:20218   */\n      dup2\n        /* \"#utility.yul\":20206:20250   */\n      add\n        /* \"#utility.yul\":20403:20405   */\n      0x20\n        /* \"#utility.yul\":20391:20401   */\n      dup6\n        /* \"#utility.yul\":20388:20406   */\n      lt\n        /* \"#utility.yul\":20385:20434   */\n      iszero\n      tag_436\n      jumpi\n        /* \"#utility.yul\":20424:20432   */\n      dup2\n        /* \"#utility.yul\":20409:20432   */\n      swap1\n      pop\n        /* \"#utility.yul\":20385:20434   */\n    tag_436:\n        /* \"#utility.yul\":20447:20527   */\n      tag_437\n        /* \"#utility.yul\":20503:20525   */\n      tag_438\n        /* \"#utility.yul\":20521:20524   */\n      dup6\n        /* \"#utility.yul\":20503:20525   */\n      tag_180\n      jump\t// in\n    tag_438:\n        /* \"#utility.yul\":20493:20501   */\n      dup4\n        /* \"#utility.yul\":20489:20526   */\n      add\n        /* \"#utility.yul\":20476:20487   */\n      dup3\n        /* \"#utility.yul\":20447:20527   */\n      tag_188\n      jump\t// in\n    tag_437:\n        /* \"#utility.yul\":20106:20537   */\n      pop\n      pop\n        /* \"#utility.yul\":20091:20537   */\n    tag_433:\n        /* \"#utility.yul\":20001:20544   */\n      pop\n      pop\n      pop\n      jump\t// out\n        /* \"#utility.yul\":20550:20667   */\n    tag_190:\n        /* \"#utility.yul\":20604:20612   */\n      0x00\n        /* \"#utility.yul\":20654:20659   */\n      dup3\n        /* \"#utility.yul\":20648:20652   */\n      dup3\n        /* \"#utility.yul\":20644:20660   */\n      shr\n        /* \"#utility.yul\":20623:20660   */\n      swap1\n      pop\n        /* \"#utility.yul\":20550:20667   */\n      swap3\n      swap2\n      pop\n      pop\n      jump\t// out\n        /* \"#utility.yul\":20673:20842   */\n    tag_191:\n        /* \"#utility.yul\":20717:20723   */\n      0x00\n        /* \"#utility.yul\":20750:20801   */\n      tag_441\n        /* \"#utility.yul\":20798:20799   */\n      0x00\n        /* \"#utility.yul\":20794:20800   */\n      not\n        /* \"#utility.yul\":20786:20791   */\n      dup5\n        /* \"#utility.yul\":20783:20784   */\n      0x08\n        /* \"#utility.yul\":20779:20792   */\n      mul\n        /* \"#utility.yul\":20750:20801   */\n      tag_190\n      jump\t// in\n    tag_441:\n        /* \"#utility.yul\":20746:20802   */\n      not\n        /* \"#utility.yul\":20831:20835   */\n      dup1\n        /* \"#utility.yul\":20825:20829   */\n      dup4\n        /* \"#utility.yul\":20821:20836   */\n      and\n        /* \"#utility.yul\":20811:20836   */\n      swap2\n      pop\n        /* \"#utility.yul\":20724:20842   */\n      pop\n        /* \"#utility.yul\":20673:20842   */\n      swap3\n      swap2\n      pop\n      pop\n      jump\t// out\n        /* \"#utility.yul\":20847:21142   */\n    tag_192:\n        /* \"#utility.yul\":20923:20927   */\n      0x00\n        /* \"#utility.yul\":21069:21098   */\n      tag_443\n        /* \"#utility.yul\":21094:21097   */\n      dup4\n        /* \"#utility.yul\":21088:21092   */\n      dup4\n        /* \"#utility.yul\":21069:21098   */\n      tag_191\n      jump\t// in\n    tag_443:\n        /* \"#utility.yul\":21061:21098   */\n      swap2\n      pop\n        /* \"#utility.yul\":21131:21134   */\n      dup3\n        /* \"#utility.yul\":21128:21129   */\n      0x02\n        /* \"#utility.yul\":21124:21135   */\n      mul\n        /* \"#utility.yul\":21118:21122   */\n      dup3\n        /* \"#utility.yul\":21115:21136   */\n      or\n        /* \"#utility.yul\":21107:21136   */\n      swap1\n      pop\n        /* \"#utility.yul\":20847:21142   */\n      swap3\n      swap2\n      pop\n      pop\n      jump\t// out\n        /* \"#utility.yul\":21147:22542   */\n    tag_76:\n        /* \"#utility.yul\":21264:21301   */\n      tag_445\n        /* \"#utility.yul\":21297:21300   */\n      dup3\n        /* \"#utility.yul\":21264:21301   */\n      tag_151\n      jump\t// in\n    tag_445:\n        /* \"#utility.yul\":21366:21384   */\n      0xffffffffffffffff\n        /* \"#utility.yul\":21358:21364   */\n      dup2\n        /* \"#utility.yul\":21355:21385   */\n      gt\n        /* \"#utility.yul\":21352:21408   */\n      iszero\n      tag_446\n      jumpi\n        /* \"#utility.yul\":21388:21406   */\n      tag_447\n      tag_134\n      jump\t// in\n    tag_447:\n        /* \"#utility.yul\":21352:21408   */\n    tag_446:\n        /* \"#utility.yul\":21432:21470   */\n      tag_448\n        /* \"#utility.yul\":21464:21468   */\n      dup3\n        /* \"#utility.yul\":21458:21469   */\n      sload\n        /* \"#utility.yul\":21432:21470   */\n      tag_87\n      jump\t// in\n    tag_448:\n        /* \"#utility.yul\":21517:21584   */\n      tag_449\n        /* \"#utility.yul\":21577:21583   */\n      dup3\n        /* \"#utility.yul\":21569:21575   */\n      dup3\n        /* \"#utility.yul\":21563:21567   */\n      dup6\n        /* \"#utility.yul\":21517:21584   */\n      tag_189\n      jump\t// in\n    tag_449:\n        /* \"#utility.yul\":21611:21612   */\n      0x00\n        /* \"#utility.yul\":21635:21639   */\n      0x20\n        /* \"#utility.yul\":21622:21639   */\n      swap1\n      pop\n        /* \"#utility.yul\":21667:21669   */\n      0x1f\n        /* \"#utility.yul\":21659:21665   */\n      dup4\n        /* \"#utility.yul\":21656:21670   */\n      gt\n        /* \"#utility.yul\":21684:21685   */\n      0x01\n        /* \"#utility.yul\":21679:22297   */\n      dup2\n      eq\n      tag_451\n      jumpi\n        /* \"#utility.yul\":22341:22342   */\n      0x00\n        /* \"#utility.yul\":22358:22364   */\n      dup5\n        /* \"#utility.yul\":22355:22432   */\n      iszero\n      tag_452\n      jumpi\n        /* \"#utility.yul\":22407:22416   */\n      dup3\n        /* \"#utility.yul\":22402:22405   */\n      dup8\n        /* \"#utility.yul\":22398:22417   */\n      add\n        /* \"#utility.yul\":22392:22418   */\n      mload\n        /* \"#utility.yul\":22383:22418   */\n      swap1\n      pop\n        /* \"#utility.yul\":22355:22432   */\n    tag_452:\n        /* \"#utility.yul\":22458:22525   */\n      tag_453\n        /* \"#utility.yul\":22518:22524   */\n      dup6\n        /* \"#utility.yul\":22511:22516   */\n      dup3\n        /* \"#utility.yul\":22458:22525   */\n      tag_192\n      jump\t// in\n    tag_453:\n        /* \"#utility.yul\":22452:22456   */\n      dup7\n        /* \"#utility.yul\":22445:22526   */\n      sstore\n        /* \"#utility.yul\":22314:22536   */\n      pop\n        /* \"#utility.yul\":21649:22536   */\n      jump(tag_450)\n        /* \"#utility.yul\":21679:22297   */\n    tag_451:\n        /* \"#utility.yul\":21731:21735   */\n      0x1f\n        /* \"#utility.yul\":21727:21736   */\n      not\n        /* \"#utility.yul\":21719:21725   */\n      dup5\n        /* \"#utility.yul\":21715:21737   */\n      and\n        /* \"#utility.yul\":21765:21802   */\n      tag_454\n        /* \"#utility.yul\":21797:21801   */\n      dup7\n        /* \"#utility.yul\":21765:21802   */\n      tag_179\n      jump\t// in\n    tag_454:\n        /* \"#utility.yul\":21824:21825   */\n      0x00\n        /* \"#utility.yul\":21838:22046   */\n    tag_455:\n        /* \"#utility.yul\":21852:21859   */\n      dup3\n        /* \"#utility.yul\":21849:21850   */\n      dup2\n        /* \"#utility.yul\":21846:21860   */\n      lt\n        /* \"#utility.yul\":21838:22046   */\n      iszero\n      tag_457\n      jumpi\n        /* \"#utility.yul\":21931:21940   */\n      dup5\n        /* \"#utility.yul\":21926:21929   */\n      dup10\n        /* \"#utility.yul\":21922:21941   */\n      add\n        /* \"#utility.yul\":21916:21942   */\n      mload\n        /* \"#utility.yul\":21908:21914   */\n      dup3\n        /* \"#utility.yul\":21901:21943   */\n      sstore\n        /* \"#utility.yul\":21982:21983   */\n      0x01\n        /* \"#utility.yul\":21974:21980   */\n      dup3\n        /* \"#utility.yul\":21970:21984   */\n      add\n        /* \"#utility.yul\":21960:21984   */\n      swap2\n      pop\n        /* \"#utility.yul\":22029:22031   */\n      0x20\n        /* \"#utility.yul\":22018:22027   */\n      dup6\n        /* \"#utility.yul\":22014:22032   */\n      add\n        /* \"#utility.yul\":22001:22032   */\n      swap5\n      pop\n        /* \"#utility.yul\":21875:21879   */\n      0x20\n        /* \"#utility.yul\":21872:21873   */\n      dup2\n        /* \"#utility.yul\":21868:21880   */\n      add\n        /* \"#utility.yul\":21863:21880   */\n      swap1\n      pop\n        /* \"#utility.yul\":21838:22046   */\n      jump(tag_455)\n    tag_457:\n        /* \"#utility.yul\":22074:22080   */\n      dup7\n        /* \"#utility.yul\":22065:22072   */\n      dup4\n        /* \"#utility.yul\":22062:22081   */\n      lt\n        /* \"#utility.yul\":22059:22238   */\n      iszero\n      tag_458\n      jumpi\n        /* \"#utility.yul\":22132:22141   */\n      dup5\n        /* \"#utility.yul\":22127:22130   */\n      dup10\n        /* \"#utility.yul\":22123:22142   */\n      add\n        /* \"#utility.yul\":22117:22143   */\n      mload\n        /* \"#utility.yul\":22175:22223   */\n      tag_459\n        /* \"#utility.yul\":22217:22221   */\n      0x1f\n        /* \"#utility.yul\":22209:22215   */\n      dup10\n        /* \"#utility.yul\":22205:22222   */\n      and\n        /* \"#utility.yul\":22194:22203   */\n      dup3\n        /* \"#utility.yul\":22175:22223   */\n      tag_191\n      jump\t// in\n    tag_459:\n        /* \"#utility.yul\":22167:22173   */\n      dup4\n        /* \"#utility.yul\":22160:22224   */\n      sstore\n        /* \"#utility.yul\":22082:22238   */\n      pop\n        /* \"#utility.yul\":22059:22238   */\n    tag_458:\n        /* \"#utility.yul\":22284:22285   */\n      0x01\n        /* \"#utility.yul\":22280:22281   */\n      0x02\n        /* \"#utility.yul\":22272:22278   */\n      dup9\n        /* \"#utility.yul\":22268:22282   */\n      mul\n        /* \"#utility.yul\":22264:22286   */\n      add\n        /* \"#utility.yul\":22258:22262   */\n      dup9\n        /* \"#utility.yul\":22251:22287   */\n      sstore\n        /* \"#utility.yul\":21686:22297   */\n      pop\n      pop\n      pop\n        /* \"#utility.yul\":21649:22536   */\n    tag_450:\n      pop\n        /* \"#utility.yul\":21239:22542   */\n      pop\n      pop\n      pop\n        /* \"#utility.yul\":21147:22542   */\n      pop\n      pop\n      jump\t// out\n        /* \"#utility.yul\":22572:23403   */\n    tag_193:\n        /* \"#utility.yul\":22657:22660   */\n      0x00\n        /* \"#utility.yul\":22694:22699   */\n      dup2\n        /* \"#utility.yul\":22688:22700   */\n      sload\n        /* \"#utility.yul\":22723:22759   */\n      tag_461\n        /* \"#utility.yul\":22749:22758   */\n      dup2\n        /* \"#utility.yul\":22723:22759   */\n      tag_87\n      jump\t// in\n    tag_461:\n        /* \"#utility.yul\":22775:22846   */\n      tag_462\n        /* \"#utility.yul\":22839:22845   */\n      dup2\n        /* \"#utility.yul\":22834:22837   */\n      dup7\n        /* \"#utility.yul\":22775:22846   */\n      tag_152\n      jump\t// in\n    tag_462:\n        /* \"#utility.yul\":22768:22846   */\n      swap5\n      pop\n        /* \"#utility.yul\":22877:22878   */\n      0x01\n        /* \"#utility.yul\":22866:22875   */\n      dup3\n        /* \"#utility.yul\":22862:22879   */\n      and\n        /* \"#utility.yul\":22893:22894   */\n      0x00\n        /* \"#utility.yul\":22888:23052   */\n      dup2\n      eq\n      tag_464\n      jumpi\n        /* \"#utility.yul\":23066:23067   */\n      0x01\n        /* \"#utility.yul\":23061:23397   */\n      dup2\n      eq\n      tag_465\n      jumpi\n        /* \"#utility.yul\":22855:23397   */\n      jump(tag_463)\n        /* \"#utility.yul\":22888:23052   */\n    tag_464:\n        /* \"#utility.yul\":22972:22976   */\n      0xff\n        /* \"#utility.yul\":22968:22977   */\n      not\n        /* \"#utility.yul\":22957:22966   */\n      dup4\n        /* \"#utility.yul\":22953:22978   */\n      and\n        /* \"#utility.yul\":22948:22951   */\n      dup7\n        /* \"#utility.yul\":22941:22979   */\n      mstore\n        /* \"#utility.yul\":23032:23038   */\n      dup2\n        /* \"#utility.yul\":23025:23039   */\n      iszero\n        /* \"#utility.yul\":23018:23040   */\n      iszero\n        /* \"#utility.yul\":23012:23016   */\n      0x20\n        /* \"#utility.yul\":23008:23041   */\n      mul\n        /* \"#utility.yul\":23003:23006   */\n      dup7\n        /* \"#utility.yul\":22999:23042   */\n      add\n        /* \"#utility.yul\":22992:23042   */\n      swap4\n      pop\n        /* \"#utility.yul\":22888:23052   */\n      jump(tag_463)\n        /* \"#utility.yul\":23061:23397   */\n    tag_465:\n        /* \"#utility.yul\":23128:23166   */\n      tag_466\n        /* \"#utility.yul\":23160:23165   */\n      dup6\n        /* \"#utility.yul\":23128:23166   */\n      tag_179\n      jump\t// in\n    tag_466:\n        /* \"#utility.yul\":23188:23189   */\n      0x00\n        /* \"#utility.yul\":23202:23356   */\n    tag_467:\n        /* \"#utility.yul\":23216:23222   */\n      dup4\n        /* \"#utility.yul\":23213:23214   */\n      dup2\n        /* \"#utility.yul\":23210:23223   */\n      lt\n        /* \"#utility.yul\":23202:23356   */\n      iszero\n      tag_469\n      jumpi\n        /* \"#utility.yul\":23290:23297   */\n      dup2\n        /* \"#utility.yul\":23284:23298   */\n      sload\n        /* \"#utility.yul\":23280:23281   */\n      dup2\n        /* \"#utility.yul\":23275:23278   */\n      dup10\n        /* \"#utility.yul\":23271:23282   */\n      add\n        /* \"#utility.yul\":23264:23299   */\n      mstore\n        /* \"#utility.yul\":23340:23341   */\n      0x01\n        /* \"#utility.yul\":23331:23338   */\n      dup3\n        /* \"#utility.yul\":23327:23342   */\n      add\n        /* \"#utility.yul\":23316:23342   */\n      swap2\n      pop\n        /* \"#utility.yul\":23238:23242   */\n      0x20\n        /* \"#utility.yul\":23235:23236   */\n      dup2\n        /* \"#utility.yul\":23231:23243   */\n      add\n        /* \"#utility.yul\":23226:23243   */\n      swap1\n      pop\n        /* \"#utility.yul\":23202:23356   */\n      jump(tag_467)\n    tag_469:\n        /* \"#utility.yul\":23385:23386   */\n      dup1\n        /* \"#utility.yul\":23380:23383   */\n      dup9\n        /* \"#utility.yul\":23376:23387   */\n      add\n        /* \"#utility.yul\":23369:23387   */\n      swap6\n      pop\n        /* \"#utility.yul\":23068:23397   */\n      pop\n      pop\n        /* \"#utility.yul\":22855:23397   */\n    tag_463:\n      pop\n        /* \"#utility.yul\":22661:23403   */\n      pop\n      pop\n        /* \"#utility.yul\":22572:23403   */\n      swap3\n      swap2\n      pop\n      pop\n      jump\t// out\n        /* \"#utility.yul\":23409:23932   */\n    tag_78:\n        /* \"#utility.yul\":23573:23577   */\n      0x00\n        /* \"#utility.yul\":23611:23613   */\n      0x60\n        /* \"#utility.yul\":23600:23609   */\n      dup3\n        /* \"#utility.yul\":23596:23614   */\n      add\n        /* \"#utility.yul\":23588:23614   */\n      swap1\n      pop\n        /* \"#utility.yul\":23660:23669   */\n      dup2\n        /* \"#utility.yul\":23654:23658   */\n      dup2\n        /* \"#utility.yul\":23650:23670   */\n      sub\n        /* \"#utility.yul\":23646:23647   */\n      0x00\n        /* \"#utility.yul\":23635:23644   */\n      dup4\n        /* \"#utility.yul\":23631:23648   */\n      add\n        /* \"#utility.yul\":23624:23671   */\n      mstore\n        /* \"#utility.yul\":23688:23763   */\n      tag_471\n        /* \"#utility.yul\":23758:23762   */\n      dup2\n        /* \"#utility.yul\":23749:23755   */\n      dup7\n        /* \"#utility.yul\":23688:23763   */\n      tag_193\n      jump\t// in\n    tag_471:\n        /* \"#utility.yul\":23680:23763   */\n      swap1\n      pop\n        /* \"#utility.yul\":23773:23843   */\n      tag_472\n        /* \"#utility.yul\":23839:23841   */\n      0x20\n        /* \"#utility.yul\":23828:23837   */\n      dup4\n        /* \"#utility.yul\":23824:23842   */\n      add\n        /* \"#utility.yul\":23815:23821   */\n      dup6\n        /* \"#utility.yul\":23773:23843   */\n      tag_160\n      jump\t// in\n    tag_472:\n        /* \"#utility.yul\":23853:23925   */\n      tag_473\n        /* \"#utility.yul\":23921:23923   */\n      0x40\n        /* \"#utility.yul\":23910:23919   */\n      dup4\n        /* \"#utility.yul\":23906:23924   */\n      add\n        /* \"#utility.yul\":23897:23903   */\n      dup5\n        /* \"#utility.yul\":23853:23925   */\n      tag_150\n      jump\t// in\n    tag_473:\n        /* \"#utility.yul\":23409:23932   */\n      swap5\n      swap4\n      pop\n      pop\n      pop\n      pop\n      jump\t// out\n        /* \"#utility.yul\":23938:24361   */\n    tag_97:\n        /* \"#utility.yul\":24079:24083   */\n      0x00\n        /* \"#utility.yul\":24117:24119   */\n      0x40\n        /* \"#utility.yul\":24106:24115   */\n      dup3\n        /* \"#utility.yul\":24102:24120   */\n      add\n        /* \"#utility.yul\":24094:24120   */\n      swap1\n      pop\n        /* \"#utility.yul\":24166:24175   */\n      dup2\n        /* \"#utility.yul\":24160:24164   */\n      dup2\n        /* \"#utility.yul\":24156:24176   */\n      sub\n        /* \"#utility.yul\":24152:24153   */\n      0x00\n        /* \"#utility.yul\":24141:24150   */\n      dup4\n        /* \"#utility.yul\":24137:24154   */\n      add\n        /* \"#utility.yul\":24130:24177   */\n      mstore\n        /* \"#utility.yul\":24194:24272   */\n      tag_475\n        /* \"#utility.yul\":24267:24271   */\n      dup2\n        /* \"#utility.yul\":24258:24264   */\n      dup6\n        /* \"#utility.yul\":24194:24272   */\n      tag_154\n      jump\t// in\n    tag_475:\n        /* \"#utility.yul\":24186:24272   */\n      swap1\n      pop\n        /* \"#utility.yul\":24282:24354   */\n      tag_476\n        /* \"#utility.yul\":24350:24352   */\n      0x20\n        /* \"#utility.yul\":24339:24348   */\n      dup4\n        /* \"#utility.yul\":24335:24353   */\n      add\n        /* \"#utility.yul\":24326:24332   */\n      dup5\n        /* \"#utility.yul\":24282:24354   */\n      tag_150\n      jump\t// in\n    tag_476:\n        /* \"#utility.yul\":23938:24361   */\n      swap4\n      swap3\n      pop\n      pop\n      pop\n      jump\t// out\n        /* \"#utility.yul\":24367:24465   */\n    tag_194:\n        /* \"#utility.yul\":24418:24424   */\n      0x00\n        /* \"#utility.yul\":24452:24457   */\n      dup2\n        /* \"#utility.yul\":24446:24458   */\n      mload\n        /* \"#utility.yul\":24436:24458   */\n      swap1\n      pop\n        /* \"#utility.yul\":24367:24465   */\n      swap2\n      swap1\n      pop\n      jump\t// out\n        /* \"#utility.yul\":24471:24639   */\n    tag_195:\n        /* \"#utility.yul\":24554:24565   */\n      0x00\n        /* \"#utility.yul\":24588:24594   */\n      dup3\n        /* \"#utility.yul\":24583:24586   */\n      dup3\n        /* \"#utility.yul\":24576:24595   */\n      mstore\n        /* \"#utility.yul\":24628:24632   */\n      0x20\n        /* \"#utility.yul\":24623:24626   */\n      dup3\n        /* \"#utility.yul\":24619:24633   */\n      add\n        /* \"#utility.yul\":24604:24633   */\n      swap1\n      pop\n        /* \"#utility.yul\":24471:24639   */\n      swap3\n      swap2\n      pop\n      pop\n      jump\t// out\n        /* \"#utility.yul\":24645:25018   */\n    tag_196:\n        /* \"#utility.yul\":24731:24734   */\n      0x00\n        /* \"#utility.yul\":24759:24797   */\n      tag_480\n        /* \"#utility.yul\":24791:24796   */\n      dup3\n        /* \"#utility.yul\":24759:24797   */\n      tag_194\n      jump\t// in\n    tag_480:\n        /* \"#utility.yul\":24813:24883   */\n      tag_481\n        /* \"#utility.yul\":24876:24882   */\n      dup2\n        /* \"#utility.yul\":24871:24874   */\n      dup6\n        /* \"#utility.yul\":24813:24883   */\n      tag_195\n      jump\t// in\n    tag_481:\n        /* \"#utility.yul\":24806:24883   */\n      swap4\n      pop\n        /* \"#utility.yul\":24892:24957   */\n      tag_482\n        /* \"#utility.yul\":24950:24956   */\n      dup2\n        /* \"#utility.yul\":24945:24948   */\n      dup6\n        /* \"#utility.yul\":24938:24942   */\n      0x20\n        /* \"#utility.yul\":24931:24936   */\n      dup7\n        /* \"#utility.yul\":24927:24943   */\n      add\n        /* \"#utility.yul\":24892:24957   */\n      tag_153\n      jump\t// in\n    tag_482:\n        /* \"#utility.yul\":24982:25011   */\n      tag_483\n        /* \"#utility.yul\":25004:25010   */\n      dup2\n        /* \"#utility.yul\":24982:25011   */\n      tag_133\n      jump\t// in\n    tag_483:\n        /* \"#utility.yul\":24977:24980   */\n      dup5\n        /* \"#utility.yul\":24973:25012   */\n      add\n        /* \"#utility.yul\":24966:25012   */\n      swap2\n      pop\n        /* \"#utility.yul\":24735:25018   */\n      pop\n        /* \"#utility.yul\":24645:25018   */\n      swap3\n      swap2\n      pop\n      pop\n      jump\t// out\n        /* \"#utility.yul\":25024:26005   */\n    tag_99:\n        /* \"#utility.yul\":25307:25311   */\n      0x00\n        /* \"#utility.yul\":25345:25348   */\n      0xe0\n        /* \"#utility.yul\":25334:25343   */\n      dup3\n        /* \"#utility.yul\":25330:25349   */\n      add\n        /* \"#utility.yul\":25322:25349   */\n      swap1\n      pop\n        /* \"#utility.yul\":25359:25428   */\n      tag_485\n        /* \"#utility.yul\":25425:25426   */\n      0x00\n        /* \"#utility.yul\":25414:25423   */\n      dup4\n        /* \"#utility.yul\":25410:25427   */\n      add\n        /* \"#utility.yul\":25401:25407   */\n      dup11\n        /* \"#utility.yul\":25359:25428   */\n      tag_160\n      jump\t// in\n    tag_485:\n        /* \"#utility.yul\":25438:25510   */\n      tag_486\n        /* \"#utility.yul\":25506:25508   */\n      0x20\n        /* \"#utility.yul\":25495:25504   */\n      dup4\n        /* \"#utility.yul\":25491:25509   */\n      add\n        /* \"#utility.yul\":25482:25488   */\n      dup10\n        /* \"#utility.yul\":25438:25510   */\n      tag_150\n      jump\t// in\n    tag_486:\n        /* \"#utility.yul\":25557:25566   */\n      dup2\n        /* \"#utility.yul\":25551:25555   */\n      dup2\n        /* \"#utility.yul\":25547:25567   */\n      sub\n        /* \"#utility.yul\":25542:25544   */\n      0x40\n        /* \"#utility.yul\":25531:25540   */\n      dup4\n        /* \"#utility.yul\":25527:25545   */\n      add\n        /* \"#utility.yul\":25520:25568   */\n      mstore\n        /* \"#utility.yul\":25585:25661   */\n      tag_487\n        /* \"#utility.yul\":25656:25660   */\n      dup2\n        /* \"#utility.yul\":25647:25653   */\n      dup9\n        /* \"#utility.yul\":25585:25661   */\n      tag_196\n      jump\t// in\n    tag_487:\n        /* \"#utility.yul\":25577:25661   */\n      swap1\n      pop\n        /* \"#utility.yul\":25671:25751   */\n      tag_488\n        /* \"#utility.yul\":25747:25749   */\n      0x60\n        /* \"#utility.yul\":25736:25745   */\n      dup4\n        /* \"#utility.yul\":25732:25750   */\n      add\n        /* \"#utility.yul\":25723:25729   */\n      dup8\n        /* \"#utility.yul\":25671:25751   */\n      tag_168\n      jump\t// in\n    tag_488:\n        /* \"#utility.yul\":25761:25834   */\n      tag_489\n        /* \"#utility.yul\":25829:25832   */\n      0x80\n        /* \"#utility.yul\":25818:25827   */\n      dup4\n        /* \"#utility.yul\":25814:25833   */\n      add\n        /* \"#utility.yul\":25805:25811   */\n      dup7\n        /* \"#utility.yul\":25761:25834   */\n      tag_130\n      jump\t// in\n    tag_489:\n        /* \"#utility.yul\":25844:25915   */\n      tag_490\n        /* \"#utility.yul\":25910:25913   */\n      0xa0\n        /* \"#utility.yul\":25899:25908   */\n      dup4\n        /* \"#utility.yul\":25895:25914   */\n      add\n        /* \"#utility.yul\":25886:25892   */\n      dup6\n        /* \"#utility.yul\":25844:25915   */\n      tag_160\n      jump\t// in\n    tag_490:\n        /* \"#utility.yul\":25925:25998   */\n      tag_491\n        /* \"#utility.yul\":25993:25996   */\n      0xc0\n        /* \"#utility.yul\":25982:25991   */\n      dup4\n        /* \"#utility.yul\":25978:25997   */\n      add\n        /* \"#utility.yul\":25969:25975   */\n      dup5\n        /* \"#utility.yul\":25925:25998   */\n      tag_150\n      jump\t// in\n    tag_491:\n        /* \"#utility.yul\":25024:26005   */\n      swap9\n      swap8\n      pop\n      pop\n      pop\n      pop\n      pop\n      pop\n      pop\n      pop\n      jump\t// out\n        /* \"#utility.yul\":26011:26112   */\n    tag_197:\n        /* \"#utility.yul\":26047:26054   */\n      0x00\n        /* \"#utility.yul\":26087:26105   */\n      0xffffffffffffffff\n        /* \"#utility.yul\":26080:26085   */\n      dup3\n        /* \"#utility.yul\":26076:26106   */\n      and\n        /* \"#utility.yul\":26065:26106   */\n      swap1\n      pop\n        /* \"#utility.yul\":26011:26112   */\n      swap2\n      swap1\n      pop\n      jump\t// out\n        /* \"#utility.yul\":26118:26238   */\n    tag_198:\n        /* \"#utility.yul\":26190:26213   */\n      tag_494\n        /* \"#utility.yul\":26207:26212   */\n      dup2\n        /* \"#utility.yul\":26190:26213   */\n      tag_197\n      jump\t// in\n    tag_494:\n        /* \"#utility.yul\":26183:26188   */\n      dup2\n        /* \"#utility.yul\":26180:26214   */\n      eq\n        /* \"#utility.yul\":26170:26232   */\n      tag_495\n      jumpi\n        /* \"#utility.yul\":26228:26229   */\n      0x00\n        /* \"#utility.yul\":26225:26226   */\n      0x00\n        /* \"#utility.yul\":26218:26230   */\n      revert\n        /* \"#utility.yul\":26170:26232   */\n    tag_495:\n        /* \"#utility.yul\":26118:26238   */\n      pop\n      jump\t// out\n        /* \"#utility.yul\":26244:26385   */\n    tag_199:\n        /* \"#utility.yul\":26300:26305   */\n      0x00\n        /* \"#utility.yul\":26331:26337   */\n      dup2\n        /* \"#utility.yul\":26325:26338   */\n      mload\n        /* \"#utility.yul\":26316:26338   */\n      swap1\n      pop\n        /* \"#utility.yul\":26347:26379   */\n      tag_497\n        /* \"#utility.yul\":26373:26378   */\n      dup2\n        /* \"#utility.yul\":26347:26379   */\n      tag_198\n      jump\t// in\n    tag_497:\n        /* \"#utility.yul\":26244:26385   */\n      swap3\n      swap2\n      pop\n      pop\n      jump\t// out\n        /* \"#utility.yul\":26391:26740   */\n    tag_103:\n        /* \"#utility.yul\":26460:26466   */\n      0x00\n        /* \"#utility.yul\":26509:26511   */\n      0x20\n        /* \"#utility.yul\":26497:26506   */\n      dup3\n        /* \"#utility.yul\":26488:26495   */\n      dup5\n        /* \"#utility.yul\":26484:26507   */\n      sub\n        /* \"#utility.yul\":26480:26512   */\n      slt\n        /* \"#utility.yul\":26477:26596   */\n      iszero\n      tag_499\n      jumpi\n        /* \"#utility.yul\":26515:26594   */\n      tag_500\n      tag_124\n      jump\t// in\n    tag_500:\n        /* \"#utility.yul\":26477:26596   */\n    tag_499:\n        /* \"#utility.yul\":26635:26636   */\n      0x00\n        /* \"#utility.yul\":26660:26723   */\n      tag_501\n        /* \"#utility.yul\":26715:26722   */\n      dup5\n        /* \"#utility.yul\":26706:26712   */\n      dup3\n        /* \"#utility.yul\":26695:26704   */\n      dup6\n        /* \"#utility.yul\":26691:26713   */\n      add\n        /* \"#utility.yul\":26660:26723   */\n      tag_199\n      jump\t// in\n    tag_501:\n        /* \"#utility.yul\":26650:26723   */\n      swap2\n      pop\n        /* \"#utility.yul\":26606:26733   */\n      pop\n        /* \"#utility.yul\":26391:26740   */\n      swap3\n      swap2\n      pop\n      pop\n      jump\t// out\n\n    auxdata: 0xa2646970667358221220a0846bad153f896fbc171618e5d4e842e4e08ba26892b2ceb29347e7dd96d97764736f6c634300081b0033\n}\n",
				"bytecode": {
					"linkReferences": {},
					"object": "60a060405234801561000f575f5ffd5b506040516119e73803806119e78339818101604052810190610031919061025f565b335f73ffffffffffffffffffffffffffffffffffffffff168173ffffffffffffffffffffffffffffffffffffffff16036100a2575f6040517f1e4fbdf700000000000000000000000000000000000000000000000000000000815260040161009991906102ac565b60405180910390fd5b6100b18161010960201b60201c565b508173ffffffffffffffffffffffffffffffffffffffff1660808173ffffffffffffffffffffffffffffffffffffffff1681525050805f60146101000a81548161ffff021916908361ffff16021790555050506102c5565b5f5f5f9054906101000a900473ffffffffffffffffffffffffffffffffffffffff169050815f5f6101000a81548173ffffffffffffffffffffffffffffffffffffffff021916908373ffffffffffffffffffffffffffffffffffffffff1602179055508173ffffffffffffffffffffffffffffffffffffffff168173ffffffffffffffffffffffffffffffffffffffff167f8be0079c531659141344cd1fd0a4f28419497f9722a3daafe3b4186f6b6457e060405160405180910390a35050565b5f5ffd5b5f73ffffffffffffffffffffffffffffffffffffffff82169050919050565b5f6101f7826101ce565b9050919050565b610207816101ed565b8114610211575f5ffd5b50565b5f81519050610222816101fe565b92915050565b5f61ffff82169050919050565b61023e81610228565b8114610248575f5ffd5b50565b5f8151905061025981610235565b92915050565b5f5f60408385031215610275576102746101ca565b5b5f61028285828601610214565b92505060206102938582860161024b565b9150509250929050565b6102a6816101ed565b82525050565b5f6020820190506102bf5f83018461029d565b92915050565b6080516116f56102f25f395f8181610219015281816102c00152818161057a01526106f801526116f55ff3fe608060405260043610610090575f3560e01c8063afd4448811610058578063afd4448814610156578063c2362d0d14610172578063c439b0d91461019a578063da25b725146101c4578063f2fde38b146101ee57610090565b806328bd75ce14610094578063529dca32146100d0578063715018a6146100ec5780638da5cb5b14610102578063921b58a91461012c575b5f5ffd5b34801561009f575f5ffd5b506100ba60048036038101906100b59190610935565b610216565b6040516100c79190610978565b60405180910390f35b6100ea60048036038101906100e59190610be2565b6102be565b005b3480156100f7575f5ffd5b5061010061042c565b005b34801561010d575f5ffd5b5061011661043f565b6040516101239190610cd0565b60405180910390f35b348015610137575f5ffd5b50610140610466565b60405161014d9190610d49565b60405180910390f35b610170600480360381019061016b9190610e31565b6104f2565b005b34801561017d575f5ffd5b5061019860048036038101906101939190610e9d565b610649565b005b3480156101a5575f5ffd5b506101ae6106e3565b6040516101bb9190610eea565b60405180910390f35b3480156101cf575f5ffd5b506101d86106f6565b6040516101e59190610f5e565b60405180910390f35b3480156101f9575f5ffd5b50610214600480360381019061020f9190610f77565b61071a565b005b5f7f000000000000000000000000000000000000000000000000000000000000000073ffffffffffffffffffffffffffffffffffffffff1663c23ee3c3835f61c3506040518463ffffffff1660e01b815260040161027693929190610fdb565b6040805180830381865afa158015610290573d5f5f3e3d5ffd5b505050506040513d601f19601f820116820180604052508101906102b4919061103a565b5080915050919050565b7f000000000000000000000000000000000000000000000000000000000000000073ffffffffffffffffffffffffffffffffffffffff163373ffffffffffffffffffffffffffffffffffffffff161461034c576040517f08c379a0000000000000000000000000000000000000000000000000000000008152600401610343906110c2565b60405180910390fd5b825f1c73ffffffffffffffffffffffffffffffffffffffff1660025f8461ffff1661ffff1681526020019081526020015f205f9054906101000a900473ffffffffffffffffffffffffffffffffffffffff1673ffffffffffffffffffffffffffffffffffffffff16146103bd575f5ffd5b5f5f868060200190518101906103d39190611189565b9150915081600190816103e691906113d7565b507f5c4ab0cfb98525b63324629eb8c98352dec2bece203410170311b784050546766001858360405161041b93929190611527565b60405180910390a150505050505050565b61043461079e565b61043d5f610825565b565b5f5f5f9054906101000a900473ffffffffffffffffffffffffffffffffffffffff16905090565b6001805461047390611210565b80601f016020809104026020016040519081016040528092919081815260200182805461049f90611210565b80156104ea5780601f106104c1576101008083540402835291602001916104ea565b820191905f5260205f20905b8154815290600101906020018083116104cd57829003601f168201915b505050505081565b5f6104fc84610216565b9050803414610509575f5ffd5b8273ffffffffffffffffffffffffffffffffffffffff1660025f8661ffff1661ffff1681526020019081526020015f205f9054906101000a900473ffffffffffffffffffffffffffffffffffffffff1673ffffffffffffffffffffffffffffffffffffffff1614610578575f5ffd5b7f000000000000000000000000000000000000000000000000000000000000000073ffffffffffffffffffffffffffffffffffffffff16634b5ca6f482868686336040516020016105ca929190611563565b6040516020818303038152906040525f61c3508b336040518963ffffffff1660e01b815260040161060197969594939291906115e3565b60206040518083038185885af115801561061d573d5f5f3e3d5ffd5b50505050506040513d601f19601f820116820180604052508101906106429190611694565b5050505050565b61065161079e565b5f73ffffffffffffffffffffffffffffffffffffffff168173ffffffffffffffffffffffffffffffffffffffff1603610688575f5ffd5b8060025f8461ffff1661ffff1681526020019081526020015f205f6101000a81548173ffffffffffffffffffffffffffffffffffffffff021916908373ffffffffffffffffffffffffffffffffffffffff1602179055505050565b5f60149054906101000a900461ffff1681565b7f000000000000000000000000000000000000000000000000000000000000000081565b61072261079e565b5f73ffffffffffffffffffffffffffffffffffffffff168173ffffffffffffffffffffffffffffffffffffffff1603610792575f6040517f1e4fbdf70000000000000000000000000000000000000000000000000000000081526004016107899190610cd0565b60405180910390fd5b61079b81610825565b50565b6107a66108e6565b73ffffffffffffffffffffffffffffffffffffffff166107c461043f565b73ffffffffffffffffffffffffffffffffffffffff1614610823576107e76108e6565b6040517f118cdaa700000000000000000000000000000000000000000000000000000000815260040161081a9190610cd0565b60405180910390fd5b565b5f5f5f9054906101000a900473ffffffffffffffffffffffffffffffffffffffff169050815f5f6101000a81548173ffffffffffffffffffffffffffffffffffffffff021916908373ffffffffffffffffffffffffffffffffffffffff1602179055508173ffffffffffffffffffffffffffffffffffffffff168173ffffffffffffffffffffffffffffffffffffffff167f8be0079c531659141344cd1fd0a4f28419497f9722a3daafe3b4186f6b6457e060405160405180910390a35050565b5f33905090565b5f604051905090565b5f5ffd5b5f5ffd5b5f61ffff82169050919050565b610914816108fe565b811461091e575f5ffd5b50565b5f8135905061092f8161090b565b92915050565b5f6020828403121561094a576109496108f6565b5b5f61095784828501610921565b91505092915050565b5f819050919050565b61097281610960565b82525050565b5f60208201905061098b5f830184610969565b92915050565b5f5ffd5b5f5ffd5b5f601f19601f8301169050919050565b7f4e487b71000000000000000000000000000000000000000000000000000000005f52604160045260245ffd5b6109df82610999565b810181811067ffffffffffffffff821117156109fe576109fd6109a9565b5b80604052505050565b5f610a106108ed565b9050610a1c82826109d6565b919050565b5f67ffffffffffffffff821115610a3b57610a3a6109a9565b5b610a4482610999565b9050602081019050919050565b828183375f83830152505050565b5f610a71610a6c84610a21565b610a07565b905082815260208101848484011115610a8d57610a8c610995565b5b610a98848285610a51565b509392505050565b5f82601f830112610ab457610ab3610991565b5b8135610ac4848260208601610a5f565b91505092915050565b5f67ffffffffffffffff821115610ae757610ae66109a9565b5b602082029050602081019050919050565b5f5ffd5b5f610b0e610b0984610acd565b610a07565b90508083825260208201905060208402830185811115610b3157610b30610af8565b5b835b81811015610b7857803567ffffffffffffffff811115610b5657610b55610991565b5b808601610b638982610aa0565b85526020850194505050602081019050610b33565b5050509392505050565b5f82601f830112610b9657610b95610991565b5b8135610ba6848260208601610afc565b91505092915050565b5f819050919050565b610bc181610baf565b8114610bcb575f5ffd5b50565b5f81359050610bdc81610bb8565b92915050565b5f5f5f5f5f60a08688031215610bfb57610bfa6108f6565b5b5f86013567ffffffffffffffff811115610c1857610c176108fa565b5b610c2488828901610aa0565b955050602086013567ffffffffffffffff811115610c4557610c446108fa565b5b610c5188828901610b82565b9450506040610c6288828901610bce565b9350506060610c7388828901610921565b9250506080610c8488828901610bce565b9150509295509295909350565b5f73ffffffffffffffffffffffffffffffffffffffff82169050919050565b5f610cba82610c91565b9050919050565b610cca81610cb0565b82525050565b5f602082019050610ce35f830184610cc1565b92915050565b5f81519050919050565b5f82825260208201905092915050565b8281835e5f83830152505050565b5f610d1b82610ce9565b610d258185610cf3565b9350610d35818560208601610d03565b610d3e81610999565b840191505092915050565b5f6020820190508181035f830152610d618184610d11565b905092915050565b610d7281610cb0565b8114610d7c575f5ffd5b50565b5f81359050610d8d81610d69565b92915050565b5f67ffffffffffffffff821115610dad57610dac6109a9565b5b610db682610999565b9050602081019050919050565b5f610dd5610dd084610d93565b610a07565b905082815260208101848484011115610df157610df0610995565b5b610dfc848285610a51565b509392505050565b5f82601f830112610e1857610e17610991565b5b8135610e28848260208601610dc3565b91505092915050565b5f5f5f60608486031215610e4857610e476108f6565b5b5f610e5586828701610921565b9350506020610e6686828701610d7f565b925050604084013567ffffffffffffffff811115610e8757610e866108fa565b5b610e9386828701610e04565b9150509250925092565b5f5f60408385031215610eb357610eb26108f6565b5b5f610ec085828601610921565b9250506020610ed185828601610d7f565b9150509250929050565b610ee4816108fe565b82525050565b5f602082019050610efd5f830184610edb565b92915050565b5f819050919050565b5f610f26610f21610f1c84610c91565b610f03565b610c91565b9050919050565b5f610f3782610f0c565b9050919050565b5f610f4882610f2d565b9050919050565b610f5881610f3e565b82525050565b5f602082019050610f715f830184610f4f565b92915050565b5f60208284031215610f8c57610f8b6108f6565b5b5f610f9984828501610d7f565b91505092915050565b5f819050919050565b5f610fc5610fc0610fbb84610fa2565b610f03565b610960565b9050919050565b610fd581610fab565b82525050565b5f606082019050610fee5f830186610edb565b610ffb6020830185610fcc565b6110086040830184610969565b949350505050565b61101981610960565b8114611023575f5ffd5b50565b5f8151905061103481611010565b92915050565b5f5f604083850312156110505761104f6108f6565b5b5f61105d85828601611026565b925050602061106e85828601611026565b9150509250929050565b7f4f6e6c792072656c6179657220616c6c6f7765640000000000000000000000005f82015250565b5f6110ac601483610cf3565b91506110b782611078565b602082019050919050565b5f6020820190508181035f8301526110d9816110a0565b9050919050565b5f6110f26110ed84610d93565b610a07565b90508281526020810184848401111561110e5761110d610995565b5b611119848285610d03565b509392505050565b5f82601f83011261113557611134610991565b5b81516111458482602086016110e0565b91505092915050565b5f61115882610c91565b9050919050565b6111688161114e565b8114611172575f5ffd5b50565b5f815190506111838161115f565b92915050565b5f5f6040838503121561119f5761119e6108f6565b5b5f83015167ffffffffffffffff8111156111bc576111bb6108fa565b5b6111c885828601611121565b92505060206111d985828601611175565b9150509250929050565b7f4e487b71000000000000000000000000000000000000000000000000000000005f52602260045260245ffd5b5f600282049050600182168061122757607f821691505b60208210810361123a576112396111e3565b5b50919050565b5f819050815f5260205f209050919050565b5f6020601f8301049050919050565b5f82821b905092915050565b5f6008830261129c7fffffffffffffffffffffffffffffffffffffffffffffffffffffffffffffffff82611261565b6112a68683611261565b95508019841693508086168417925050509392505050565b5f6112d86112d36112ce84610960565b610f03565b610960565b9050919050565b5f819050919050565b6112f1836112be565b6113056112fd826112df565b84845461126d565b825550505050565b5f5f905090565b61131c61130d565b6113278184846112e8565b505050565b5b8181101561134a5761133f5f82611314565b60018101905061132d565b5050565b601f82111561138f5761136081611240565b61136984611252565b81016020851015611378578190505b61138c61138485611252565b83018261132c565b50505b505050565b5f82821c905092915050565b5f6113af5f1984600802611394565b1980831691505092915050565b5f6113c783836113a0565b9150826002028217905092915050565b6113e082610ce9565b67ffffffffffffffff8111156113f9576113f86109a9565b5b6114038254611210565b61140e82828561134e565b5f60209050601f83116001811461143f575f841561142d578287015190505b61143785826113bc565b86555061149e565b601f19841661144d86611240565b5f5b828110156114745784890151825560018201915060208501945060208101905061144f565b86831015611491578489015161148d601f8916826113a0565b8355505b6001600288020188555050505b505050505050565b5f81546114b281611210565b6114bc8186610cf3565b9450600182165f81146114d657600181146114ec5761151e565b60ff19831686528115156020028601935061151e565b6114f585611240565b5f5b83811015611516578154818901526001820191506020810190506114f7565b808801955050505b50505092915050565b5f6060820190508181035f83015261153f81866114a6565b905061154e6020830185610edb565b61155b6040830184610cc1565b949350505050565b5f6040820190508181035f83015261157b8185610d11565b905061158a6020830184610cc1565b9392505050565b5f81519050919050565b5f82825260208201905092915050565b5f6115b582611591565b6115bf818561159b565b93506115cf818560208601610d03565b6115d881610999565b840191505092915050565b5f60e0820190506115f65f83018a610edb565b6116036020830189610cc1565b818103604083015261161581886115ab565b90506116246060830187610fcc565b6116316080830186610969565b61163e60a0830185610edb565b61164b60c0830184610cc1565b98975050505050505050565b5f67ffffffffffffffff82169050919050565b61167381611657565b811461167d575f5ffd5b50565b5f8151905061168e8161166a565b92915050565b5f602082840312156116a9576116a86108f6565b5b5f6116b684828501611680565b9150509291505056fea2646970667358221220a0846bad153f896fbc171618e5d4e842e4e08ba26892b2ceb29347e7dd96d97764736f6c634300081b0033",
					"opcodes": "PUSH1 0xA0 PUSH1 0x40 MSTORE CALLVALUE DUP1 ISZERO PUSH2 0xF JUMPI PUSH0 PUSH0 REVERT JUMPDEST POP PUSH1 0x40 MLOAD PUSH2 0x19E7 CODESIZE SUB DUP1 PUSH2 0x19E7 DUP4 CODECOPY DUP2 DUP2 ADD PUSH1 0x40 MSTORE DUP2 ADD SWAP1 PUSH2 0x31 SWAP2 SWAP1 PUSH2 0x25F JUMP JUMPDEST CALLER PUSH0 PUSH20 0xFFFFFFFFFFFFFFFFFFFFFFFFFFFFFFFFFFFFFFFF AND DUP2 PUSH20 0xFFFFFFFFFFFFFFFFFFFFFFFFFFFFFFFFFFFFFFFF AND SUB PUSH2 0xA2 JUMPI PUSH0 PUSH1 0x40 MLOAD PUSH32 0x1E4FBDF700000000000000000000000000000000000000000000000000000000 DUP2 MSTORE PUSH1 0x4 ADD PUSH2 0x99 SWAP2 SWAP1 PUSH2 0x2AC JUMP JUMPDEST PUSH1 0x40 MLOAD DUP1 SWAP2 SUB SWAP1 REVERT JUMPDEST PUSH2 0xB1 DUP2 PUSH2 0x109 PUSH1 0x20 SHL PUSH1 0x20 SHR JUMP JUMPDEST POP DUP2 PUSH20 0xFFFFFFFFFFFFFFFFFFFFFFFFFFFFFFFFFFFFFFFF AND PUSH1 0x80 DUP2 PUSH20 0xFFFFFFFFFFFFFFFFFFFFFFFFFFFFFFFFFFFFFFFF AND DUP2 MSTORE POP POP DUP1 PUSH0 PUSH1 0x14 PUSH2 0x100 EXP DUP2 SLOAD DUP2 PUSH2 0xFFFF MUL NOT AND SWAP1 DUP4 PUSH2 0xFFFF AND MUL OR SWAP1 SSTORE POP POP POP PUSH2 0x2C5 JUMP JUMPDEST PUSH0 PUSH0 PUSH0 SWAP1 SLOAD SWAP1 PUSH2 0x100 EXP SWAP1 DIV PUSH20 0xFFFFFFFFFFFFFFFFFFFFFFFFFFFFFFFFFFFFFFFF AND SWAP1 POP DUP2 PUSH0 PUSH0 PUSH2 0x100 EXP DUP2 SLOAD DUP2 PUSH20 0xFFFFFFFFFFFFFFFFFFFFFFFFFFFFFFFFFFFFFFFF MUL NOT AND SWAP1 DUP4 PUSH20 0xFFFFFFFFFFFFFFFFFFFFFFFFFFFFFFFFFFFFFFFF AND MUL OR SWAP1 SSTORE POP DUP2 PUSH20 0xFFFFFFFFFFFFFFFFFFFFFFFFFFFFFFFFFFFFFFFF AND DUP2 PUSH20 0xFFFFFFFFFFFFFFFFFFFFFFFFFFFFFFFFFFFFFFFF AND PUSH32 0x8BE0079C531659141344CD1FD0A4F28419497F9722A3DAAFE3B4186F6B6457E0 PUSH1 0x40 MLOAD PUSH1 0x40 MLOAD DUP1 SWAP2 SUB SWAP1 LOG3 POP POP JUMP JUMPDEST PUSH0 PUSH0 REVERT JUMPDEST PUSH0 PUSH20 0xFFFFFFFFFFFFFFFFFFFFFFFFFFFFFFFFFFFFFFFF DUP3 AND SWAP1 POP SWAP2 SWAP1 POP JUMP JUMPDEST PUSH0 PUSH2 0x1F7 DUP3 PUSH2 0x1CE JUMP JUMPDEST SWAP1 POP SWAP2 SWAP1 POP JUMP JUMPDEST PUSH2 0x207 DUP2 PUSH2 0x1ED JUMP JUMPDEST DUP2 EQ PUSH2 0x211 JUMPI PUSH0 PUSH0 REVERT JUMPDEST POP JUMP JUMPDEST PUSH0 DUP2 MLOAD SWAP1 POP PUSH2 0x222 DUP2 PUSH2 0x1FE JUMP JUMPDEST SWAP3 SWAP2 POP POP JUMP JUMPDEST PUSH0 PUSH2 0xFFFF DUP3 AND SWAP1 POP SWAP2 SWAP1 POP JUMP JUMPDEST PUSH2 0x23E DUP2 PUSH2 0x228 JUMP JUMPDEST DUP2 EQ PUSH2 0x248 JUMPI PUSH0 PUSH0 REVERT JUMPDEST POP JUMP JUMPDEST PUSH0 DUP2 MLOAD SWAP1 POP PUSH2 0x259 DUP2 PUSH2 0x235 JUMP JUMPDEST SWAP3 SWAP2 POP POP JUMP JUMPDEST PUSH0 PUSH0 PUSH1 0x40 DUP4 DUP6 SUB SLT ISZERO PUSH2 0x275 JUMPI PUSH2 0x274 PUSH2 0x1CA JUMP JUMPDEST JUMPDEST PUSH0 PUSH2 0x282 DUP6 DUP3 DUP7 ADD PUSH2 0x214 JUMP JUMPDEST SWAP3 POP POP PUSH1 0x20 PUSH2 0x293 DUP6 DUP3 DUP7 ADD PUSH2 0x24B JUMP JUMPDEST SWAP2 POP POP SWAP3 POP SWAP3 SWAP1 POP JUMP JUMPDEST PUSH2 0x2A6 DUP2 PUSH2 0x1ED JUMP JUMPDEST DUP3 MSTORE POP POP JUMP JUMPDEST PUSH0 PUSH1 0x20 DUP3 ADD SWAP1 POP PUSH2 0x2BF PUSH0 DUP4 ADD DUP5 PUSH2 0x29D JUMP JUMPDEST SWAP3 SWAP2 POP POP JUMP JUMPDEST PUSH1 0x80 MLOAD PUSH2 0x16F5 PUSH2 0x2F2 PUSH0 CODECOPY PUSH0 DUP2 DUP2 PUSH2 0x219 ADD MSTORE DUP2 DUP2 PUSH2 0x2C0 ADD MSTORE DUP2 DUP2 PUSH2 0x57A ADD MSTORE PUSH2 0x6F8 ADD MSTORE PUSH2 0x16F5 PUSH0 RETURN INVALID PUSH1 0x80 PUSH1 0x40 MSTORE PUSH1 0x4 CALLDATASIZE LT PUSH2 0x90 JUMPI PUSH0 CALLDATALOAD PUSH1 0xE0 SHR DUP1 PUSH4 0xAFD44488 GT PUSH2 0x58 JUMPI DUP1 PUSH4 0xAFD44488 EQ PUSH2 0x156 JUMPI DUP1 PUSH4 0xC2362D0D EQ PUSH2 0x172 JUMPI DUP1 PUSH4 0xC439B0D9 EQ PUSH2 0x19A JUMPI DUP1 PUSH4 0xDA25B725 EQ PUSH2 0x1C4 JUMPI DUP1 PUSH4 0xF2FDE38B EQ PUSH2 0x1EE JUMPI PUSH2 0x90 JUMP JUMPDEST DUP1 PUSH4 0x28BD75CE EQ PUSH2 0x94 JUMPI DUP1 PUSH4 0x529DCA32 EQ PUSH2 0xD0 JUMPI DUP1 PUSH4 0x715018A6 EQ PUSH2 0xEC JUMPI DUP1 PUSH4 0x8DA5CB5B EQ PUSH2 0x102 JUMPI DUP1 PUSH4 0x921B58A9 EQ PUSH2 0x12C JUMPI JUMPDEST PUSH0 PUSH0 REVERT JUMPDEST CALLVALUE DUP1 ISZERO PUSH2 0x9F JUMPI PUSH0 PUSH0 REVERT JUMPDEST POP PUSH2 0xBA PUSH1 0x4 DUP1 CALLDATASIZE SUB DUP2 ADD SWAP1 PUSH2 0xB5 SWAP2 SWAP1 PUSH2 0x935 JUMP JUMPDEST PUSH2 0x216 JUMP JUMPDEST PUSH1 0x40 MLOAD PUSH2 0xC7 SWAP2 SWAP1 PUSH2 0x978 JUMP JUMPDEST PUSH1 0x40 MLOAD DUP1 SWAP2 SUB SWAP1 RETURN JUMPDEST PUSH2 0xEA PUSH1 0x4 DUP1 CALLDATASIZE SUB DUP2 ADD SWAP1 PUSH2 0xE5 SWAP2 SWAP1 PUSH2 0xBE2 JUMP JUMPDEST PUSH2 0x2BE JUMP JUMPDEST STOP JUMPDEST CALLVALUE DUP1 ISZERO PUSH2 0xF7 JUMPI PUSH0 PUSH0 REVERT JUMPDEST POP PUSH2 0x100 PUSH2 0x42C JUMP JUMPDEST STOP JUMPDEST CALLVALUE DUP1 ISZERO PUSH2 0x10D JUMPI PUSH0 PUSH0 REVERT JUMPDEST POP PUSH2 0x116 PUSH2 0x43F JUMP JUMPDEST PUSH1 0x40 MLOAD PUSH2 0x123 SWAP2 SWAP1 PUSH2 0xCD0 JUMP JUMPDEST PUSH1 0x40 MLOAD DUP1 SWAP2 SUB SWAP1 RETURN JUMPDEST CALLVALUE DUP1 ISZERO PUSH2 0x137 JUMPI PUSH0 PUSH0 REVERT JUMPDEST POP PUSH2 0x140 PUSH2 0x466 JUMP JUMPDEST PUSH1 0x40 MLOAD PUSH2 0x14D SWAP2 SWAP1 PUSH2 0xD49 JUMP JUMPDEST PUSH1 0x40 MLOAD DUP1 SWAP2 SUB SWAP1 RETURN JUMPDEST PUSH2 0x170 PUSH1 0x4 DUP1 CALLDATASIZE SUB DUP2 ADD SWAP1 PUSH2 0x16B SWAP2 SWAP1 PUSH2 0xE31 JUMP JUMPDEST PUSH2 0x4F2 JUMP JUMPDEST STOP JUMPDEST CALLVALUE DUP1 ISZERO PUSH2 0x17D JUMPI PUSH0 PUSH0 REVERT JUMPDEST POP PUSH2 0x198 PUSH1 0x4 DUP1 CALLDATASIZE SUB DUP2 ADD SWAP1 PUSH2 0x193 SWAP2 SWAP1 PUSH2 0xE9D JUMP JUMPDEST PUSH2 0x649 JUMP JUMPDEST STOP JUMPDEST CALLVALUE DUP1 ISZERO PUSH2 0x1A5 JUMPI PUSH0 PUSH0 REVERT JUMPDEST POP PUSH2 0x1AE PUSH2 0x6E3 JUMP JUMPDEST PUSH1 0x40 MLOAD PUSH2 0x1BB SWAP2 SWAP1 PUSH2 0xEEA JUMP JUMPDEST PUSH1 0x40 MLOAD DUP1 SWAP2 SUB SWAP1 RETURN JUMPDEST CALLVALUE DUP1 ISZERO PUSH2 0x1CF JUMPI PUSH0 PUSH0 REVERT JUMPDEST POP PUSH2 0x1D8 PUSH2 0x6F6 JUMP JUMPDEST PUSH1 0x40 MLOAD PUSH2 0x1E5 SWAP2 SWAP1 PUSH2 0xF5E JUMP JUMPDEST PUSH1 0x40 MLOAD DUP1 SWAP2 SUB SWAP1 RETURN JUMPDEST CALLVALUE DUP1 ISZERO PUSH2 0x1F9 JUMPI PUSH0 PUSH0 REVERT JUMPDEST POP PUSH2 0x214 PUSH1 0x4 DUP1 CALLDATASIZE SUB DUP2 ADD SWAP1 PUSH2 0x20F SWAP2 SWAP1 PUSH2 0xF77 JUMP JUMPDEST PUSH2 0x71A JUMP JUMPDEST STOP JUMPDEST PUSH0 PUSH32 0x0 PUSH20 0xFFFFFFFFFFFFFFFFFFFFFFFFFFFFFFFFFFFFFFFF AND PUSH4 0xC23EE3C3 DUP4 PUSH0 PUSH2 0xC350 PUSH1 0x40 MLOAD DUP5 PUSH4 0xFFFFFFFF AND PUSH1 0xE0 SHL DUP2 MSTORE PUSH1 0x4 ADD PUSH2 0x276 SWAP4 SWAP3 SWAP2 SWAP1 PUSH2 0xFDB JUMP JUMPDEST PUSH1 0x40 DUP1 MLOAD DUP1 DUP4 SUB DUP2 DUP7 GAS STATICCALL ISZERO DUP1 ISZERO PUSH2 0x290 JUMPI RETURNDATASIZE PUSH0 PUSH0 RETURNDATACOPY RETURNDATASIZE PUSH0 REVERT JUMPDEST POP POP POP POP PUSH1 0x40 MLOAD RETURNDATASIZE PUSH1 0x1F NOT PUSH1 0x1F DUP3 ADD AND DUP3 ADD DUP1 PUSH1 0x40 MSTORE POP DUP2 ADD SWAP1 PUSH2 0x2B4 SWAP2 SWAP1 PUSH2 0x103A JUMP JUMPDEST POP DUP1 SWAP2 POP POP SWAP2 SWAP1 POP JUMP JUMPDEST PUSH32 0x0 PUSH20 0xFFFFFFFFFFFFFFFFFFFFFFFFFFFFFFFFFFFFFFFF AND CALLER PUSH20 0xFFFFFFFFFFFFFFFFFFFFFFFFFFFFFFFFFFFFFFFF AND EQ PUSH2 0x34C JUMPI PUSH1 0x40 MLOAD PUSH32 0x8C379A000000000000000000000000000000000000000000000000000000000 DUP2 MSTORE PUSH1 0x4 ADD PUSH2 0x343 SWAP1 PUSH2 0x10C2 JUMP JUMPDEST PUSH1 0x40 MLOAD DUP1 SWAP2 SUB SWAP1 REVERT JUMPDEST DUP3 PUSH0 SHR PUSH20 0xFFFFFFFFFFFFFFFFFFFFFFFFFFFFFFFFFFFFFFFF AND PUSH1 0x2 PUSH0 DUP5 PUSH2 0xFFFF AND PUSH2 0xFFFF AND DUP2 MSTORE PUSH1 0x20 ADD SWAP1 DUP2 MSTORE PUSH1 0x20 ADD PUSH0 KECCAK256 PUSH0 SWAP1 SLOAD SWAP1 PUSH2 0x100 EXP SWAP1 DIV PUSH20 0xFFFFFFFFFFFFFFFFFFFFFFFFFFFFFFFFFFFFFFFF AND PUSH20 0xFFFFFFFFFFFFFFFFFFFFFFFFFFFFFFFFFFFFFFFF AND EQ PUSH2 0x3BD JUMPI PUSH0 PUSH0 REVERT JUMPDEST PUSH0 PUSH0 DUP7 DUP1 PUSH1 0x20 ADD SWAP1 MLOAD DUP2 ADD SWAP1 PUSH2 0x3D3 SWAP2 SWAP1 PUSH2 0x1189 JUMP JUMPDEST SWAP2 POP SWAP2 POP DUP2 PUSH1 0x1 SWAP1 DUP2 PUSH2 0x3E6 SWAP2 SWAP1 PUSH2 0x13D7 JUMP JUMPDEST POP PUSH32 0x5C4AB0CFB98525B63324629EB8C98352DEC2BECE203410170311B78405054676 PUSH1 0x1 DUP6 DUP4 PUSH1 0x40 MLOAD PUSH2 0x41B SWAP4 SWAP3 SWAP2 SWAP1 PUSH2 0x1527 JUMP JUMPDEST PUSH1 0x40 MLOAD DUP1 SWAP2 SUB SWAP1 LOG1 POP POP POP POP POP POP POP JUMP JUMPDEST PUSH2 0x434 PUSH2 0x79E JUMP JUMPDEST PUSH2 0x43D PUSH0 PUSH2 0x825 JUMP JUMPDEST JUMP JUMPDEST PUSH0 PUSH0 PUSH0 SWAP1 SLOAD SWAP1 PUSH2 0x100 EXP SWAP1 DIV PUSH20 0xFFFFFFFFFFFFFFFFFFFFFFFFFFFFFFFFFFFFFFFF AND SWAP1 POP SWAP1 JUMP JUMPDEST PUSH1 0x1 DUP1 SLOAD PUSH2 0x473 SWAP1 PUSH2 0x1210 JUMP JUMPDEST DUP1 PUSH1 0x1F ADD PUSH1 0x20 DUP1 SWAP2 DIV MUL PUSH1 0x20 ADD PUSH1 0x40 MLOAD SWAP1 DUP2 ADD PUSH1 0x40 MSTORE DUP1 SWAP3 SWAP2 SWAP1 DUP2 DUP2 MSTORE PUSH1 0x20 ADD DUP3 DUP1 SLOAD PUSH2 0x49F SWAP1 PUSH2 0x1210 JUMP JUMPDEST DUP1 ISZERO PUSH2 0x4EA JUMPI DUP1 PUSH1 0x1F LT PUSH2 0x4C1 JUMPI PUSH2 0x100 DUP1 DUP4 SLOAD DIV MUL DUP4 MSTORE SWAP2 PUSH1 0x20 ADD SWAP2 PUSH2 0x4EA JUMP JUMPDEST DUP3 ADD SWAP2 SWAP1 PUSH0 MSTORE PUSH1 0x20 PUSH0 KECCAK256 SWAP1 JUMPDEST DUP2 SLOAD DUP2 MSTORE SWAP1 PUSH1 0x1 ADD SWAP1 PUSH1 0x20 ADD DUP1 DUP4 GT PUSH2 0x4CD JUMPI DUP3 SWAP1 SUB PUSH1 0x1F AND DUP3 ADD SWAP2 JUMPDEST POP POP POP POP POP DUP2 JUMP JUMPDEST PUSH0 PUSH2 0x4FC DUP5 PUSH2 0x216 JUMP JUMPDEST SWAP1 POP DUP1 CALLVALUE EQ PUSH2 0x509 JUMPI PUSH0 PUSH0 REVERT JUMPDEST DUP3 PUSH20 0xFFFFFFFFFFFFFFFFFFFFFFFFFFFFFFFFFFFFFFFF AND PUSH1 0x2 PUSH0 DUP7 PUSH2 0xFFFF AND PUSH2 0xFFFF AND DUP2 MSTORE PUSH1 0x20 ADD SWAP1 DUP2 MSTORE PUSH1 0x20 ADD PUSH0 KECCAK256 PUSH0 SWAP1 SLOAD SWAP1 PUSH2 0x100 EXP SWAP1 DIV PUSH20 0xFFFFFFFFFFFFFFFFFFFFFFFFFFFFFFFFFFFFFFFF AND PUSH20 0xFFFFFFFFFFFFFFFFFFFFFFFFFFFFFFFFFFFFFFFF AND EQ PUSH2 0x578 JUMPI PUSH0 PUSH0 REVERT JUMPDEST PUSH32 0x0 PUSH20 0xFFFFFFFFFFFFFFFFFFFFFFFFFFFFFFFFFFFFFFFF AND PUSH4 0x4B5CA6F4 DUP3 DUP7 DUP7 DUP7 CALLER PUSH1 0x40 MLOAD PUSH1 0x20 ADD PUSH2 0x5CA SWAP3 SWAP2 SWAP1 PUSH2 0x1563 JUMP JUMPDEST PUSH1 0x40 MLOAD PUSH1 0x20 DUP2 DUP4 SUB SUB DUP2 MSTORE SWAP1 PUSH1 0x40 MSTORE PUSH0 PUSH2 0xC350 DUP12 CALLER PUSH1 0x40 MLOAD DUP10 PUSH4 0xFFFFFFFF AND PUSH1 0xE0 SHL DUP2 MSTORE PUSH1 0x4 ADD PUSH2 0x601 SWAP8 SWAP7 SWAP6 SWAP5 SWAP4 SWAP3 SWAP2 SWAP1 PUSH2 0x15E3 JUMP JUMPDEST PUSH1 0x20 PUSH1 0x40 MLOAD DUP1 DUP4 SUB DUP2 DUP6 DUP9 GAS CALL ISZERO DUP1 ISZERO PUSH2 0x61D JUMPI RETURNDATASIZE PUSH0 PUSH0 RETURNDATACOPY RETURNDATASIZE PUSH0 REVERT JUMPDEST POP POP POP POP POP PUSH1 0x40 MLOAD RETURNDATASIZE PUSH1 0x1F NOT PUSH1 0x1F DUP3 ADD AND DUP3 ADD DUP1 PUSH1 0x40 MSTORE POP DUP2 ADD SWAP1 PUSH2 0x642 SWAP2 SWAP1 PUSH2 0x1694 JUMP JUMPDEST POP POP POP POP POP JUMP JUMPDEST PUSH2 0x651 PUSH2 0x79E JUMP JUMPDEST PUSH0 PUSH20 0xFFFFFFFFFFFFFFFFFFFFFFFFFFFFFFFFFFFFFFFF AND DUP2 PUSH20 0xFFFFFFFFFFFFFFFFFFFFFFFFFFFFFFFFFFFFFFFF AND SUB PUSH2 0x688 JUMPI PUSH0 PUSH0 REVERT JUMPDEST DUP1 PUSH1 0x2 PUSH0 DUP5 PUSH2 0xFFFF AND PUSH2 0xFFFF AND DUP2 MSTORE PUSH1 0x20 ADD SWAP1 DUP2 MSTORE PUSH1 0x20 ADD PUSH0 KECCAK256 PUSH0 PUSH2 0x100 EXP DUP2 SLOAD DUP2 PUSH20 0xFFFFFFFFFFFFFFFFFFFFFFFFFFFFFFFFFFFFFFFF MUL NOT AND SWAP1 DUP4 PUSH20 0xFFFFFFFFFFFFFFFFFFFFFFFFFFFFFFFFFFFFFFFF AND MUL OR SWAP1 SSTORE POP POP POP JUMP JUMPDEST PUSH0 PUSH1 0x14 SWAP1 SLOAD SWAP1 PUSH2 0x100 EXP SWAP1 DIV PUSH2 0xFFFF AND DUP2 JUMP JUMPDEST PUSH32 0x0 DUP2 JUMP JUMPDEST PUSH2 0x722 PUSH2 0x79E JUMP JUMPDEST PUSH0 PUSH20 0xFFFFFFFFFFFFFFFFFFFFFFFFFFFFFFFFFFFFFFFF AND DUP2 PUSH20 0xFFFFFFFFFFFFFFFFFFFFFFFFFFFFFFFFFFFFFFFF AND SUB PUSH2 0x792 JUMPI PUSH0 PUSH1 0x40 MLOAD PUSH32 0x1E4FBDF700000000000000000000000000000000000000000000000000000000 DUP2 MSTORE PUSH1 0x4 ADD PUSH2 0x789 SWAP2 SWAP1 PUSH2 0xCD0 JUMP JUMPDEST PUSH1 0x40 MLOAD DUP1 SWAP2 SUB SWAP1 REVERT JUMPDEST PUSH2 0x79B DUP2 PUSH2 0x825 JUMP JUMPDEST POP JUMP JUMPDEST PUSH2 0x7A6 PUSH2 0x8E6 JUMP JUMPDEST PUSH20 0xFFFFFFFFFFFFFFFFFFFFFFFFFFFFFFFFFFFFFFFF AND PUSH2 0x7C4 PUSH2 0x43F JUMP JUMPDEST PUSH20 0xFFFFFFFFFFFFFFFFFFFFFFFFFFFFFFFFFFFFFFFF AND EQ PUSH2 0x823 JUMPI PUSH2 0x7E7 PUSH2 0x8E6 JUMP JUMPDEST PUSH1 0x40 MLOAD PUSH32 0x118CDAA700000000000000000000000000000000000000000000000000000000 DUP2 MSTORE PUSH1 0x4 ADD PUSH2 0x81A SWAP2 SWAP1 PUSH2 0xCD0 JUMP JUMPDEST PUSH1 0x40 MLOAD DUP1 SWAP2 SUB SWAP1 REVERT JUMPDEST JUMP JUMPDEST PUSH0 PUSH0 PUSH0 SWAP1 SLOAD SWAP1 PUSH2 0x100 EXP SWAP1 DIV PUSH20 0xFFFFFFFFFFFFFFFFFFFFFFFFFFFFFFFFFFFFFFFF AND SWAP1 POP DUP2 PUSH0 PUSH0 PUSH2 0x100 EXP DUP2 SLOAD DUP2 PUSH20 0xFFFFFFFFFFFFFFFFFFFFFFFFFFFFFFFFFFFFFFFF MUL NOT AND SWAP1 DUP4 PUSH20 0xFFFFFFFFFFFFFFFFFFFFFFFFFFFFFFFFFFFFFFFF AND MUL OR SWAP1 SSTORE POP DUP2 PUSH20 0xFFFFFFFFFFFFFFFFFFFFFFFFFFFFFFFFFFFFFFFF AND DUP2 PUSH20 0xFFFFFFFFFFFFFFFFFFFFFFFFFFFFFFFFFFFFFFFF AND PUSH32 0x8BE0079C531659141344CD1FD0A4F28419497F9722A3DAAFE3B4186F6B6457E0 PUSH1 0x40 MLOAD PUSH1 0x40 MLOAD DUP1 SWAP2 SUB SWAP1 LOG3 POP POP JUMP JUMPDEST PUSH0 CALLER SWAP1 POP SWAP1 JUMP JUMPDEST PUSH0 PUSH1 0x40 MLOAD SWAP1 POP SWAP1 JUMP JUMPDEST PUSH0 PUSH0 REVERT JUMPDEST PUSH0 PUSH0 REVERT JUMPDEST PUSH0 PUSH2 0xFFFF DUP3 AND SWAP1 POP SWAP2 SWAP1 POP JUMP JUMPDEST PUSH2 0x914 DUP2 PUSH2 0x8FE JUMP JUMPDEST DUP2 EQ PUSH2 0x91E JUMPI PUSH0 PUSH0 REVERT JUMPDEST POP JUMP JUMPDEST PUSH0 DUP2 CALLDATALOAD SWAP1 POP PUSH2 0x92F DUP2 PUSH2 0x90B JUMP JUMPDEST SWAP3 SWAP2 POP POP JUMP JUMPDEST PUSH0 PUSH1 0x20 DUP3 DUP5 SUB SLT ISZERO PUSH2 0x94A JUMPI PUSH2 0x949 PUSH2 0x8F6 JUMP JUMPDEST JUMPDEST PUSH0 PUSH2 0x957 DUP5 DUP3 DUP6 ADD PUSH2 0x921 JUMP JUMPDEST SWAP2 POP POP SWAP3 SWAP2 POP POP JUMP JUMPDEST PUSH0 DUP2 SWAP1 POP SWAP2 SWAP1 POP JUMP JUMPDEST PUSH2 0x972 DUP2 PUSH2 0x960 JUMP JUMPDEST DUP3 MSTORE POP POP JUMP JUMPDEST PUSH0 PUSH1 0x20 DUP3 ADD SWAP1 POP PUSH2 0x98B PUSH0 DUP4 ADD DUP5 PUSH2 0x969 JUMP JUMPDEST SWAP3 SWAP2 POP POP JUMP JUMPDEST PUSH0 PUSH0 REVERT JUMPDEST PUSH0 PUSH0 REVERT JUMPDEST PUSH0 PUSH1 0x1F NOT PUSH1 0x1F DUP4 ADD AND SWAP1 POP SWAP2 SWAP1 POP JUMP JUMPDEST PUSH32 0x4E487B7100000000000000000000000000000000000000000000000000000000 PUSH0 MSTORE PUSH1 0x41 PUSH1 0x4 MSTORE PUSH1 0x24 PUSH0 REVERT JUMPDEST PUSH2 0x9DF DUP3 PUSH2 0x999 JUMP JUMPDEST DUP2 ADD DUP2 DUP2 LT PUSH8 0xFFFFFFFFFFFFFFFF DUP3 GT OR ISZERO PUSH2 0x9FE JUMPI PUSH2 0x9FD PUSH2 0x9A9 JUMP JUMPDEST JUMPDEST DUP1 PUSH1 0x40 MSTORE POP POP POP JUMP JUMPDEST PUSH0 PUSH2 0xA10 PUSH2 0x8ED JUMP JUMPDEST SWAP1 POP PUSH2 0xA1C DUP3 DUP3 PUSH2 0x9D6 JUMP JUMPDEST SWAP2 SWAP1 POP JUMP JUMPDEST PUSH0 PUSH8 0xFFFFFFFFFFFFFFFF DUP3 GT ISZERO PUSH2 0xA3B JUMPI PUSH2 0xA3A PUSH2 0x9A9 JUMP JUMPDEST JUMPDEST PUSH2 0xA44 DUP3 PUSH2 0x999 JUMP JUMPDEST SWAP1 POP PUSH1 0x20 DUP2 ADD SWAP1 POP SWAP2 SWAP1 POP JUMP JUMPDEST DUP3 DUP2 DUP4 CALLDATACOPY PUSH0 DUP4 DUP4 ADD MSTORE POP POP POP JUMP JUMPDEST PUSH0 PUSH2 0xA71 PUSH2 0xA6C DUP5 PUSH2 0xA21 JUMP JUMPDEST PUSH2 0xA07 JUMP JUMPDEST SWAP1 POP DUP3 DUP2 MSTORE PUSH1 0x20 DUP2 ADD DUP5 DUP5 DUP5 ADD GT ISZERO PUSH2 0xA8D JUMPI PUSH2 0xA8C PUSH2 0x995 JUMP JUMPDEST JUMPDEST PUSH2 0xA98 DUP5 DUP3 DUP6 PUSH2 0xA51 JUMP JUMPDEST POP SWAP4 SWAP3 POP POP POP JUMP JUMPDEST PUSH0 DUP3 PUSH1 0x1F DUP4 ADD SLT PUSH2 0xAB4 JUMPI PUSH2 0xAB3 PUSH2 0x991 JUMP JUMPDEST JUMPDEST DUP2 CALLDATALOAD PUSH2 0xAC4 DUP5 DUP3 PUSH1 0x20 DUP7 ADD PUSH2 0xA5F JUMP JUMPDEST SWAP2 POP POP SWAP3 SWAP2 POP POP JUMP JUMPDEST PUSH0 PUSH8 0xFFFFFFFFFFFFFFFF DUP3 GT ISZERO PUSH2 0xAE7 JUMPI PUSH2 0xAE6 PUSH2 0x9A9 JUMP JUMPDEST JUMPDEST PUSH1 0x20 DUP3 MUL SWAP1 POP PUSH1 0x20 DUP2 ADD SWAP1 POP SWAP2 SWAP1 POP JUMP JUMPDEST PUSH0 PUSH0 REVERT JUMPDEST PUSH0 PUSH2 0xB0E PUSH2 0xB09 DUP5 PUSH2 0xACD JUMP JUMPDEST PUSH2 0xA07 JUMP JUMPDEST SWAP1 POP DUP1 DUP4 DUP3 MSTORE PUSH1 0x20 DUP3 ADD SWAP1 POP PUSH1 0x20 DUP5 MUL DUP4 ADD DUP6 DUP2 GT ISZERO PUSH2 0xB31 JUMPI PUSH2 0xB30 PUSH2 0xAF8 JUMP JUMPDEST JUMPDEST DUP4 JUMPDEST DUP2 DUP2 LT ISZERO PUSH2 0xB78 JUMPI DUP1 CALLDATALOAD PUSH8 0xFFFFFFFFFFFFFFFF DUP2 GT ISZERO PUSH2 0xB56 JUMPI PUSH2 0xB55 PUSH2 0x991 JUMP JUMPDEST JUMPDEST DUP1 DUP7 ADD PUSH2 0xB63 DUP10 DUP3 PUSH2 0xAA0 JUMP JUMPDEST DUP6 MSTORE PUSH1 0x20 DUP6 ADD SWAP5 POP POP POP PUSH1 0x20 DUP2 ADD SWAP1 POP PUSH2 0xB33 JUMP JUMPDEST POP POP POP SWAP4 SWAP3 POP POP POP JUMP JUMPDEST PUSH0 DUP3 PUSH1 0x1F DUP4 ADD SLT PUSH2 0xB96 JUMPI PUSH2 0xB95 PUSH2 0x991 JUMP JUMPDEST JUMPDEST DUP2 CALLDATALOAD PUSH2 0xBA6 DUP5 DUP3 PUSH1 0x20 DUP7 ADD PUSH2 0xAFC JUMP JUMPDEST SWAP2 POP POP SWAP3 SWAP2 POP POP JUMP JUMPDEST PUSH0 DUP2 SWAP1 POP SWAP2 SWAP1 POP JUMP JUMPDEST PUSH2 0xBC1 DUP2 PUSH2 0xBAF JUMP JUMPDEST DUP2 EQ PUSH2 0xBCB JUMPI PUSH0 PUSH0 REVERT JUMPDEST POP JUMP JUMPDEST PUSH0 DUP2 CALLDATALOAD SWAP1 POP PUSH2 0xBDC DUP2 PUSH2 0xBB8 JUMP JUMPDEST SWAP3 SWAP2 POP POP JUMP JUMPDEST PUSH0 PUSH0 PUSH0 PUSH0 PUSH0 PUSH1 0xA0 DUP7 DUP9 SUB SLT ISZERO PUSH2 0xBFB JUMPI PUSH2 0xBFA PUSH2 0x8F6 JUMP JUMPDEST JUMPDEST PUSH0 DUP7 ADD CALLDATALOAD PUSH8 0xFFFFFFFFFFFFFFFF DUP2 GT ISZERO PUSH2 0xC18 JUMPI PUSH2 0xC17 PUSH2 0x8FA JUMP JUMPDEST JUMPDEST PUSH2 0xC24 DUP9 DUP3 DUP10 ADD PUSH2 0xAA0 JUMP JUMPDEST SWAP6 POP POP PUSH1 0x20 DUP7 ADD CALLDATALOAD PUSH8 0xFFFFFFFFFFFFFFFF DUP2 GT ISZERO PUSH2 0xC45 JUMPI PUSH2 0xC44 PUSH2 0x8FA JUMP JUMPDEST JUMPDEST PUSH2 0xC51 DUP9 DUP3 DUP10 ADD PUSH2 0xB82 JUMP JUMPDEST SWAP5 POP POP PUSH1 0x40 PUSH2 0xC62 DUP9 DUP3 DUP10 ADD PUSH2 0xBCE JUMP JUMPDEST SWAP4 POP POP PUSH1 0x60 PUSH2 0xC73 DUP9 DUP3 DUP10 ADD PUSH2 0x921 JUMP JUMPDEST SWAP3 POP POP PUSH1 0x80 PUSH2 0xC84 DUP9 DUP3 DUP10 ADD PUSH2 0xBCE JUMP JUMPDEST SWAP2 POP POP SWAP3 SWAP6 POP SWAP3 SWAP6 SWAP1 SWAP4 POP JUMP JUMPDEST PUSH0 PUSH20 0xFFFFFFFFFFFFFFFFFFFFFFFFFFFFFFFFFFFFFFFF DUP3 AND SWAP1 POP SWAP2 SWAP1 POP JUMP JUMPDEST PUSH0 PUSH2 0xCBA DUP3 PUSH2 0xC91 JUMP JUMPDEST SWAP1 POP SWAP2 SWAP1 POP JUMP JUMPDEST PUSH2 0xCCA DUP2 PUSH2 0xCB0 JUMP JUMPDEST DUP3 MSTORE POP POP JUMP JUMPDEST PUSH0 PUSH1 0x20 DUP3 ADD SWAP1 POP PUSH2 0xCE3 PUSH0 DUP4 ADD DUP5 PUSH2 0xCC1 JUMP JUMPDEST SWAP3 SWAP2 POP POP JUMP JUMPDEST PUSH0 DUP2 MLOAD SWAP1 POP SWAP2 SWAP1 POP JUMP JUMPDEST PUSH0 DUP3 DUP3 MSTORE PUSH1 0x20 DUP3 ADD SWAP1 POP SWAP3 SWAP2 POP POP JUMP JUMPDEST DUP3 DUP2 DUP4 MCOPY PUSH0 DUP4 DUP4 ADD MSTORE POP POP POP JUMP JUMPDEST PUSH0 PUSH2 0xD1B DUP3 PUSH2 0xCE9 JUMP JUMPDEST PUSH2 0xD25 DUP2 DUP6 PUSH2 0xCF3 JUMP JUMPDEST SWAP4 POP PUSH2 0xD35 DUP2 DUP6 PUSH1 0x20 DUP7 ADD PUSH2 0xD03 JUMP JUMPDEST PUSH2 0xD3E DUP2 PUSH2 0x999 JUMP JUMPDEST DUP5 ADD SWAP2 POP POP SWAP3 SWAP2 POP POP JUMP JUMPDEST PUSH0 PUSH1 0x20 DUP3 ADD SWAP1 POP DUP2 DUP2 SUB PUSH0 DUP4 ADD MSTORE PUSH2 0xD61 DUP2 DUP5 PUSH2 0xD11 JUMP JUMPDEST SWAP1 POP SWAP3 SWAP2 POP POP JUMP JUMPDEST PUSH2 0xD72 DUP2 PUSH2 0xCB0 JUMP JUMPDEST DUP2 EQ PUSH2 0xD7C JUMPI PUSH0 PUSH0 REVERT JUMPDEST POP JUMP JUMPDEST PUSH0 DUP2 CALLDATALOAD SWAP1 POP PUSH2 0xD8D DUP2 PUSH2 0xD69 JUMP JUMPDEST SWAP3 SWAP2 POP POP JUMP JUMPDEST PUSH0 PUSH8 0xFFFFFFFFFFFFFFFF DUP3 GT ISZERO PUSH2 0xDAD JUMPI PUSH2 0xDAC PUSH2 0x9A9 JUMP JUMPDEST JUMPDEST PUSH2 0xDB6 DUP3 PUSH2 0x999 JUMP JUMPDEST SWAP1 POP PUSH1 0x20 DUP2 ADD SWAP1 POP SWAP2 SWAP1 POP JUMP JUMPDEST PUSH0 PUSH2 0xDD5 PUSH2 0xDD0 DUP5 PUSH2 0xD93 JUMP JUMPDEST PUSH2 0xA07 JUMP JUMPDEST SWAP1 POP DUP3 DUP2 MSTORE PUSH1 0x20 DUP2 ADD DUP5 DUP5 DUP5 ADD GT ISZERO PUSH2 0xDF1 JUMPI PUSH2 0xDF0 PUSH2 0x995 JUMP JUMPDEST JUMPDEST PUSH2 0xDFC DUP5 DUP3 DUP6 PUSH2 0xA51 JUMP JUMPDEST POP SWAP4 SWAP3 POP POP POP JUMP JUMPDEST PUSH0 DUP3 PUSH1 0x1F DUP4 ADD SLT PUSH2 0xE18 JUMPI PUSH2 0xE17 PUSH2 0x991 JUMP JUMPDEST JUMPDEST DUP2 CALLDATALOAD PUSH2 0xE28 DUP5 DUP3 PUSH1 0x20 DUP7 ADD PUSH2 0xDC3 JUMP JUMPDEST SWAP2 POP POP SWAP3 SWAP2 POP POP JUMP JUMPDEST PUSH0 PUSH0 PUSH0 PUSH1 0x60 DUP5 DUP7 SUB SLT ISZERO PUSH2 0xE48 JUMPI PUSH2 0xE47 PUSH2 0x8F6 JUMP JUMPDEST JUMPDEST PUSH0 PUSH2 0xE55 DUP7 DUP3 DUP8 ADD PUSH2 0x921 JUMP JUMPDEST SWAP4 POP POP PUSH1 0x20 PUSH2 0xE66 DUP7 DUP3 DUP8 ADD PUSH2 0xD7F JUMP JUMPDEST SWAP3 POP POP PUSH1 0x40 DUP5 ADD CALLDATALOAD PUSH8 0xFFFFFFFFFFFFFFFF DUP2 GT ISZERO PUSH2 0xE87 JUMPI PUSH2 0xE86 PUSH2 0x8FA JUMP JUMPDEST JUMPDEST PUSH2 0xE93 DUP7 DUP3 DUP8 ADD PUSH2 0xE04 JUMP JUMPDEST SWAP2 POP POP SWAP3 POP SWAP3 POP SWAP3 JUMP JUMPDEST PUSH0 PUSH0 PUSH1 0x40 DUP4 DUP6 SUB SLT ISZERO PUSH2 0xEB3 JUMPI PUSH2 0xEB2 PUSH2 0x8F6 JUMP JUMPDEST JUMPDEST PUSH0 PUSH2 0xEC0 DUP6 DUP3 DUP7 ADD PUSH2 0x921 JUMP JUMPDEST SWAP3 POP POP PUSH1 0x20 PUSH2 0xED1 DUP6 DUP3 DUP7 ADD PUSH2 0xD7F JUMP JUMPDEST SWAP2 POP POP SWAP3 POP SWAP3 SWAP1 POP JUMP JUMPDEST PUSH2 0xEE4 DUP2 PUSH2 0x8FE JUMP JUMPDEST DUP3 MSTORE POP POP JUMP JUMPDEST PUSH0 PUSH1 0x20 DUP3 ADD SWAP1 POP PUSH2 0xEFD PUSH0 DUP4 ADD DUP5 PUSH2 0xEDB JUMP JUMPDEST SWAP3 SWAP2 POP POP JUMP JUMPDEST PUSH0 DUP2 SWAP1 POP SWAP2 SWAP1 POP JUMP JUMPDEST PUSH0 PUSH2 0xF26 PUSH2 0xF21 PUSH2 0xF1C DUP5 PUSH2 0xC91 JUMP JUMPDEST PUSH2 0xF03 JUMP JUMPDEST PUSH2 0xC91 JUMP JUMPDEST SWAP1 POP SWAP2 SWAP1 POP JUMP JUMPDEST PUSH0 PUSH2 0xF37 DUP3 PUSH2 0xF0C JUMP JUMPDEST SWAP1 POP SWAP2 SWAP1 POP JUMP JUMPDEST PUSH0 PUSH2 0xF48 DUP3 PUSH2 0xF2D JUMP JUMPDEST SWAP1 POP SWAP2 SWAP1 POP JUMP JUMPDEST PUSH2 0xF58 DUP2 PUSH2 0xF3E JUMP JUMPDEST DUP3 MSTORE POP POP JUMP JUMPDEST PUSH0 PUSH1 0x20 DUP3 ADD SWAP1 POP PUSH2 0xF71 PUSH0 DUP4 ADD DUP5 PUSH2 0xF4F JUMP JUMPDEST SWAP3 SWAP2 POP POP JUMP JUMPDEST PUSH0 PUSH1 0x20 DUP3 DUP5 SUB SLT ISZERO PUSH2 0xF8C JUMPI PUSH2 0xF8B PUSH2 0x8F6 JUMP JUMPDEST JUMPDEST PUSH0 PUSH2 0xF99 DUP5 DUP3 DUP6 ADD PUSH2 0xD7F JUMP JUMPDEST SWAP2 POP POP SWAP3 SWAP2 POP POP JUMP JUMPDEST PUSH0 DUP2 SWAP1 POP SWAP2 SWAP1 POP JUMP JUMPDEST PUSH0 PUSH2 0xFC5 PUSH2 0xFC0 PUSH2 0xFBB DUP5 PUSH2 0xFA2 JUMP JUMPDEST PUSH2 0xF03 JUMP JUMPDEST PUSH2 0x960 JUMP JUMPDEST SWAP1 POP SWAP2 SWAP1 POP JUMP JUMPDEST PUSH2 0xFD5 DUP2 PUSH2 0xFAB JUMP JUMPDEST DUP3 MSTORE POP POP JUMP JUMPDEST PUSH0 PUSH1 0x60 DUP3 ADD SWAP1 POP PUSH2 0xFEE PUSH0 DUP4 ADD DUP7 PUSH2 0xEDB JUMP JUMPDEST PUSH2 0xFFB PUSH1 0x20 DUP4 ADD DUP6 PUSH2 0xFCC JUMP JUMPDEST PUSH2 0x1008 PUSH1 0x40 DUP4 ADD DUP5 PUSH2 0x969 JUMP JUMPDEST SWAP5 SWAP4 POP POP POP POP JUMP JUMPDEST PUSH2 0x1019 DUP2 PUSH2 0x960 JUMP JUMPDEST DUP2 EQ PUSH2 0x1023 JUMPI PUSH0 PUSH0 REVERT JUMPDEST POP JUMP JUMPDEST PUSH0 DUP2 MLOAD SWAP1 POP PUSH2 0x1034 DUP2 PUSH2 0x1010 JUMP JUMPDEST SWAP3 SWAP2 POP POP JUMP JUMPDEST PUSH0 PUSH0 PUSH1 0x40 DUP4 DUP6 SUB SLT ISZERO PUSH2 0x1050 JUMPI PUSH2 0x104F PUSH2 0x8F6 JUMP JUMPDEST JUMPDEST PUSH0 PUSH2 0x105D DUP6 DUP3 DUP7 ADD PUSH2 0x1026 JUMP JUMPDEST SWAP3 POP POP PUSH1 0x20 PUSH2 0x106E DUP6 DUP3 DUP7 ADD PUSH2 0x1026 JUMP JUMPDEST SWAP2 POP POP SWAP3 POP SWAP3 SWAP1 POP JUMP JUMPDEST PUSH32 0x4F6E6C792072656C6179657220616C6C6F776564000000000000000000000000 PUSH0 DUP3 ADD MSTORE POP JUMP JUMPDEST PUSH0 PUSH2 0x10AC PUSH1 0x14 DUP4 PUSH2 0xCF3 JUMP JUMPDEST SWAP2 POP PUSH2 0x10B7 DUP3 PUSH2 0x1078 JUMP JUMPDEST PUSH1 0x20 DUP3 ADD SWAP1 POP SWAP2 SWAP1 POP JUMP JUMPDEST PUSH0 PUSH1 0x20 DUP3 ADD SWAP1 POP DUP2 DUP2 SUB PUSH0 DUP4 ADD MSTORE PUSH2 0x10D9 DUP2 PUSH2 0x10A0 JUMP JUMPDEST SWAP1 POP SWAP2 SWAP1 POP JUMP JUMPDEST PUSH0 PUSH2 0x10F2 PUSH2 0x10ED DUP5 PUSH2 0xD93 JUMP JUMPDEST PUSH2 0xA07 JUMP JUMPDEST SWAP1 POP DUP3 DUP2 MSTORE PUSH1 0x20 DUP2 ADD DUP5 DUP5 DUP5 ADD GT ISZERO PUSH2 0x110E JUMPI PUSH2 0x110D PUSH2 0x995 JUMP JUMPDEST JUMPDEST PUSH2 0x1119 DUP5 DUP3 DUP6 PUSH2 0xD03 JUMP JUMPDEST POP SWAP4 SWAP3 POP POP POP JUMP JUMPDEST PUSH0 DUP3 PUSH1 0x1F DUP4 ADD SLT PUSH2 0x1135 JUMPI PUSH2 0x1134 PUSH2 0x991 JUMP JUMPDEST JUMPDEST DUP2 MLOAD PUSH2 0x1145 DUP5 DUP3 PUSH1 0x20 DUP7 ADD PUSH2 0x10E0 JUMP JUMPDEST SWAP2 POP POP SWAP3 SWAP2 POP POP JUMP JUMPDEST PUSH0 PUSH2 0x1158 DUP3 PUSH2 0xC91 JUMP JUMPDEST SWAP1 POP SWAP2 SWAP1 POP JUMP JUMPDEST PUSH2 0x1168 DUP2 PUSH2 0x114E JUMP JUMPDEST DUP2 EQ PUSH2 0x1172 JUMPI PUSH0 PUSH0 REVERT JUMPDEST POP JUMP JUMPDEST PUSH0 DUP2 MLOAD SWAP1 POP PUSH2 0x1183 DUP2 PUSH2 0x115F JUMP JUMPDEST SWAP3 SWAP2 POP POP JUMP JUMPDEST PUSH0 PUSH0 PUSH1 0x40 DUP4 DUP6 SUB SLT ISZERO PUSH2 0x119F JUMPI PUSH2 0x119E PUSH2 0x8F6 JUMP JUMPDEST JUMPDEST PUSH0 DUP4 ADD MLOAD PUSH8 0xFFFFFFFFFFFFFFFF DUP2 GT ISZERO PUSH2 0x11BC JUMPI PUSH2 0x11BB PUSH2 0x8FA JUMP JUMPDEST JUMPDEST PUSH2 0x11C8 DUP6 DUP3 DUP7 ADD PUSH2 0x1121 JUMP JUMPDEST SWAP3 POP POP PUSH1 0x20 PUSH2 0x11D9 DUP6 DUP3 DUP7 ADD PUSH2 0x1175 JUMP JUMPDEST SWAP2 POP POP SWAP3 POP SWAP3 SWAP1 POP JUMP JUMPDEST PUSH32 0x4E487B7100000000000000000000000000000000000000000000000000000000 PUSH0 MSTORE PUSH1 0x22 PUSH1 0x4 MSTORE PUSH1 0x24 PUSH0 REVERT JUMPDEST PUSH0 PUSH1 0x2 DUP3 DIV SWAP1 POP PUSH1 0x1 DUP3 AND DUP1 PUSH2 0x1227 JUMPI PUSH1 0x7F DUP3 AND SWAP2 POP JUMPDEST PUSH1 0x20 DUP3 LT DUP2 SUB PUSH2 0x123A JUMPI PUSH2 0x1239 PUSH2 0x11E3 JUMP JUMPDEST JUMPDEST POP SWAP2 SWAP1 POP JUMP JUMPDEST PUSH0 DUP2 SWAP1 POP DUP2 PUSH0 MSTORE PUSH1 0x20 PUSH0 KECCAK256 SWAP1 POP SWAP2 SWAP1 POP JUMP JUMPDEST PUSH0 PUSH1 0x20 PUSH1 0x1F DUP4 ADD DIV SWAP1 POP SWAP2 SWAP1 POP JUMP JUMPDEST PUSH0 DUP3 DUP3 SHL SWAP1 POP SWAP3 SWAP2 POP POP JUMP JUMPDEST PUSH0 PUSH1 0x8 DUP4 MUL PUSH2 0x129C PUSH32 0xFFFFFFFFFFFFFFFFFFFFFFFFFFFFFFFFFFFFFFFFFFFFFFFFFFFFFFFFFFFFFFFF DUP3 PUSH2 0x1261 JUMP JUMPDEST PUSH2 0x12A6 DUP7 DUP4 PUSH2 0x1261 JUMP JUMPDEST SWAP6 POP DUP1 NOT DUP5 AND SWAP4 POP DUP1 DUP7 AND DUP5 OR SWAP3 POP POP POP SWAP4 SWAP3 POP POP POP JUMP JUMPDEST PUSH0 PUSH2 0x12D8 PUSH2 0x12D3 PUSH2 0x12CE DUP5 PUSH2 0x960 JUMP JUMPDEST PUSH2 0xF03 JUMP JUMPDEST PUSH2 0x960 JUMP JUMPDEST SWAP1 POP SWAP2 SWAP1 POP JUMP JUMPDEST PUSH0 DUP2 SWAP1 POP SWAP2 SWAP1 POP JUMP JUMPDEST PUSH2 0x12F1 DUP4 PUSH2 0x12BE JUMP JUMPDEST PUSH2 0x1305 PUSH2 0x12FD DUP3 PUSH2 0x12DF JUMP JUMPDEST DUP5 DUP5 SLOAD PUSH2 0x126D JUMP JUMPDEST DUP3 SSTORE POP POP POP POP JUMP JUMPDEST PUSH0 PUSH0 SWAP1 POP SWAP1 JUMP JUMPDEST PUSH2 0x131C PUSH2 0x130D JUMP JUMPDEST PUSH2 0x1327 DUP2 DUP5 DUP5 PUSH2 0x12E8 JUMP JUMPDEST POP POP POP JUMP JUMPDEST JUMPDEST DUP2 DUP2 LT ISZERO PUSH2 0x134A JUMPI PUSH2 0x133F PUSH0 DUP3 PUSH2 0x1314 JUMP JUMPDEST PUSH1 0x1 DUP2 ADD SWAP1 POP PUSH2 0x132D JUMP JUMPDEST POP POP JUMP JUMPDEST PUSH1 0x1F DUP3 GT ISZERO PUSH2 0x138F JUMPI PUSH2 0x1360 DUP2 PUSH2 0x1240 JUMP JUMPDEST PUSH2 0x1369 DUP5 PUSH2 0x1252 JUMP JUMPDEST DUP2 ADD PUSH1 0x20 DUP6 LT ISZERO PUSH2 0x1378 JUMPI DUP2 SWAP1 POP JUMPDEST PUSH2 0x138C PUSH2 0x1384 DUP6 PUSH2 0x1252 JUMP JUMPDEST DUP4 ADD DUP3 PUSH2 0x132C JUMP JUMPDEST POP POP JUMPDEST POP POP POP JUMP JUMPDEST PUSH0 DUP3 DUP3 SHR SWAP1 POP SWAP3 SWAP2 POP POP JUMP JUMPDEST PUSH0 PUSH2 0x13AF PUSH0 NOT DUP5 PUSH1 0x8 MUL PUSH2 0x1394 JUMP JUMPDEST NOT DUP1 DUP4 AND SWAP2 POP POP SWAP3 SWAP2 POP POP JUMP JUMPDEST PUSH0 PUSH2 0x13C7 DUP4 DUP4 PUSH2 0x13A0 JUMP JUMPDEST SWAP2 POP DUP3 PUSH1 0x2 MUL DUP3 OR SWAP1 POP SWAP3 SWAP2 POP POP JUMP JUMPDEST PUSH2 0x13E0 DUP3 PUSH2 0xCE9 JUMP JUMPDEST PUSH8 0xFFFFFFFFFFFFFFFF DUP2 GT ISZERO PUSH2 0x13F9 JUMPI PUSH2 0x13F8 PUSH2 0x9A9 JUMP JUMPDEST JUMPDEST PUSH2 0x1403 DUP3 SLOAD PUSH2 0x1210 JUMP JUMPDEST PUSH2 0x140E DUP3 DUP3 DUP6 PUSH2 0x134E JUMP JUMPDEST PUSH0 PUSH1 0x20 SWAP1 POP PUSH1 0x1F DUP4 GT PUSH1 0x1 DUP2 EQ PUSH2 0x143F JUMPI PUSH0 DUP5 ISZERO PUSH2 0x142D JUMPI DUP3 DUP8 ADD MLOAD SWAP1 POP JUMPDEST PUSH2 0x1437 DUP6 DUP3 PUSH2 0x13BC JUMP JUMPDEST DUP7 SSTORE POP PUSH2 0x149E JUMP JUMPDEST PUSH1 0x1F NOT DUP5 AND PUSH2 0x144D DUP7 PUSH2 0x1240 JUMP JUMPDEST PUSH0 JUMPDEST DUP3 DUP2 LT ISZERO PUSH2 0x1474 JUMPI DUP5 DUP10 ADD MLOAD DUP3 SSTORE PUSH1 0x1 DUP3 ADD SWAP2 POP PUSH1 0x20 DUP6 ADD SWAP5 POP PUSH1 0x20 DUP2 ADD SWAP1 POP PUSH2 0x144F JUMP JUMPDEST DUP7 DUP4 LT ISZERO PUSH2 0x1491 JUMPI DUP5 DUP10 ADD MLOAD PUSH2 0x148D PUSH1 0x1F DUP10 AND DUP3 PUSH2 0x13A0 JUMP JUMPDEST DUP4 SSTORE POP JUMPDEST PUSH1 0x1 PUSH1 0x2 DUP9 MUL ADD DUP9 SSTORE POP POP POP JUMPDEST POP POP POP POP POP POP JUMP JUMPDEST PUSH0 DUP2 SLOAD PUSH2 0x14B2 DUP2 PUSH2 0x1210 JUMP JUMPDEST PUSH2 0x14BC DUP2 DUP7 PUSH2 0xCF3 JUMP JUMPDEST SWAP5 POP PUSH1 0x1 DUP3 AND PUSH0 DUP2 EQ PUSH2 0x14D6 JUMPI PUSH1 0x1 DUP2 EQ PUSH2 0x14EC JUMPI PUSH2 0x151E JUMP JUMPDEST PUSH1 0xFF NOT DUP4 AND DUP7 MSTORE DUP2 ISZERO ISZERO PUSH1 0x20 MUL DUP7 ADD SWAP4 POP PUSH2 0x151E JUMP JUMPDEST PUSH2 0x14F5 DUP6 PUSH2 0x1240 JUMP JUMPDEST PUSH0 JUMPDEST DUP4 DUP2 LT ISZERO PUSH2 0x1516 JUMPI DUP2 SLOAD DUP2 DUP10 ADD MSTORE PUSH1 0x1 DUP3 ADD SWAP2 POP PUSH1 0x20 DUP2 ADD SWAP1 POP PUSH2 0x14F7 JUMP JUMPDEST DUP1 DUP9 ADD SWAP6 POP POP POP JUMPDEST POP POP POP SWAP3 SWAP2 POP POP JUMP JUMPDEST PUSH0 PUSH1 0x60 DUP3 ADD SWAP1 POP DUP2 DUP2 SUB PUSH0 DUP4 ADD MSTORE PUSH2 0x153F DUP2 DUP7 PUSH2 0x14A6 JUMP JUMPDEST SWAP1 POP PUSH2 0x154E PUSH1 0x20 DUP4 ADD DUP6 PUSH2 0xEDB JUMP JUMPDEST PUSH2 0x155B PUSH1 0x40 DUP4 ADD DUP5 PUSH2 0xCC1 JUMP JUMPDEST SWAP5 SWAP4 POP POP POP POP JUMP JUMPDEST PUSH0 PUSH1 0x40 DUP3 ADD SWAP1 POP DUP2 DUP2 SUB PUSH0 DUP4 ADD MSTORE PUSH2 0x157B DUP2 DUP6 PUSH2 0xD11 JUMP JUMPDEST SWAP1 POP PUSH2 0x158A PUSH1 0x20 DUP4 ADD DUP5 PUSH2 0xCC1 JUMP JUMPDEST SWAP4 SWAP3 POP POP POP JUMP JUMPDEST PUSH0 DUP2 MLOAD SWAP1 POP SWAP2 SWAP1 POP JUMP JUMPDEST PUSH0 DUP3 DUP3 MSTORE PUSH1 0x20 DUP3 ADD SWAP1 POP SWAP3 SWAP2 POP POP JUMP JUMPDEST PUSH0 PUSH2 0x15B5 DUP3 PUSH2 0x1591 JUMP JUMPDEST PUSH2 0x15BF DUP2 DUP6 PUSH2 0x159B JUMP JUMPDEST SWAP4 POP PUSH2 0x15CF DUP2 DUP6 PUSH1 0x20 DUP7 ADD PUSH2 0xD03 JUMP JUMPDEST PUSH2 0x15D8 DUP2 PUSH2 0x999 JUMP JUMPDEST DUP5 ADD SWAP2 POP POP SWAP3 SWAP2 POP POP JUMP JUMPDEST PUSH0 PUSH1 0xE0 DUP3 ADD SWAP1 POP PUSH2 0x15F6 PUSH0 DUP4 ADD DUP11 PUSH2 0xEDB JUMP JUMPDEST PUSH2 0x1603 PUSH1 0x20 DUP4 ADD DUP10 PUSH2 0xCC1 JUMP JUMPDEST DUP2 DUP2 SUB PUSH1 0x40 DUP4 ADD MSTORE PUSH2 0x1615 DUP2 DUP9 PUSH2 0x15AB JUMP JUMPDEST SWAP1 POP PUSH2 0x1624 PUSH1 0x60 DUP4 ADD DUP8 PUSH2 0xFCC JUMP JUMPDEST PUSH2 0x1631 PUSH1 0x80 DUP4 ADD DUP7 PUSH2 0x969 JUMP JUMPDEST PUSH2 0x163E PUSH1 0xA0 DUP4 ADD DUP6 PUSH2 0xEDB JUMP JUMPDEST PUSH2 0x164B PUSH1 0xC0 DUP4 ADD DUP5 PUSH2 0xCC1 JUMP JUMPDEST SWAP9 SWAP8 POP POP POP POP POP POP POP POP JUMP JUMPDEST PUSH0 PUSH8 0xFFFFFFFFFFFFFFFF DUP3 AND SWAP1 POP SWAP2 SWAP1 POP JUMP JUMPDEST PUSH2 0x1673 DUP2 PUSH2 0x1657 JUMP JUMPDEST DUP2 EQ PUSH2 0x167D JUMPI PUSH0 PUSH0 REVERT JUMPDEST POP JUMP JUMPDEST PUSH0 DUP2 MLOAD SWAP1 POP PUSH2 0x168E DUP2 PUSH2 0x166A JUMP JUMPDEST SWAP3 SWAP2 POP POP JUMP JUMPDEST PUSH0 PUSH1 0x20 DUP3 DUP5 SUB SLT ISZERO PUSH2 0x16A9 JUMPI PUSH2 0x16A8 PUSH2 0x8F6 JUMP JUMPDEST JUMPDEST PUSH0 PUSH2 0x16B6 DUP5 DUP3 DUP6 ADD PUSH2 0x1680 JUMP JUMPDEST SWAP2 POP POP SWAP3 SWAP2 POP POP JUMP INVALID LOG2 PUSH5 0x6970667358 0x22 SLT KECCAK256 LOG0 DUP5 PUSH12 0xAD153F896FBC171618E5D4E8 TIMESTAMP 0xE4 0xE0 DUP12 LOG2 PUSH9 0x92B2CEB29347E7DD96 0xD9 PUSH24 0x64736F6C634300081B003300000000000000000000000000 "
				},
				"gasEstimates": {
					"creation": {
						"codeDepositCost": "1175400",
						"executionCost": "infinite",
						"totalCost": "infinite"
					},
					"external": {
						"_srcChainId()": "2560",
						"latestGreeting()": "infinite",
						"owner()": "2581",
						"quoteCrossChainGreeting(uint16)": "infinite",
						"receiveWormholeMessages(bytes,bytes[],bytes32,uint16,bytes32)": "infinite",
						"renounceOwnership()": "infinite",
						"sendMessage(uint16,address,string)": "infinite",
						"setPeer(uint16,address)": "infinite",
						"transferOwnership(address)": "infinite",
						"wormholeRelayer()": "infinite"
					}
				},
				"methodIdentifiers": {
					"_srcChainId()": "c439b0d9",
					"latestGreeting()": "921b58a9",
					"owner()": "8da5cb5b",
					"quoteCrossChainGreeting(uint16)": "28bd75ce",
					"receiveWormholeMessages(bytes,bytes[],bytes32,uint16,bytes32)": "529dca32",
					"renounceOwnership()": "715018a6",
					"sendMessage(uint16,address,string)": "afd44488",
					"setPeer(uint16,address)": "c2362d0d",
					"transferOwnership(address)": "f2fde38b",
					"wormholeRelayer()": "da25b725"
				}
			},
			"storageLayout": {
				"storage": [
					{
						"astId": 8,
						"contract": "contracts/Wormhole/WormholeCcm.sol:WormholeCcm",
						"label": "_owner",
						"offset": 0,
						"slot": "0",
						"type": "t_address"
					},
					{
						"astId": 199,
						"contract": "contracts/Wormhole/WormholeCcm.sol:WormholeCcm",
						"label": "_srcChainId",
						"offset": 20,
						"slot": "0",
						"type": "t_uint16"
					},
					{
						"astId": 204,
						"contract": "contracts/Wormhole/WormholeCcm.sol:WormholeCcm",
						"label": "latestGreeting",
						"offset": 0,
						"slot": "1",
						"type": "t_string_storage"
					},
					{
						"astId": 208,
						"contract": "contracts/Wormhole/WormholeCcm.sol:WormholeCcm",
						"label": "peerContracts",
						"offset": 0,
						"slot": "2",
						"type": "t_mapping(t_uint16,t_address)"
					}
				],
				"types": {
					"t_address": {
						"encoding": "inplace",
						"label": "address",
						"numberOfBytes": "20"
					},
					"t_mapping(t_uint16,t_address)": {
						"encoding": "mapping",
						"key": "t_uint16",
						"label": "mapping(uint16 => address)",
						"numberOfBytes": "32",
						"value": "t_address"
					},
					"t_string_storage": {
						"encoding": "bytes",
						"label": "string",
						"numberOfBytes": "32"
					},
					"t_uint16": {
						"encoding": "inplace",
						"label": "uint16",
						"numberOfBytes": "2"
					}
				}
			},
			"userdoc": {
				"kind": "user",
				"methods": {},
				"version": 1
			}
		}
	}
}